{
  "contractName": "AuthorityRegistry",
  "abi": [
    {
      "inputs": [],
      "stateMutability": "nonpayable",
      "type": "constructor"
    },
    {
      "anonymous": false,
      "inputs": [
        {
          "indexed": true,
          "internalType": "address",
          "name": "authority",
          "type": "address"
        }
      ],
      "name": "AuthorityAdded",
      "type": "event"
    },
    {
      "inputs": [
        {
          "internalType": "address",
          "name": "",
          "type": "address"
        }
      ],
      "name": "authorities",
      "outputs": [
        {
          "internalType": "bool",
          "name": "",
          "type": "bool"
        }
      ],
      "stateMutability": "view",
      "type": "function"
    },
    {
      "inputs": [
        {
          "internalType": "address",
          "name": "_authority",
          "type": "address"
        }
      ],
      "name": "addAuthority",
      "outputs": [],
      "stateMutability": "nonpayable",
      "type": "function"
    },
    {
      "inputs": [
        {
          "internalType": "address",
          "name": "_address",
          "type": "address"
        }
      ],
      "name": "isAuthority",
      "outputs": [
        {
          "internalType": "bool",
          "name": "",
          "type": "bool"
        }
      ],
      "stateMutability": "view",
      "type": "function"
    }
  ],
  "bytecode": "0x608060405234801561000f575f80fd5b5061001f3361002460201b60201c565b6100be565b60015f808373ffffffffffffffffffffffffffffffffffffffff1673ffffffffffffffffffffffffffffffffffffffff1681526020019081526020015f205f6101000a81548160ff0219169083151502179055508073ffffffffffffffffffffffffffffffffffffffff167f550a8ae64ec9d6640b6f168a26d3e6364b90defe8110c92135aa775b279e54ea60405160405180910390a250565b6102b8806100cb5f395ff3fe608060405234801561000f575f80fd5b506004361061003f575f3560e01c80632330f2471461004357806326defa731461007357806391223d691461008f575b5f80fd5b61005d60048036038101906100589190610224565b6100bf565b60405161006a9190610269565b60405180910390f35b61008d60048036038101906100889190610224565b610110565b005b6100a960048036038101906100a49190610224565b6101aa565b6040516100b69190610269565b60405180910390f35b5f805f8373ffffffffffffffffffffffffffffffffffffffff1673ffffffffffffffffffffffffffffffffffffffff1681526020019081526020015f205f9054906101000a900460ff169050919050565b60015f808373ffffffffffffffffffffffffffffffffffffffff1673ffffffffffffffffffffffffffffffffffffffff1681526020019081526020015f205f6101000a81548160ff0219169083151502179055508073ffffffffffffffffffffffffffffffffffffffff167f550a8ae64ec9d6640b6f168a26d3e6364b90defe8110c92135aa775b279e54ea60405160405180910390a250565b5f602052805f5260405f205f915054906101000a900460ff1681565b5f80fd5b5f73ffffffffffffffffffffffffffffffffffffffff82169050919050565b5f6101f3826101ca565b9050919050565b610203816101e9565b811461020d575f80fd5b50565b5f8135905061021e816101fa565b92915050565b5f60208284031215610239576102386101c6565b5b5f61024684828501610210565b91505092915050565b5f8115159050919050565b6102638161024f565b82525050565b5f60208201905061027c5f83018461025a565b9291505056fea2646970667358221220f679fb6fe3eb6c177efa62802c4efe24b072cf3c0a8ceba2f39d0ecf4013193964736f6c63430008140033",
  "immutableReferences": {},
  "source": "// SPDX-License-Identifier: MIT\r\npragma solidity 0.8.20;\r\n\r\ncontract AuthorityRegistry {\r\n\r\n    mapping(address => bool) public authorities;\r\n\r\n    event AuthorityAdded(address indexed authority);\r\n\r\n    constructor() {\r\n        addAuthority(msg.sender);\r\n    }\r\n\r\n    function addAuthority(address _authority) public {\r\n        authorities[_authority] = true;\r\n        emit AuthorityAdded(_authority);\r\n    }\r\n\r\n    function isAuthority(address _address) public view returns (bool) {\r\n        return authorities[_address];\r\n    }\r\n}\r\n",
  "sourcePath": "C:\\Users\\avjc2\\Documents\\S2 BINUS\\THESIS\\BLOCKCHAIN\\APPLICATIONS\\EMRIHsystem\\EMR-IH_smart_contracts\\contracts\\AuthorityRegistry.sol",
  "compiler": {
    "name": "solc",
    "version": "0.8.20+commit.a1b79de6.Emscripten.clang"
  },
  "schemaVersion": "3.4.16",
  "updatedAt": "2024-02-14T08:28:35.928Z",
  "devdoc": {
    "kind": "dev",
    "methods": {},
    "version": 1
  },
  "userdoc": {
    "kind": "user",
    "methods": {},
    "version": 1
  }
}