{
  "contractName": "DoctorRegistry",
  "abi": [
    {
      "inputs": [
        {
          "internalType": "address",
          "name": "_patientEMRContract",
          "type": "address"
        },
        {
          "internalType": "address",
          "name": "_authorityRegistryAddress",
          "type": "address"
        }
      ],
      "stateMutability": "nonpayable",
      "type": "constructor"
    },
    {
      "inputs": [
        {
          "internalType": "address",
          "name": "owner",
          "type": "address"
        }
      ],
      "name": "OwnableInvalidOwner",
      "type": "error"
    },
    {
      "inputs": [
        {
          "internalType": "address",
          "name": "account",
          "type": "address"
        }
      ],
      "name": "OwnableUnauthorizedAccount",
      "type": "error"
    },
    {
      "anonymous": false,
      "inputs": [
        {
          "indexed": false,
          "internalType": "string",
          "name": "email",
          "type": "string"
        },
        {
          "indexed": false,
          "internalType": "string",
          "name": "name",
          "type": "string"
        },
        {
          "indexed": false,
          "internalType": "string",
          "name": "nic",
          "type": "string"
        },
        {
          "indexed": false,
          "internalType": "string",
          "name": "hospital",
          "type": "string"
        }
      ],
      "name": "DoctorAdded",
      "type": "event"
    },
    {
      "anonymous": false,
      "inputs": [
        {
          "indexed": false,
          "internalType": "string",
          "name": "patientNic",
          "type": "string"
        },
        {
          "indexed": false,
          "internalType": "string",
          "name": "doctorNic",
          "type": "string"
        },
        {
          "indexed": false,
          "internalType": "string",
          "name": "token",
          "type": "string"
        }
      ],
      "name": "DoctorAssociated",
      "type": "event"
    },
    {
      "anonymous": false,
      "inputs": [
        {
          "indexed": false,
          "internalType": "string",
          "name": "doctorNic",
          "type": "string"
        }
      ],
      "name": "DoctorDeleted",
      "type": "event"
    },
    {
      "anonymous": false,
      "inputs": [
        {
          "indexed": false,
          "internalType": "string",
          "name": "email",
          "type": "string"
        },
        {
          "indexed": false,
          "internalType": "string",
          "name": "name",
          "type": "string"
        },
        {
          "indexed": false,
          "internalType": "string",
          "name": "telephone",
          "type": "string"
        },
        {
          "indexed": false,
          "internalType": "string",
          "name": "specialties",
          "type": "string"
        }
      ],
      "name": "DoctorUpdated",
      "type": "event"
    },
    {
      "anonymous": false,
      "inputs": [
        {
          "indexed": true,
          "internalType": "address",
          "name": "previousOwner",
          "type": "address"
        },
        {
          "indexed": true,
          "internalType": "address",
          "name": "newOwner",
          "type": "address"
        }
      ],
      "name": "OwnershipTransferred",
      "type": "event"
    },
    {
      "inputs": [],
      "name": "authorityRegistry",
      "outputs": [
        {
          "internalType": "contract AuthorityRegistry",
          "name": "",
          "type": "address"
        }
      ],
      "stateMutability": "view",
      "type": "function"
    },
    {
      "inputs": [
        {
          "internalType": "uint256",
          "name": "",
          "type": "uint256"
        }
      ],
      "name": "doctorRegisteredNICs",
      "outputs": [
        {
          "internalType": "string",
          "name": "",
          "type": "string"
        }
      ],
      "stateMutability": "view",
      "type": "function"
    },
    {
      "inputs": [
        {
          "internalType": "string",
          "name": "",
          "type": "string"
        }
      ],
      "name": "doctors",
      "outputs": [
        {
          "internalType": "string",
          "name": "email",
          "type": "string"
        },
        {
          "internalType": "string",
          "name": "name",
          "type": "string"
        },
        {
          "internalType": "string",
          "name": "password",
          "type": "string"
        },
        {
          "internalType": "string",
          "name": "nic",
          "type": "string"
        },
        {
          "internalType": "string",
          "name": "telephone",
          "type": "string"
        },
        {
          "internalType": "string",
          "name": "walletAddress",
          "type": "string"
        },
        {
          "internalType": "string",
          "name": "specialties",
          "type": "string"
        },
        {
          "internalType": "string",
          "name": "hospital",
          "type": "string"
        }
      ],
      "stateMutability": "view",
      "type": "function"
    },
    {
      "inputs": [
        {
          "internalType": "string",
          "name": "",
          "type": "string"
        }
      ],
      "name": "isNICRegistered",
      "outputs": [
        {
          "internalType": "bool",
          "name": "",
          "type": "bool"
        }
      ],
      "stateMutability": "view",
      "type": "function"
    },
    {
      "inputs": [
        {
          "internalType": "string",
          "name": "",
          "type": "string"
        }
      ],
      "name": "isWalletRegistered",
      "outputs": [
        {
          "internalType": "bool",
          "name": "",
          "type": "bool"
        }
      ],
      "stateMutability": "view",
      "type": "function"
    },
    {
      "inputs": [],
      "name": "owner",
      "outputs": [
        {
          "internalType": "address",
          "name": "",
          "type": "address"
        }
      ],
      "stateMutability": "view",
      "type": "function"
    },
    {
      "inputs": [],
      "name": "patientEMRContract",
      "outputs": [
        {
          "internalType": "contract PatientEMRStorage",
          "name": "",
          "type": "address"
        }
      ],
      "stateMutability": "view",
      "type": "function"
    },
    {
      "inputs": [
        {
          "internalType": "uint256",
          "name": "",
          "type": "uint256"
        }
      ],
      "name": "registeredNICs",
      "outputs": [
        {
          "internalType": "string",
          "name": "",
          "type": "string"
        }
      ],
      "stateMutability": "view",
      "type": "function"
    },
    {
      "inputs": [],
      "name": "renounceOwnership",
      "outputs": [],
      "stateMutability": "nonpayable",
      "type": "function"
    },
    {
      "inputs": [
        {
          "internalType": "address",
          "name": "newOwner",
          "type": "address"
        }
      ],
      "name": "transferOwnership",
      "outputs": [],
      "stateMutability": "nonpayable",
      "type": "function"
    },
    {
      "inputs": [
        {
          "internalType": "string",
          "name": "email",
          "type": "string"
        },
        {
          "internalType": "string",
          "name": "name",
          "type": "string"
        },
        {
          "internalType": "string",
          "name": "password",
          "type": "string"
        },
        {
          "internalType": "string",
          "name": "nic",
          "type": "string"
        },
        {
          "internalType": "string",
          "name": "telephone",
          "type": "string"
        },
        {
          "internalType": "string",
          "name": "walletAddress",
          "type": "string"
        },
        {
          "internalType": "string",
          "name": "specialties",
          "type": "string"
        },
        {
          "internalType": "string",
          "name": "hospital",
          "type": "string"
        }
      ],
      "name": "addDoctor",
      "outputs": [],
      "stateMutability": "nonpayable",
      "type": "function"
    },
    {
      "inputs": [
        {
          "internalType": "string",
          "name": "doctorNic",
          "type": "string"
        },
        {
          "internalType": "string",
          "name": "newEmail",
          "type": "string"
        },
        {
          "internalType": "string",
          "name": "newName",
          "type": "string"
        },
        {
          "internalType": "string",
          "name": "newTelephone",
          "type": "string"
        },
        {
          "internalType": "string",
          "name": "newSpecialties",
          "type": "string"
        }
      ],
      "name": "updateDoctorData",
      "outputs": [],
      "stateMutability": "nonpayable",
      "type": "function"
    },
    {
      "inputs": [
        {
          "internalType": "string",
          "name": "nic",
          "type": "string"
        }
      ],
      "name": "isNICAlreadyRegistered",
      "outputs": [
        {
          "internalType": "bool",
          "name": "",
          "type": "bool"
        }
      ],
      "stateMutability": "view",
      "type": "function"
    },
    {
      "inputs": [
        {
          "internalType": "string",
          "name": "doctorNic",
          "type": "string"
        }
      ],
      "name": "getDoctorDetails",
      "outputs": [
        {
          "components": [
            {
              "internalType": "string",
              "name": "email",
              "type": "string"
            },
            {
              "internalType": "string",
              "name": "name",
              "type": "string"
            },
            {
              "internalType": "string",
              "name": "password",
              "type": "string"
            },
            {
              "internalType": "string",
              "name": "nic",
              "type": "string"
            },
            {
              "internalType": "string",
              "name": "telephone",
              "type": "string"
            },
            {
              "internalType": "string",
              "name": "walletAddress",
              "type": "string"
            },
            {
              "internalType": "string",
              "name": "specialties",
              "type": "string"
            },
            {
              "internalType": "string",
              "name": "hospital",
              "type": "string"
            }
          ],
          "internalType": "struct DoctorRegistry.Doctor",
          "name": "",
          "type": "tuple"
        }
      ],
      "stateMutability": "view",
      "type": "function"
    },
    {
      "inputs": [
        {
          "internalType": "string",
          "name": "email",
          "type": "string"
        },
        {
          "internalType": "string",
          "name": "password",
          "type": "string"
        },
        {
          "internalType": "string",
          "name": "doctorNic",
          "type": "string"
        },
        {
          "internalType": "string",
          "name": "hospital",
          "type": "string"
        }
      ],
      "name": "validateDoctorLogin",
      "outputs": [
        {
          "internalType": "string",
          "name": "message",
          "type": "string"
        },
        {
          "components": [
            {
              "internalType": "string",
              "name": "email",
              "type": "string"
            },
            {
              "internalType": "string",
              "name": "name",
              "type": "string"
            },
            {
              "internalType": "string",
              "name": "password",
              "type": "string"
            },
            {
              "internalType": "string",
              "name": "nic",
              "type": "string"
            },
            {
              "internalType": "string",
              "name": "telephone",
              "type": "string"
            },
            {
              "internalType": "string",
              "name": "walletAddress",
              "type": "string"
            },
            {
              "internalType": "string",
              "name": "specialties",
              "type": "string"
            },
            {
              "internalType": "string",
              "name": "hospital",
              "type": "string"
            }
          ],
          "internalType": "struct DoctorRegistry.Doctor",
          "name": "doctorData",
          "type": "tuple"
        }
      ],
      "stateMutability": "view",
      "type": "function"
    },
    {
      "inputs": [
        {
          "internalType": "string",
          "name": "doctorNic",
          "type": "string"
        }
      ],
      "name": "deleteDoctor",
      "outputs": [],
      "stateMutability": "nonpayable",
      "type": "function"
    }
  ],
  "bytecode": "0x608060405234801562000010575f80fd5b50604051620035563803806200355683398181016040528101906200003691906200026a565b805f73ffffffffffffffffffffffffffffffffffffffff168173ffffffffffffffffffffffffffffffffffffffff1603620000aa575f6040517f1e4fbdf7000000000000000000000000000000000000000000000000000000008152600401620000a19190620002c0565b60405180910390fd5b620000bb816200014460201b60201c565b508160015f6101000a81548173ffffffffffffffffffffffffffffffffffffffff021916908373ffffffffffffffffffffffffffffffffffffffff1602179055508060025f6101000a81548173ffffffffffffffffffffffffffffffffffffffff021916908373ffffffffffffffffffffffffffffffffffffffff1602179055505050620002db565b5f805f9054906101000a900473ffffffffffffffffffffffffffffffffffffffff169050815f806101000a81548173ffffffffffffffffffffffffffffffffffffffff021916908373ffffffffffffffffffffffffffffffffffffffff1602179055508173ffffffffffffffffffffffffffffffffffffffff168173ffffffffffffffffffffffffffffffffffffffff167f8be0079c531659141344cd1fd0a4f28419497f9722a3daafe3b4186f6b6457e060405160405180910390a35050565b5f80fd5b5f73ffffffffffffffffffffffffffffffffffffffff82169050919050565b5f620002348262000209565b9050919050565b620002468162000228565b811462000251575f80fd5b50565b5f8151905062000264816200023b565b92915050565b5f806040838503121562000283576200028262000205565b5b5f620002928582860162000254565b9250506020620002a58582860162000254565b9150509250929050565b620002ba8162000228565b82525050565b5f602082019050620002d55f830184620002af565b92915050565b61326d80620002e95f395ff3fe608060405234801561000f575f80fd5b50600436106100fe575f3560e01c80638da5cb5b11610095578063f26a7de411610064578063f26a7de4146102c6578063f2fde38b146102e2578063f6b014a7146102fe578063f96c31d11461032e576100fe565b80638da5cb5b1461023e578063a9ba045e1461025c578063b584916c1461027a578063d1ec1260146102aa576100fe565b80633e769767116100d15780633e769767146101b557806367cc675f146101e55780636df2546e14610216578063715018a614610234576100fe565b806305c35ce5146101025780630ee058801461013957806314c8baa91461016957806335361aaa14610199575b5f80fd5b61011c60048036038101906101179190612338565b61035e565b6040516101309897969594939291906123f9565b60405180910390f35b610153600480360381019061014e9190612338565b6107ea565b60405161016091906124c7565b60405180910390f35b610183600480360381019061017e9190612338565b61081f565b60405161019091906124c7565b60405180910390f35b6101b360048036038101906101ae91906124e0565b610852565b005b6101cf60048036038101906101ca9190612338565b610c02565b6040516101dc9190612797565b60405180910390f35b6101ff60048036038101906101fa91906127b7565b611124565b60405161020d92919061288b565b60405180910390f35b61021e611946565b60405161022b919061293a565b60405180910390f35b61023c61196b565b005b61024661197e565b6040516102539190612973565b60405180910390f35b6102646119a5565b60405161027191906129ac565b60405180910390f35b610294600480360381019061028f91906129f8565b6119ca565b6040516102a19190612a23565b60405180910390f35b6102c460048036038101906102bf9190612a43565b611a70565b005b6102e060048036038101906102db9190612338565b611c87565b005b6102fc60048036038101906102f79190612b70565b611ea0565b005b61031860048036038101906103139190612338565b611f24565b60405161032591906124c7565b60405180910390f35b610348600480360381019061034391906129f8565b611f59565b6040516103559190612a23565b60405180910390f35b6003818051602081018201805184825260208301602085012081835280955050505050505f91509050805f01805461039590612bc8565b80601f01602080910402602001604051908101604052809291908181526020018280546103c190612bc8565b801561040c5780601f106103e35761010080835404028352916020019161040c565b820191905f5260205f20905b8154815290600101906020018083116103ef57829003601f168201915b50505050509080600101805461042190612bc8565b80601f016020809104026020016040519081016040528092919081815260200182805461044d90612bc8565b80156104985780601f1061046f57610100808354040283529160200191610498565b820191905f5260205f20905b81548152906001019060200180831161047b57829003601f168201915b5050505050908060020180546104ad90612bc8565b80601f01602080910402602001604051908101604052809291908181526020018280546104d990612bc8565b80156105245780601f106104fb57610100808354040283529160200191610524565b820191905f5260205f20905b81548152906001019060200180831161050757829003601f168201915b50505050509080600301805461053990612bc8565b80601f016020809104026020016040519081016040528092919081815260200182805461056590612bc8565b80156105b05780601f10610587576101008083540402835291602001916105b0565b820191905f5260205f20905b81548152906001019060200180831161059357829003601f168201915b5050505050908060040180546105c590612bc8565b80601f01602080910402602001604051908101604052809291908181526020018280546105f190612bc8565b801561063c5780601f106106135761010080835404028352916020019161063c565b820191905f5260205f20905b81548152906001019060200180831161061f57829003601f168201915b50505050509080600501805461065190612bc8565b80601f016020809104026020016040519081016040528092919081815260200182805461067d90612bc8565b80156106c85780601f1061069f576101008083540402835291602001916106c8565b820191905f5260205f20905b8154815290600101906020018083116106ab57829003601f168201915b5050505050908060060180546106dd90612bc8565b80601f016020809104026020016040519081016040528092919081815260200182805461070990612bc8565b80156107545780601f1061072b57610100808354040283529160200191610754565b820191905f5260205f20905b81548152906001019060200180831161073757829003601f168201915b50505050509080600701805461076990612bc8565b80601f016020809104026020016040519081016040528092919081815260200182805461079590612bc8565b80156107e05780601f106107b7576101008083540402835291602001916107e0565b820191905f5260205f20905b8154815290600101906020018083116107c357829003601f168201915b5050505050905088565b6005818051602081018201805184825260208301602085012081835280955050505050505f915054906101000a900460ff1681565b5f6004826040516108309190612c32565b90815260200160405180910390205f9054906101000a900460ff169050919050565b60025f9054906101000a900473ffffffffffffffffffffffffffffffffffffffff1673ffffffffffffffffffffffffffffffffffffffff16632330f247336040518263ffffffff1660e01b81526004016108ac9190612973565b602060405180830381865afa1580156108c7573d5f803e3d5ffd5b505050506040513d601f19601f820116820180604052508101906108eb9190612c72565b61092a576040517f08c379a000000000000000000000000000000000000000000000000000000000815260040161092190612ce7565b60405180910390fd5b60048560405161093a9190612c32565b90815260200160405180910390205f9054906101000a900460ff1615610995576040517f08c379a000000000000000000000000000000000000000000000000000000000815260040161098c90612d4f565b60405180910390fd5b5f6040518061010001604052808a8152602001898152602001888152602001878152602001868152602001858152602001848152602001838152509050806003876040516109e39190612c32565b90815260200160405180910390205f820151815f019081610a049190612f01565b506020820151816001019081610a1a9190612f01565b506040820151816002019081610a309190612f01565b506060820151816003019081610a469190612f01565b506080820151816004019081610a5c9190612f01565b5060a0820151816005019081610a729190612f01565b5060c0820151816006019081610a889190612f01565b5060e0820151816007019081610a9e9190612f01565b509050506001600487604051610ab49190612c32565b90815260200160405180910390205f6101000a81548160ff021916908315150217905550600786908060018154018082558091505060019003905f5260205f20015f909190919091509081610b099190612f01565b5060025f9054906101000a900473ffffffffffffffffffffffffffffffffffffffff1673ffffffffffffffffffffffffffffffffffffffff166326defa7385604051602001610b589190612c32565b6040516020818303038152906040528051906020012060601c6040518263ffffffff1660e01b8152600401610b8d9190612973565b5f604051808303815f87803b158015610ba4575f80fd5b505af1158015610bb6573d5f803e3d5ffd5b505050507f7ebb789ad5cef3485983ee098a736771fe841dd944d776f28811db22faf5022289898885604051610bef9493929190612fd0565b60405180910390a1505050505050505050565b610c0a61214e565b600482604051610c1a9190612c32565b90815260200160405180910390205f9054906101000a900460ff16610c74576040517f08c379a0000000000000000000000000000000000000000000000000000000008152600401610c6b90613079565b60405180910390fd5b600382604051610c849190612c32565b9081526020016040518091039020604051806101000160405290815f82018054610cad90612bc8565b80601f0160208091040260200160405190810160405280929190818152602001828054610cd990612bc8565b8015610d245780601f10610cfb57610100808354040283529160200191610d24565b820191905f5260205f20905b815481529060010190602001808311610d0757829003601f168201915b50505050508152602001600182018054610d3d90612bc8565b80601f0160208091040260200160405190810160405280929190818152602001828054610d6990612bc8565b8015610db45780601f10610d8b57610100808354040283529160200191610db4565b820191905f5260205f20905b815481529060010190602001808311610d9757829003601f168201915b50505050508152602001600282018054610dcd90612bc8565b80601f0160208091040260200160405190810160405280929190818152602001828054610df990612bc8565b8015610e445780601f10610e1b57610100808354040283529160200191610e44565b820191905f5260205f20905b815481529060010190602001808311610e2757829003601f168201915b50505050508152602001600382018054610e5d90612bc8565b80601f0160208091040260200160405190810160405280929190818152602001828054610e8990612bc8565b8015610ed45780601f10610eab57610100808354040283529160200191610ed4565b820191905f5260205f20905b815481529060010190602001808311610eb757829003601f168201915b50505050508152602001600482018054610eed90612bc8565b80601f0160208091040260200160405190810160405280929190818152602001828054610f1990612bc8565b8015610f645780601f10610f3b57610100808354040283529160200191610f64565b820191905f5260205f20905b815481529060010190602001808311610f4757829003601f168201915b50505050508152602001600582018054610f7d90612bc8565b80601f0160208091040260200160405190810160405280929190818152602001828054610fa990612bc8565b8015610ff45780601f10610fcb57610100808354040283529160200191610ff4565b820191905f5260205f20905b815481529060010190602001808311610fd757829003601f168201915b5050505050815260200160068201805461100d90612bc8565b80601f016020809104026020016040519081016040528092919081815260200182805461103990612bc8565b80156110845780601f1061105b57610100808354040283529160200191611084565b820191905f5260205f20905b81548152906001019060200180831161106757829003601f168201915b5050505050815260200160078201805461109d90612bc8565b80601f01602080910402602001604051908101604052809291908181526020018280546110c990612bc8565b80156111145780601f106110eb57610100808354040283529160200191611114565b820191905f5260205f20905b8154815290600101906020018083116110f757829003601f168201915b5050505050815250509050919050565b606061112e61214e565b60048460405161113e9190612c32565b90815260200160405180910390205f9054906101000a900460ff1615611858575f60038560405161116f9190612c32565b9081526020016040518091039020604051806101000160405290815f8201805461119890612bc8565b80601f01602080910402602001604051908101604052809291908181526020018280546111c490612bc8565b801561120f5780601f106111e65761010080835404028352916020019161120f565b820191905f5260205f20905b8154815290600101906020018083116111f257829003601f168201915b5050505050815260200160018201805461122890612bc8565b80601f016020809104026020016040519081016040528092919081815260200182805461125490612bc8565b801561129f5780601f106112765761010080835404028352916020019161129f565b820191905f5260205f20905b81548152906001019060200180831161128257829003601f168201915b505050505081526020016002820180546112b890612bc8565b80601f01602080910402602001604051908101604052809291908181526020018280546112e490612bc8565b801561132f5780601f106113065761010080835404028352916020019161132f565b820191905f5260205f20905b81548152906001019060200180831161131257829003601f168201915b5050505050815260200160038201805461134890612bc8565b80601f016020809104026020016040519081016040528092919081815260200182805461137490612bc8565b80156113bf5780601f10611396576101008083540402835291602001916113bf565b820191905f5260205f20905b8154815290600101906020018083116113a257829003601f168201915b505050505081526020016004820180546113d890612bc8565b80601f016020809104026020016040519081016040528092919081815260200182805461140490612bc8565b801561144f5780601f106114265761010080835404028352916020019161144f565b820191905f5260205f20905b81548152906001019060200180831161143257829003601f168201915b5050505050815260200160058201805461146890612bc8565b80601f016020809104026020016040519081016040528092919081815260200182805461149490612bc8565b80156114df5780601f106114b6576101008083540402835291602001916114df565b820191905f5260205f20905b8154815290600101906020018083116114c257829003601f168201915b505050505081526020016006820180546114f890612bc8565b80601f016020809104026020016040519081016040528092919081815260200182805461152490612bc8565b801561156f5780601f106115465761010080835404028352916020019161156f565b820191905f5260205f20905b81548152906001019060200180831161155257829003601f168201915b5050505050815260200160078201805461158890612bc8565b80601f01602080910402602001604051908101604052809291908181526020018280546115b490612bc8565b80156115ff5780601f106115d6576101008083540402835291602001916115ff565b820191905f5260205f20905b8154815290600101906020018083116115e257829003601f168201915b5050505050815250509050805f015160405160200161161e9190612c32565b60405160208183030381529060405280519060200120876040516020016116459190612c32565b604051602081830303815290604052805190602001201461169b576040517f08c379a0000000000000000000000000000000000000000000000000000000008152600401611692906130e1565b60405180910390fd5b80604001516040516020016116b09190612c32565b60405160208183030381529060405280519060200120866040516020016116d79190612c32565b604051602081830303815290604052805190602001201461172d576040517f08c379a000000000000000000000000000000000000000000000000000000000815260040161172490613149565b60405180910390fd5b8060e001516040516020016117429190612c32565b60405160208183030381529060405280519060200120846040516020016117699190612c32565b60405160208183030381529060405280519060200120146117bf576040517f08c379a00000000000000000000000000000000000000000000000000000000081526004016117b6906131b1565b60405180910390fd5b6040518060400160405280601281526020017f4c6f67696e205375636365737366756c6c7900000000000000000000000000008152509250604051806101000160405280825f01518152602001826020015181526020018260400151815260200182606001518152602001826080015181526020018260a0015181526020018260c0015181526020018260e0015181525091505061193d565b6040518060400160405280601981526020017f446f63746f72204e4943206e6f74207265676973746572656400000000000000815250915060405180610100016040528060405180602001604052805f815250815260200160405180602001604052805f815250815260200160405180602001604052805f815250815260200160405180602001604052805f815250815260200160405180602001604052805f815250815260200160405180602001604052805f815250815260200160405180602001604052805f815250815260200160405180602001604052805f81525081525090505b94509492505050565b60015f9054906101000a900473ffffffffffffffffffffffffffffffffffffffff1681565b611973611fff565b61197c5f612086565b565b5f805f9054906101000a900473ffffffffffffffffffffffffffffffffffffffff16905090565b60025f9054906101000a900473ffffffffffffffffffffffffffffffffffffffff1681565b600681815481106119d9575f80fd5b905f5260205f20015f9150905080546119f190612bc8565b80601f0160208091040260200160405190810160405280929190818152602001828054611a1d90612bc8565b8015611a685780601f10611a3f57610100808354040283529160200191611a68565b820191905f5260205f20905b815481529060010190602001808311611a4b57829003601f168201915b505050505081565b60025f9054906101000a900473ffffffffffffffffffffffffffffffffffffffff1673ffffffffffffffffffffffffffffffffffffffff16632330f247336040518263ffffffff1660e01b8152600401611aca9190612973565b602060405180830381865afa158015611ae5573d5f803e3d5ffd5b505050506040513d601f19601f82011682018060405250810190611b099190612c72565b611b48576040517f08c379a0000000000000000000000000000000000000000000000000000000008152600401611b3f90612ce7565b60405180910390fd5b600485604051611b589190612c32565b90815260200160405180910390205f9054906101000a900460ff16611bb2576040517f08c379a0000000000000000000000000000000000000000000000000000000008152600401611ba990613079565b60405180910390fd5b5f600386604051611bc39190612c32565b908152602001604051809103902090505f85511115611bee5784815f019081611bec9190612f01565b505b5f84511115611c0a5783816001019081611c089190612f01565b505b5f83511115611c265782816004019081611c249190612f01565b505b5f82511115611c425781816006019081611c409190612f01565b505b7f739d396829a6187688e7e8a4eb8ae0eefaefc77d124db3f9aa31826d2a3abd8785858585604051611c779493929190612fd0565b60405180910390a1505050505050565b60025f9054906101000a900473ffffffffffffffffffffffffffffffffffffffff1673ffffffffffffffffffffffffffffffffffffffff16632330f247336040518263ffffffff1660e01b8152600401611ce19190612973565b602060405180830381865afa158015611cfc573d5f803e3d5ffd5b505050506040513d601f19601f82011682018060405250810190611d209190612c72565b611d5f576040517f08c379a0000000000000000000000000000000000000000000000000000000008152600401611d5690612ce7565b60405180910390fd5b5f600382604051611d709190612c32565b90815260200160405180910390206001018054611d8c90612bc8565b905011611dce576040517f08c379a0000000000000000000000000000000000000000000000000000000008152600401611dc590613219565b60405180910390fd5b600381604051611dde9190612c32565b90815260200160405180910390205f8082015f611dfb9190612193565b600182015f611e0a9190612193565b600282015f611e199190612193565b600382015f611e289190612193565b600482015f611e379190612193565b600582015f611e469190612193565b600682015f611e559190612193565b600782015f611e649190612193565b50507f54f0253f337cc98abef6475d09f0d339e11eba44de49585126efdcec7879630f81604051611e959190612a23565b60405180910390a150565b611ea8611fff565b5f73ffffffffffffffffffffffffffffffffffffffff168173ffffffffffffffffffffffffffffffffffffffff1603611f18575f6040517f1e4fbdf7000000000000000000000000000000000000000000000000000000008152600401611f0f9190612973565b60405180910390fd5b611f2181612086565b50565b6004818051602081018201805184825260208301602085012081835280955050505050505f915054906101000a900460ff1681565b60078181548110611f68575f80fd5b905f5260205f20015f915090508054611f8090612bc8565b80601f0160208091040260200160405190810160405280929190818152602001828054611fac90612bc8565b8015611ff75780601f10611fce57610100808354040283529160200191611ff7565b820191905f5260205f20905b815481529060010190602001808311611fda57829003601f168201915b505050505081565b612007612147565b73ffffffffffffffffffffffffffffffffffffffff1661202561197e565b73ffffffffffffffffffffffffffffffffffffffff161461208457612048612147565b6040517f118cdaa700000000000000000000000000000000000000000000000000000000815260040161207b9190612973565b60405180910390fd5b565b5f805f9054906101000a900473ffffffffffffffffffffffffffffffffffffffff169050815f806101000a81548173ffffffffffffffffffffffffffffffffffffffff021916908373ffffffffffffffffffffffffffffffffffffffff1602179055508173ffffffffffffffffffffffffffffffffffffffff168173ffffffffffffffffffffffffffffffffffffffff167f8be0079c531659141344cd1fd0a4f28419497f9722a3daafe3b4186f6b6457e060405160405180910390a35050565b5f33905090565b60405180610100016040528060608152602001606081526020016060815260200160608152602001606081526020016060815260200160608152602001606081525090565b50805461219f90612bc8565b5f825580601f106121b057506121cd565b601f0160209004905f5260205f20908101906121cc91906121d0565b5b50565b5b808211156121e7575f815f9055506001016121d1565b5090565b5f604051905090565b5f80fd5b5f80fd5b5f80fd5b5f80fd5b5f601f19601f8301169050919050565b7f4e487b71000000000000000000000000000000000000000000000000000000005f52604160045260245ffd5b61224a82612204565b810181811067ffffffffffffffff8211171561226957612268612214565b5b80604052505050565b5f61227b6121eb565b90506122878282612241565b919050565b5f67ffffffffffffffff8211156122a6576122a5612214565b5b6122af82612204565b9050602081019050919050565b828183375f83830152505050565b5f6122dc6122d78461228c565b612272565b9050828152602081018484840111156122f8576122f7612200565b5b6123038482856122bc565b509392505050565b5f82601f83011261231f5761231e6121fc565b5b813561232f8482602086016122ca565b91505092915050565b5f6020828403121561234d5761234c6121f4565b5b5f82013567ffffffffffffffff81111561236a576123696121f8565b5b6123768482850161230b565b91505092915050565b5f81519050919050565b5f82825260208201905092915050565b5f5b838110156123b657808201518184015260208101905061239b565b5f8484015250505050565b5f6123cb8261237f565b6123d58185612389565b93506123e5818560208601612399565b6123ee81612204565b840191505092915050565b5f610100820190508181035f830152612412818b6123c1565b90508181036020830152612426818a6123c1565b9050818103604083015261243a81896123c1565b9050818103606083015261244e81886123c1565b9050818103608083015261246281876123c1565b905081810360a083015261247681866123c1565b905081810360c083015261248a81856123c1565b905081810360e083015261249e81846123c1565b90509998505050505050505050565b5f8115159050919050565b6124c1816124ad565b82525050565b5f6020820190506124da5f8301846124b8565b92915050565b5f805f805f805f80610100898b0312156124fd576124fc6121f4565b5b5f89013567ffffffffffffffff81111561251a576125196121f8565b5b6125268b828c0161230b565b985050602089013567ffffffffffffffff811115612547576125466121f8565b5b6125538b828c0161230b565b975050604089013567ffffffffffffffff811115612574576125736121f8565b5b6125808b828c0161230b565b965050606089013567ffffffffffffffff8111156125a1576125a06121f8565b5b6125ad8b828c0161230b565b955050608089013567ffffffffffffffff8111156125ce576125cd6121f8565b5b6125da8b828c0161230b565b94505060a089013567ffffffffffffffff8111156125fb576125fa6121f8565b5b6126078b828c0161230b565b93505060c089013567ffffffffffffffff811115612628576126276121f8565b5b6126348b828c0161230b565b92505060e089013567ffffffffffffffff811115612655576126546121f8565b5b6126618b828c0161230b565b9150509295985092959890939650565b5f82825260208201905092915050565b5f61268b8261237f565b6126958185612671565b93506126a5818560208601612399565b6126ae81612204565b840191505092915050565b5f61010083015f8301518482035f8601526126d48282612681565b915050602083015184820360208601526126ee8282612681565b915050604083015184820360408601526127088282612681565b915050606083015184820360608601526127228282612681565b9150506080830151848203608086015261273c8282612681565b91505060a083015184820360a08601526127568282612681565b91505060c083015184820360c08601526127708282612681565b91505060e083015184820360e086015261278a8282612681565b9150508091505092915050565b5f6020820190508181035f8301526127af81846126b9565b905092915050565b5f805f80608085870312156127cf576127ce6121f4565b5b5f85013567ffffffffffffffff8111156127ec576127eb6121f8565b5b6127f88782880161230b565b945050602085013567ffffffffffffffff811115612819576128186121f8565b5b6128258782880161230b565b935050604085013567ffffffffffffffff811115612846576128456121f8565b5b6128528782880161230b565b925050606085013567ffffffffffffffff811115612873576128726121f8565b5b61287f8782880161230b565b91505092959194509250565b5f6040820190508181035f8301526128a381856123c1565b905081810360208301526128b781846126b9565b90509392505050565b5f73ffffffffffffffffffffffffffffffffffffffff82169050919050565b5f819050919050565b5f6129026128fd6128f8846128c0565b6128df565b6128c0565b9050919050565b5f612913826128e8565b9050919050565b5f61292482612909565b9050919050565b6129348161291a565b82525050565b5f60208201905061294d5f83018461292b565b92915050565b5f61295d826128c0565b9050919050565b61296d81612953565b82525050565b5f6020820190506129865f830184612964565b92915050565b5f61299682612909565b9050919050565b6129a68161298c565b82525050565b5f6020820190506129bf5f83018461299d565b92915050565b5f819050919050565b6129d7816129c5565b81146129e1575f80fd5b50565b5f813590506129f2816129ce565b92915050565b5f60208284031215612a0d57612a0c6121f4565b5b5f612a1a848285016129e4565b91505092915050565b5f6020820190508181035f830152612a3b81846123c1565b905092915050565b5f805f805f60a08688031215612a5c57612a5b6121f4565b5b5f86013567ffffffffffffffff811115612a7957612a786121f8565b5b612a858882890161230b565b955050602086013567ffffffffffffffff811115612aa657612aa56121f8565b5b612ab28882890161230b565b945050604086013567ffffffffffffffff811115612ad357612ad26121f8565b5b612adf8882890161230b565b935050606086013567ffffffffffffffff811115612b0057612aff6121f8565b5b612b0c8882890161230b565b925050608086013567ffffffffffffffff811115612b2d57612b2c6121f8565b5b612b398882890161230b565b9150509295509295909350565b612b4f81612953565b8114612b59575f80fd5b50565b5f81359050612b6a81612b46565b92915050565b5f60208284031215612b8557612b846121f4565b5b5f612b9284828501612b5c565b91505092915050565b7f4e487b71000000000000000000000000000000000000000000000000000000005f52602260045260245ffd5b5f6002820490506001821680612bdf57607f821691505b602082108103612bf257612bf1612b9b565b5b50919050565b5f81905092915050565b5f612c0c8261237f565b612c168185612bf8565b9350612c26818560208601612399565b80840191505092915050565b5f612c3d8284612c02565b915081905092915050565b612c51816124ad565b8114612c5b575f80fd5b50565b5f81519050612c6c81612c48565b92915050565b5f60208284031215612c8757612c866121f4565b5b5f612c9484828501612c5e565b91505092915050565b7f43616c6c6572206973206e6f7420616e20617574686f726974790000000000005f82015250565b5f612cd1601a83612389565b9150612cdc82612c9d565b602082019050919050565b5f6020820190508181035f830152612cfe81612cc5565b9050919050565b7f4e494320697320616c72656164792072656769737465726564000000000000005f82015250565b5f612d39601983612389565b9150612d4482612d05565b602082019050919050565b5f6020820190508181035f830152612d6681612d2d565b9050919050565b5f819050815f5260205f209050919050565b5f6020601f8301049050919050565b5f82821b905092915050565b5f60088302612dc97fffffffffffffffffffffffffffffffffffffffffffffffffffffffffffffffff82612d8e565b612dd38683612d8e565b95508019841693508086168417925050509392505050565b5f612e05612e00612dfb846129c5565b6128df565b6129c5565b9050919050565b5f819050919050565b612e1e83612deb565b612e32612e2a82612e0c565b848454612d9a565b825550505050565b5f90565b612e46612e3a565b612e51818484612e15565b505050565b5b81811015612e7457612e695f82612e3e565b600181019050612e57565b5050565b601f821115612eb957612e8a81612d6d565b612e9384612d7f565b81016020851015612ea2578190505b612eb6612eae85612d7f565b830182612e56565b50505b505050565b5f82821c905092915050565b5f612ed95f1984600802612ebe565b1980831691505092915050565b5f612ef18383612eca565b9150826002028217905092915050565b612f0a8261237f565b67ffffffffffffffff811115612f2357612f22612214565b5b612f2d8254612bc8565b612f38828285612e78565b5f60209050601f831160018114612f69575f8415612f57578287015190505b612f618582612ee6565b865550612fc8565b601f198416612f7786612d6d565b5f5b82811015612f9e57848901518255600182019150602085019450602081019050612f79565b86831015612fbb5784890151612fb7601f891682612eca565b8355505b6001600288020188555050505b505050505050565b5f6080820190508181035f830152612fe881876123c1565b90508181036020830152612ffc81866123c1565b9050818103604083015261301081856123c1565b9050818103606083015261302481846123c1565b905095945050505050565b7f446f63746f72204e4943206973206e6f742072656769737465726564000000005f82015250565b5f613063601c83612389565b915061306e8261302f565b602082019050919050565b5f6020820190508181035f83015261309081613057565b9050919050565b7f496e76616c696420656d61696c000000000000000000000000000000000000005f82015250565b5f6130cb600d83612389565b91506130d682613097565b602082019050919050565b5f6020820190508181035f8301526130f8816130bf565b9050919050565b7f496e76616c69642070617373776f7264000000000000000000000000000000005f82015250565b5f613133601083612389565b915061313e826130ff565b602082019050919050565b5f6020820190508181035f83015261316081613127565b9050919050565b7f496e76616c696420686f73706974616c000000000000000000000000000000005f82015250565b5f61319b601083612389565b91506131a682613167565b602082019050919050565b5f6020820190508181035f8301526131c88161318f565b9050919050565b7f446f63746f72206e6f7420666f756e64000000000000000000000000000000005f82015250565b5f613203601083612389565b915061320e826131cf565b602082019050919050565b5f6020820190508181035f830152613230816131f7565b905091905056fea264697066735822122093591ccf4d297674f372fc55cb0ab43eec6c40e2e6bfe4e87905d1b595b16aee64736f6c63430008140033",
  "immutableReferences": {},
  "source": "// SPDX-License-Identifier: MIT \r\npragma solidity 0.8.20;\r\n\r\nimport \"./PatientEMRStorage.sol\";\r\nimport \"@openzeppelin/contracts/access/Ownable.sol\";\r\nimport \"./AuthorityRegistry.sol\";\r\n\r\ncontract DoctorRegistry is Ownable {\r\n    PatientEMRStorage public patientEMRContract;\r\n    AuthorityRegistry public authorityRegistry;\r\n\r\n    modifier onlyAuthority() {\r\n        require(authorityRegistry.isAuthority(msg.sender), \"Caller is not an authority\");\r\n        _;\r\n    }\r\n\r\n    constructor(address _patientEMRContract, address _authorityRegistryAddress) Ownable(_authorityRegistryAddress) {\r\n        patientEMRContract = PatientEMRStorage(_patientEMRContract);\r\n        authorityRegistry = AuthorityRegistry(_authorityRegistryAddress);\r\n    }\r\n\r\n    struct Doctor {\r\n        string email;\r\n        string name;\r\n        string password;\r\n        string nic;\r\n        string telephone;\r\n        string walletAddress;\r\n        string specialties;\r\n        string hospital;\r\n    }\r\n\r\n    struct DoctorAssociation {\r\n        string patientNic;\r\n        string doctorNic;\r\n        string token;\r\n        string validateDate;\r\n        string doctorWalletAddress;\r\n    }\r\n\r\n    mapping(string => Doctor) public doctors;\r\n    mapping(string => bool) public isNICRegistered;\r\n    mapping(string => bool) public isWalletRegistered;\r\n    string[] public registeredNICs;\r\n    string[] public doctorRegisteredNICs;\r\n\r\n    event DoctorAdded(string email, string name, string nic, string hospital);\r\n    event DoctorAssociated(string patientNic, string doctorNic, string token);\r\n    event DoctorDeleted(string doctorNic);\r\n    event DoctorUpdated(string email, string name, string telephone, string specialties);\r\n\r\n    // Doctor\r\n    function addDoctor(\r\n        string memory email,\r\n        string memory name,\r\n        string memory password,\r\n        string memory nic,\r\n        string memory telephone,\r\n        string memory walletAddress,\r\n        string memory specialties,\r\n        string memory hospital\r\n    ) public onlyAuthority {\r\n        require(!isNICRegistered[nic], \"NIC is already registered\");\r\n\r\n        Doctor memory newDoctor = Doctor({\r\n            email: email,\r\n            name: name,\r\n            password: password,\r\n            nic: nic,\r\n            telephone: telephone,\r\n            walletAddress: walletAddress,\r\n            specialties: specialties,\r\n            hospital: hospital\r\n        });\r\n\r\n        doctors[nic] = newDoctor;\r\n        isNICRegistered[nic] = true;\r\n        doctorRegisteredNICs.push(nic);\r\n        authorityRegistry.addAuthority(address(bytes20(bytes32(keccak256(abi.encodePacked(walletAddress))))));\r\n        emit DoctorAdded(email, name, nic, hospital);\r\n    }\r\n\r\n    function updateDoctorData(\r\n        string memory doctorNic,\r\n        string memory newEmail,\r\n        string memory newName,\r\n        string memory newTelephone,\r\n        string memory newSpecialties\r\n    ) public onlyAuthority {\r\n        require(isNICRegistered[doctorNic], \"Doctor NIC is not registered\");\r\n\r\n        Doctor storage doctor = doctors[doctorNic];\r\n        if (bytes(newEmail).length > 0) {\r\n            doctor.email = newEmail;\r\n        }\r\n        if (bytes(newName).length > 0) {\r\n            doctor.name = newName;\r\n        }\r\n        if (bytes(newTelephone).length > 0) {\r\n            doctor.telephone = newTelephone;\r\n        }\r\n        if (bytes(newSpecialties).length > 0) {\r\n            doctor.specialties = newSpecialties;\r\n        }\r\n\r\n        emit DoctorUpdated(newEmail, newName, newTelephone, newSpecialties);\r\n    }\r\n\r\n    \r\n    function isNICAlreadyRegistered(string memory nic) public view returns (bool) {\r\n        return isNICRegistered[nic];\r\n    }\r\n\r\n    function getDoctorDetails(string memory doctorNic) public view returns (Doctor memory) {\r\n        require(isNICRegistered[doctorNic], \"Doctor NIC is not registered\");\r\n        return doctors[doctorNic];\r\n    }\r\n\r\n    function validateDoctorLogin(string memory email, string memory password, string memory doctorNic, string memory hospital) public view returns (string memory message, Doctor memory doctorData) {\r\n        \r\n        if (isNICRegistered[doctorNic]) {\r\n            Doctor memory doctor = doctors[doctorNic];\r\n\r\n            require(\r\n                keccak256(abi.encodePacked(email)) == keccak256(abi.encodePacked(doctor.email)),\r\n                \"Invalid email\"\r\n            );\r\n            require(\r\n                keccak256(abi.encodePacked(password)) == keccak256(abi.encodePacked(doctor.password)),\r\n                \"Invalid password\"\r\n            );\r\n            require(\r\n                keccak256(abi.encodePacked(hospital)) == keccak256(abi.encodePacked(doctor.hospital)),\r\n                \"Invalid hospital\"\r\n            );\r\n\r\n            message = \"Login Successfully\";\r\n            doctorData = Doctor({\r\n                email: doctor.email,\r\n                name: doctor.name,\r\n                password: doctor.password,\r\n                nic: doctor.nic,\r\n                telephone: doctor.telephone,\r\n                walletAddress: doctor.walletAddress,\r\n                specialties: doctor.specialties,\r\n                hospital: doctor.hospital\r\n            });\r\n        } else {\r\n            message = \"Doctor NIC not registered\";\r\n            doctorData = Doctor(\"\", \"\", \"\", \"\", \"\", \"\", \"\", \"\");\r\n        }\r\n    }\r\n\r\n    function deleteDoctor(string memory doctorNic) public onlyAuthority {\r\n        require(bytes(doctors[doctorNic].name).length > 0, \"Doctor not found\");\r\n        delete doctors[doctorNic];\r\n        emit DoctorDeleted(doctorNic);\r\n    }\r\n\r\n    // Helper function to compare strings\r\n    function compareStrings(string memory a, string memory b) internal pure returns (bool) {\r\n        return keccak256(abi.encodePacked(a)) == keccak256(abi.encodePacked(b));\r\n    }\r\n    \r\n}\r\n",
  "sourcePath": "C:\\Users\\avjc2\\Documents\\S2 BINUS\\THESIS\\BLOCKCHAIN\\APPLICATIONS\\EMRIHsystem\\EMR-IH_smart_contracts\\contracts\\DoctorRegistry.sol",
  "compiler": {
    "name": "solc",
    "version": "0.8.20+commit.a1b79de6.Emscripten.clang"
  },
  "schemaVersion": "3.4.16",
  "updatedAt": "2024-02-14T08:28:35.942Z",
  "devdoc": {
    "errors": {
      "OwnableInvalidOwner(address)": [
        {
          "details": "The owner is not a valid owner account. (eg. `address(0)`)"
        }
      ],
      "OwnableUnauthorizedAccount(address)": [
        {
          "details": "The caller account is not authorized to perform an operation."
        }
      ]
    },
    "kind": "dev",
    "methods": {
      "owner()": {
        "details": "Returns the address of the current owner."
      },
      "renounceOwnership()": {
        "details": "Leaves the contract without owner. It will not be possible to call `onlyOwner` functions. Can only be called by the current owner. NOTE: Renouncing ownership will leave the contract without an owner, thereby disabling any functionality that is only available to the owner."
      },
      "transferOwnership(address)": {
        "details": "Transfers ownership of the contract to a new account (`newOwner`). Can only be called by the current owner."
      }
    },
    "version": 1
  },
  "userdoc": {
    "kind": "user",
    "methods": {},
    "version": 1
  }
}