{
  "contractName": "DoctorAssociationRegistry",
  "abi": [
    {
      "inputs": [
        {
          "internalType": "address",
          "name": "_patientEMRContract",
          "type": "address"
        },
        {
          "internalType": "address",
          "name": "_doctorStorageContract",
          "type": "address"
        },
        {
          "internalType": "address",
          "name": "_authorityRegistryAddress",
          "type": "address"
        }
      ],
      "stateMutability": "nonpayable",
      "type": "constructor"
    },
    {
      "inputs": [
        {
          "internalType": "address",
          "name": "owner",
          "type": "address"
        }
      ],
      "name": "OwnableInvalidOwner",
      "type": "error"
    },
    {
      "inputs": [
        {
          "internalType": "address",
          "name": "account",
          "type": "address"
        }
      ],
      "name": "OwnableUnauthorizedAccount",
      "type": "error"
    },
    {
      "anonymous": false,
      "inputs": [
        {
          "indexed": false,
          "internalType": "string",
          "name": "patientNic",
          "type": "string"
        },
        {
          "indexed": false,
          "internalType": "string",
          "name": "doctorNic",
          "type": "string"
        },
        {
          "indexed": false,
          "internalType": "string",
          "name": "token",
          "type": "string"
        }
      ],
      "name": "DoctorAssociated",
      "type": "event"
    },
    {
      "anonymous": false,
      "inputs": [
        {
          "indexed": true,
          "internalType": "address",
          "name": "previousOwner",
          "type": "address"
        },
        {
          "indexed": true,
          "internalType": "address",
          "name": "newOwner",
          "type": "address"
        }
      ],
      "name": "OwnershipTransferred",
      "type": "event"
    },
    {
      "inputs": [],
      "name": "authorityRegistry",
      "outputs": [
        {
          "internalType": "contract AuthorityRegistry",
          "name": "",
          "type": "address"
        }
      ],
      "stateMutability": "view",
      "type": "function"
    },
    {
      "inputs": [],
      "name": "doctorStorageContract",
      "outputs": [
        {
          "internalType": "contract DoctorRegistry",
          "name": "",
          "type": "address"
        }
      ],
      "stateMutability": "view",
      "type": "function"
    },
    {
      "inputs": [],
      "name": "owner",
      "outputs": [
        {
          "internalType": "address",
          "name": "",
          "type": "address"
        }
      ],
      "stateMutability": "view",
      "type": "function"
    },
    {
      "inputs": [
        {
          "internalType": "string",
          "name": "",
          "type": "string"
        },
        {
          "internalType": "uint256",
          "name": "",
          "type": "uint256"
        }
      ],
      "name": "patientDoctorAssociations",
      "outputs": [
        {
          "internalType": "string",
          "name": "patientNic",
          "type": "string"
        },
        {
          "internalType": "string",
          "name": "doctorNic",
          "type": "string"
        },
        {
          "internalType": "string",
          "name": "appointmentId",
          "type": "string"
        },
        {
          "internalType": "string",
          "name": "token",
          "type": "string"
        },
        {
          "internalType": "string",
          "name": "validateDate",
          "type": "string"
        },
        {
          "internalType": "string",
          "name": "doctorWalletAddress",
          "type": "string"
        }
      ],
      "stateMutability": "view",
      "type": "function"
    },
    {
      "inputs": [],
      "name": "patientEMRContract",
      "outputs": [
        {
          "internalType": "contract PatientEMRStorage",
          "name": "",
          "type": "address"
        }
      ],
      "stateMutability": "view",
      "type": "function"
    },
    {
      "inputs": [],
      "name": "renounceOwnership",
      "outputs": [],
      "stateMutability": "nonpayable",
      "type": "function"
    },
    {
      "inputs": [
        {
          "internalType": "address",
          "name": "newOwner",
          "type": "address"
        }
      ],
      "name": "transferOwnership",
      "outputs": [],
      "stateMutability": "nonpayable",
      "type": "function"
    },
    {
      "inputs": [
        {
          "internalType": "string",
          "name": "patientNic",
          "type": "string"
        },
        {
          "internalType": "string",
          "name": "doctorNic",
          "type": "string"
        },
        {
          "internalType": "string",
          "name": "appointmentId",
          "type": "string"
        },
        {
          "internalType": "string",
          "name": "token",
          "type": "string"
        },
        {
          "internalType": "string",
          "name": "validateDate",
          "type": "string"
        },
        {
          "internalType": "string",
          "name": "doctorWalletAddress",
          "type": "string"
        }
      ],
      "name": "associateDoctorWithPatient",
      "outputs": [],
      "stateMutability": "nonpayable",
      "type": "function"
    },
    {
      "inputs": [
        {
          "internalType": "string",
          "name": "doctorNic",
          "type": "string"
        },
        {
          "internalType": "string",
          "name": "doctorWalletAddress",
          "type": "string"
        }
      ],
      "name": "getDoctorAssociationsByDoctorNicAndWallet",
      "outputs": [
        {
          "components": [
            {
              "internalType": "string",
              "name": "patientNic",
              "type": "string"
            },
            {
              "internalType": "string",
              "name": "doctorNic",
              "type": "string"
            },
            {
              "internalType": "string",
              "name": "appointmentId",
              "type": "string"
            },
            {
              "internalType": "string",
              "name": "token",
              "type": "string"
            },
            {
              "internalType": "string",
              "name": "validateDate",
              "type": "string"
            },
            {
              "internalType": "string",
              "name": "doctorWalletAddress",
              "type": "string"
            }
          ],
          "internalType": "struct DoctorAssociationRegistry.DoctorAssociation[]",
          "name": "",
          "type": "tuple[]"
        }
      ],
      "stateMutability": "view",
      "type": "function"
    },
    {
      "inputs": [
        {
          "internalType": "string",
          "name": "doctorNic",
          "type": "string"
        },
        {
          "internalType": "string",
          "name": "todayDate",
          "type": "string"
        }
      ],
      "name": "getPatientsForTodayByDoctorNic",
      "outputs": [
        {
          "components": [
            {
              "internalType": "string",
              "name": "patientNic",
              "type": "string"
            },
            {
              "internalType": "string",
              "name": "doctorNic",
              "type": "string"
            },
            {
              "internalType": "string",
              "name": "appointmentId",
              "type": "string"
            },
            {
              "internalType": "string",
              "name": "token",
              "type": "string"
            },
            {
              "internalType": "string",
              "name": "validateDate",
              "type": "string"
            },
            {
              "internalType": "string",
              "name": "doctorWalletAddress",
              "type": "string"
            }
          ],
          "internalType": "struct DoctorAssociationRegistry.DoctorAssociation[]",
          "name": "",
          "type": "tuple[]"
        }
      ],
      "stateMutability": "view",
      "type": "function"
    },
    {
      "inputs": [
        {
          "internalType": "string",
          "name": "patientNic",
          "type": "string"
        },
        {
          "internalType": "string",
          "name": "walletAddress",
          "type": "string"
        },
        {
          "internalType": "string",
          "name": "token",
          "type": "string"
        },
        {
          "internalType": "string",
          "name": "todayDate",
          "type": "string"
        }
      ],
      "name": "isCallerAssociatedWithPatient",
      "outputs": [
        {
          "internalType": "bool",
          "name": "",
          "type": "bool"
        }
      ],
      "stateMutability": "view",
      "type": "function"
    },
    {
      "inputs": [
        {
          "internalType": "string",
          "name": "patientNic",
          "type": "string"
        },
        {
          "internalType": "string",
          "name": "token",
          "type": "string"
        },
        {
          "internalType": "string",
          "name": "todayDate",
          "type": "string"
        },
        {
          "internalType": "string",
          "name": "walletAddress",
          "type": "string"
        }
      ],
      "name": "getEMRData",
      "outputs": [
        {
          "components": [
            {
              "internalType": "string",
              "name": "patientNic",
              "type": "string"
            },
            {
              "internalType": "string",
              "name": "dob",
              "type": "string"
            },
            {
              "internalType": "string",
              "name": "noRekamMedis",
              "type": "string"
            },
            {
              "internalType": "string",
              "name": "medicalRecord",
              "type": "string"
            }
          ],
          "internalType": "struct PatientEMRStorage.EMR",
          "name": "",
          "type": "tuple"
        }
      ],
      "stateMutability": "view",
      "type": "function"
    }
  ],
  "bytecode": "0x608060405234801562000010575f80fd5b5060405162003b8838038062003b888339818101604052810190620000369190620002ab565b805f73ffffffffffffffffffffffffffffffffffffffff168173ffffffffffffffffffffffffffffffffffffffff1603620000aa575f6040517f1e4fbdf7000000000000000000000000000000000000000000000000000000008152600401620000a1919062000315565b60405180910390fd5b620000bb816200018560201b60201c565b508260015f6101000a81548173ffffffffffffffffffffffffffffffffffffffff021916908373ffffffffffffffffffffffffffffffffffffffff1602179055508160025f6101000a81548173ffffffffffffffffffffffffffffffffffffffff021916908373ffffffffffffffffffffffffffffffffffffffff1602179055508060035f6101000a81548173ffffffffffffffffffffffffffffffffffffffff021916908373ffffffffffffffffffffffffffffffffffffffff16021790555050505062000330565b5f805f9054906101000a900473ffffffffffffffffffffffffffffffffffffffff169050815f806101000a81548173ffffffffffffffffffffffffffffffffffffffff021916908373ffffffffffffffffffffffffffffffffffffffff1602179055508173ffffffffffffffffffffffffffffffffffffffff168173ffffffffffffffffffffffffffffffffffffffff167f8be0079c531659141344cd1fd0a4f28419497f9722a3daafe3b4186f6b6457e060405160405180910390a35050565b5f80fd5b5f73ffffffffffffffffffffffffffffffffffffffff82169050919050565b5f62000275826200024a565b9050919050565b620002878162000269565b811462000292575f80fd5b50565b5f81519050620002a5816200027c565b92915050565b5f805f60608486031215620002c557620002c462000246565b5b5f620002d48682870162000295565b9350506020620002e78682870162000295565b9250506040620002fa8682870162000295565b9150509250925092565b6200030f8162000269565b82525050565b5f6020820190506200032a5f83018462000304565b92915050565b61384a806200033e5f395ff3fe608060405234801561000f575f80fd5b50600436106100b2575f3560e01c80638da5cb5b1161006f5780638da5cb5b1461018c578063a9ba045e146101aa578063d0bc99d8146101c8578063dc1a9cd4146101f8578063e46c783e14610214578063f2fde38b14610249576100b2565b8063359fa8bb146100b657806339eddf2a146100e657806352b43fae146101165780636df2546e14610146578063715018a6146101645780638459bc651461016e575b5f80fd5b6100d060048036038101906100cb91906126ec565b610265565b6040516100dd91906128af565b60405180910390f35b61010060048036038101906100fb91906126ec565b610436565b60405161010d91906128e9565b60405180910390f35b610130600480360381019061012b9190612902565b61099d565b60405161013d9190612adc565b60405180910390f35b61014e611326565b60405161015b9190612b76565b60405180910390f35b61016c61134b565b005b61017661135e565b6040516101839190612baf565b60405180910390f35b610194611383565b6040516101a19190612be8565b60405180910390f35b6101b26113aa565b6040516101bf9190612c21565b60405180910390f35b6101e260048036038101906101dd9190612902565b6113cf565b6040516101ef9190612adc565b60405180910390f35b610212600480360381019061020d9190612c3a565b611cf3565b005b61022e60048036038101906102299190612d9e565b611fe0565b60405161024096959493929190612e40565b60405180910390f35b610263600480360381019061025e9190612ef3565b61236e565b005b61026d612541565b60015f9054906101000a900473ffffffffffffffffffffffffffffffffffffffff1673ffffffffffffffffffffffffffffffffffffffff1663f6b014a7866040518263ffffffff1660e01b81526004016102c79190612f1e565b602060405180830381865afa1580156102e2573d5f803e3d5ffd5b505050506040513d601f19601f820116820180604052508101906103069190612f68565b610345576040517f08c379a000000000000000000000000000000000000000000000000000000000815260040161033c90612fdd565b60405180910390fd5b61035185838686610436565b610390576040517f08c379a000000000000000000000000000000000000000000000000000000000815260040161038790613045565b60405180910390fd5b60015f9054906101000a900473ffffffffffffffffffffffffffffffffffffffff1673ffffffffffffffffffffffffffffffffffffffff16632d86bf58866040518263ffffffff1660e01b81526004016103ea9190612f1e565b5f60405180830381865afa158015610404573d5f803e3d5ffd5b505050506040513d5f823e3d601f19601f8201168201806040525081019061042c91906131be565b9050949350505050565b5f80600486604051610448919061323f565b9081526020016040518091039020805480602002602001604051908101604052809291908181526020015f905b82821015610804578382905f5260205f2090600602016040518060c00160405290815f820180546104a590613282565b80601f01602080910402602001604051908101604052809291908181526020018280546104d190613282565b801561051c5780601f106104f35761010080835404028352916020019161051c565b820191905f5260205f20905b8154815290600101906020018083116104ff57829003601f168201915b5050505050815260200160018201805461053590613282565b80601f016020809104026020016040519081016040528092919081815260200182805461056190613282565b80156105ac5780601f10610583576101008083540402835291602001916105ac565b820191905f5260205f20905b81548152906001019060200180831161058f57829003601f168201915b505050505081526020016002820180546105c590613282565b80601f01602080910402602001604051908101604052809291908181526020018280546105f190613282565b801561063c5780601f106106135761010080835404028352916020019161063c565b820191905f5260205f20905b81548152906001019060200180831161061f57829003601f168201915b5050505050815260200160038201805461065590613282565b80601f016020809104026020016040519081016040528092919081815260200182805461068190613282565b80156106cc5780601f106106a3576101008083540402835291602001916106cc565b820191905f5260205f20905b8154815290600101906020018083116106af57829003601f168201915b505050505081526020016004820180546106e590613282565b80601f016020809104026020016040519081016040528092919081815260200182805461071190613282565b801561075c5780601f106107335761010080835404028352916020019161075c565b820191905f5260205f20905b81548152906001019060200180831161073f57829003601f168201915b5050505050815260200160058201805461077590613282565b80601f01602080910402602001604051908101604052809291908181526020018280546107a190613282565b80156107ec5780601f106107c3576101008083540402835291602001916107ec565b820191905f5260205f20905b8154815290600101906020018083116107cf57829003601f168201915b50505050508152505081526020019060010190610475565b5050505090505f5b815181101561098f5785604051602001610826919061323f565b6040516020818303038152906040528051906020012082828151811061084f5761084e6132b2565b5b602002602001015160a0015160405160200161086b919061323f565b604051602081830303815290604052805190602001201480156108f757508460405160200161089a919061323f565b604051602081830303815290604052805190602001208282815181106108c3576108c26132b2565b5b6020026020010151606001516040516020016108df919061323f565b60405160208183030381529060405280519060200120145b801561096c57508360405160200161090f919061323f565b60405160208183030381529060405280519060200120828281518110610938576109376132b2565b5b602002602001015160800151604051602001610954919061323f565b60405160208183030381529060405280519060200120145b1561097c57600192505050610995565b80806109879061330c565b91505061080c565b505f9150505b949350505050565b606060025f9054906101000a900473ffffffffffffffffffffffffffffffffffffffff1673ffffffffffffffffffffffffffffffffffffffff166314c8baa9846040518263ffffffff1660e01b81526004016109f99190612f1e565b602060405180830381865afa158015610a14573d5f803e3d5ffd5b505050506040513d601f19601f82011682018060405250810190610a389190612f68565b610a77576040517f08c379a0000000000000000000000000000000000000000000000000000000008152600401610a6e9061339d565b60405180910390fd5b5f60605f5b60015f9054906101000a900473ffffffffffffffffffffffffffffffffffffffff1673ffffffffffffffffffffffffffffffffffffffff16633717cf2a6040518163ffffffff1660e01b8152600401602060405180830381865afa158015610ae6573d5f803e3d5ffd5b505050506040513d601f19601f82011682018060405250810190610b0a91906133cf565b811015610c8b575f60015f9054906101000a900473ffffffffffffffffffffffffffffffffffffffff1673ffffffffffffffffffffffffffffffffffffffff166386f1c312836040518263ffffffff1660e01b8152600401610b6c9190613409565b5f60405180830381865afa158015610b86573d5f803e3d5ffd5b505050506040513d5f823e3d601f19601f82011682018060405250810190610bae9190613422565b90505f600482604051610bc1919061323f565b908152602001604051809103902090505f5b8180549050811015610c755788604051602001610bf0919061323f565b60405160208183030381529060405280519060200120828281548110610c1957610c186132b2565b5b905f5260205f209060060201600101604051602001610c3891906134fb565b6040516020818303038152906040528051906020012003610c62578580610c5e9061330c565b9650505b8080610c6d9061330c565b915050610bd3565b5050508080610c839061330c565b915050610a7c565b505f82111561131b578167ffffffffffffffff811115610cae57610cad6125c8565b5b604051908082528060200260200182016040528015610ce757816020015b610cd4612569565b815260200190600190039081610ccc5790505b5090505f805b60015f9054906101000a900473ffffffffffffffffffffffffffffffffffffffff1673ffffffffffffffffffffffffffffffffffffffff16633717cf2a6040518163ffffffff1660e01b8152600401602060405180830381865afa158015610d57573d5f803e3d5ffd5b505050506040513d601f19601f82011682018060405250810190610d7b91906133cf565b811015611318575f60015f9054906101000a900473ffffffffffffffffffffffffffffffffffffffff1673ffffffffffffffffffffffffffffffffffffffff166386f1c312836040518263ffffffff1660e01b8152600401610ddd9190613409565b5f60405180830381865afa158015610df7573d5f803e3d5ffd5b505050506040513d5f823e3d601f19601f82011682018060405250810190610e1f9190613422565b90505f600482604051610e32919061323f565b908152602001604051809103902090505f5b81805490508110156113025789604051602001610e61919061323f565b60405160208183030381529060405280519060200120828281548110610e8a57610e896132b2565b5b905f5260205f209060060201600101604051602001610ea991906134fb565b60405160208183030381529060405280519060200120036112ef5788604051602001610ed5919061323f565b60405160208183030381529060405280519060200120828281548110610efe57610efd6132b2565b5b905f5260205f209060060201600501604051602001610f1d91906134fb565b60405160208183030381529060405280519060200120036112ee57818181548110610f4b57610f4a6132b2565b5b905f5260205f2090600602016040518060c00160405290815f82018054610f7190613282565b80601f0160208091040260200160405190810160405280929190818152602001828054610f9d90613282565b8015610fe85780601f10610fbf57610100808354040283529160200191610fe8565b820191905f5260205f20905b815481529060010190602001808311610fcb57829003601f168201915b5050505050815260200160018201805461100190613282565b80601f016020809104026020016040519081016040528092919081815260200182805461102d90613282565b80156110785780601f1061104f57610100808354040283529160200191611078565b820191905f5260205f20905b81548152906001019060200180831161105b57829003601f168201915b5050505050815260200160028201805461109190613282565b80601f01602080910402602001604051908101604052809291908181526020018280546110bd90613282565b80156111085780601f106110df57610100808354040283529160200191611108565b820191905f5260205f20905b8154815290600101906020018083116110eb57829003601f168201915b5050505050815260200160038201805461112190613282565b80601f016020809104026020016040519081016040528092919081815260200182805461114d90613282565b80156111985780601f1061116f57610100808354040283529160200191611198565b820191905f5260205f20905b81548152906001019060200180831161117b57829003601f168201915b505050505081526020016004820180546111b190613282565b80601f01602080910402602001604051908101604052809291908181526020018280546111dd90613282565b80156112285780601f106111ff57610100808354040283529160200191611228565b820191905f5260205f20905b81548152906001019060200180831161120b57829003601f168201915b5050505050815260200160058201805461124190613282565b80601f016020809104026020016040519081016040528092919081815260200182805461126d90613282565b80156112b85780601f1061128f576101008083540402835291602001916112b8565b820191905f5260205f20905b81548152906001019060200180831161129b57829003601f168201915b5050505050815250508686815181106112d4576112d36132b2565b5b602002602001018190525084806112ea9061330c565b9550505b5b80806112fa9061330c565b915050610e44565b50505080806113109061330c565b915050610ced565b50505b809250505092915050565b60015f9054906101000a900473ffffffffffffffffffffffffffffffffffffffff1681565b6113536123f2565b61135c5f612479565b565b60025f9054906101000a900473ffffffffffffffffffffffffffffffffffffffff1681565b5f805f9054906101000a900473ffffffffffffffffffffffffffffffffffffffff16905090565b60035f9054906101000a900473ffffffffffffffffffffffffffffffffffffffff1681565b60605f805b60015f9054906101000a900473ffffffffffffffffffffffffffffffffffffffff1673ffffffffffffffffffffffffffffffffffffffff16633717cf2a6040518163ffffffff1660e01b8152600401602060405180830381865afa15801561143e573d5f803e3d5ffd5b505050506040513d601f19601f8201168201806040525081019061146291906133cf565b81101561165c575f60015f9054906101000a900473ffffffffffffffffffffffffffffffffffffffff1673ffffffffffffffffffffffffffffffffffffffff166386f1c312836040518263ffffffff1660e01b81526004016114c49190613409565b5f60405180830381865afa1580156114de573d5f803e3d5ffd5b505050506040513d5f823e3d601f19601f820116820180604052508101906115069190613422565b90505f600482604051611519919061323f565b908152602001604051809103902090505f5b81805490508110156116465787604051602001611548919061323f565b60405160208183030381529060405280519060200120828281548110611571576115706132b2565b5b905f5260205f20906006020160010160405160200161159091906134fb565b6040516020818303038152906040528051906020012014801561161f5750866040516020016115bf919061323f565b604051602081830303815290604052805190602001208282815481106115e8576115e76132b2565b5b905f5260205f20906006020160040160405160200161160791906134fb565b60405160208183030381529060405280519060200120145b1561163357848061162f9061330c565b9550505b808061163e9061330c565b91505061152b565b50505080806116549061330c565b9150506113d4565b505f8167ffffffffffffffff811115611678576116776125c8565b5b6040519080825280602002602001820160405280156116b157816020015b61169e612569565b8152602001906001900390816116965790505b5090505f805b60015f9054906101000a900473ffffffffffffffffffffffffffffffffffffffff1673ffffffffffffffffffffffffffffffffffffffff16633717cf2a6040518163ffffffff1660e01b8152600401602060405180830381865afa158015611721573d5f803e3d5ffd5b505050506040513d601f19601f8201168201806040525081019061174591906133cf565b811015611ce6575f60015f9054906101000a900473ffffffffffffffffffffffffffffffffffffffff1673ffffffffffffffffffffffffffffffffffffffff166386f1c312836040518263ffffffff1660e01b81526004016117a79190613409565b5f60405180830381865afa1580156117c1573d5f803e3d5ffd5b505050506040513d5f823e3d601f19601f820116820180604052508101906117e99190613422565b90505f6004826040516117fc919061323f565b908152602001604051809103902090505f5b8180549050811015611cd0578960405160200161182b919061323f565b60405160208183030381529060405280519060200120828281548110611854576118536132b2565b5b905f5260205f20906006020160010160405160200161187391906134fb565b604051602081830303815290604052805190602001201480156119025750886040516020016118a2919061323f565b604051602081830303815290604052805190602001208282815481106118cb576118ca6132b2565b5b905f5260205f2090600602016004016040516020016118ea91906134fb565b60405160208183030381529060405280519060200120145b15611cbd5781818154811061191a576119196132b2565b5b905f5260205f2090600602016040518060c00160405290815f8201805461194090613282565b80601f016020809104026020016040519081016040528092919081815260200182805461196c90613282565b80156119b75780601f1061198e576101008083540402835291602001916119b7565b820191905f5260205f20905b81548152906001019060200180831161199a57829003601f168201915b505050505081526020016001820180546119d090613282565b80601f01602080910402602001604051908101604052809291908181526020018280546119fc90613282565b8015611a475780601f10611a1e57610100808354040283529160200191611a47565b820191905f5260205f20905b815481529060010190602001808311611a2a57829003601f168201915b50505050508152602001600282018054611a6090613282565b80601f0160208091040260200160405190810160405280929190818152602001828054611a8c90613282565b8015611ad75780601f10611aae57610100808354040283529160200191611ad7565b820191905f5260205f20905b815481529060010190602001808311611aba57829003601f168201915b50505050508152602001600382018054611af090613282565b80601f0160208091040260200160405190810160405280929190818152602001828054611b1c90613282565b8015611b675780601f10611b3e57610100808354040283529160200191611b67565b820191905f5260205f20905b815481529060010190602001808311611b4a57829003601f168201915b50505050508152602001600482018054611b8090613282565b80601f0160208091040260200160405190810160405280929190818152602001828054611bac90613282565b8015611bf75780601f10611bce57610100808354040283529160200191611bf7565b820191905f5260205f20905b815481529060010190602001808311611bda57829003601f168201915b50505050508152602001600582018054611c1090613282565b80601f0160208091040260200160405190810160405280929190818152602001828054611c3c90613282565b8015611c875780601f10611c5e57610100808354040283529160200191611c87565b820191905f5260205f20905b815481529060010190602001808311611c6a57829003601f168201915b505050505081525050868681518110611ca357611ca26132b2565b5b60200260200101819052508480611cb99061330c565b9550505b8080611cc89061330c565b91505061180e565b5050508080611cde9061330c565b9150506116b7565b5081935050505092915050565b60035f9054906101000a900473ffffffffffffffffffffffffffffffffffffffff1673ffffffffffffffffffffffffffffffffffffffff16632330f247336040518263ffffffff1660e01b8152600401611d4d9190612be8565b602060405180830381865afa158015611d68573d5f803e3d5ffd5b505050506040513d601f19601f82011682018060405250810190611d8c9190612f68565b611dcb576040517f08c379a0000000000000000000000000000000000000000000000000000000008152600401611dc29061355b565b60405180910390fd5b60025f9054906101000a900473ffffffffffffffffffffffffffffffffffffffff1673ffffffffffffffffffffffffffffffffffffffff166314c8baa9866040518263ffffffff1660e01b8152600401611e259190612f1e565b602060405180830381865afa158015611e40573d5f803e3d5ffd5b505050506040513d601f19601f82011682018060405250810190611e649190612f68565b611ea3576040517f08c379a0000000000000000000000000000000000000000000000000000000008152600401611e9a9061339d565b60405180910390fd5b5f6040518060c00160405280888152602001878152602001868152602001858152602001848152602001838152509050600487604051611ee3919061323f565b908152602001604051809103902081908060018154018082558091505060019003905f5260205f2090600602015f909190919091505f820151815f019081611f2b91906136fb565b506020820151816001019081611f4191906136fb565b506040820151816002019081611f5791906136fb565b506060820151816003019081611f6d91906136fb565b506080820151816004019081611f8391906136fb565b5060a0820151816005019081611f9991906136fb565b5050507fc84f4ede037f9aa1bd0e7ed658d7a4b813c97a7f496b44f80306edd45e262815878786604051611fcf939291906137ca565b60405180910390a150505050505050565b6004828051602081018201805184825260208301602085012081835280955050505050508181548110612011575f80fd5b905f5260205f2090600602015f9150915050805f01805461203190613282565b80601f016020809104026020016040519081016040528092919081815260200182805461205d90613282565b80156120a85780601f1061207f576101008083540402835291602001916120a8565b820191905f5260205f20905b81548152906001019060200180831161208b57829003601f168201915b5050505050908060010180546120bd90613282565b80601f01602080910402602001604051908101604052809291908181526020018280546120e990613282565b80156121345780601f1061210b57610100808354040283529160200191612134565b820191905f5260205f20905b81548152906001019060200180831161211757829003601f168201915b50505050509080600201805461214990613282565b80601f016020809104026020016040519081016040528092919081815260200182805461217590613282565b80156121c05780601f10612197576101008083540402835291602001916121c0565b820191905f5260205f20905b8154815290600101906020018083116121a357829003601f168201915b5050505050908060030180546121d590613282565b80601f016020809104026020016040519081016040528092919081815260200182805461220190613282565b801561224c5780601f106122235761010080835404028352916020019161224c565b820191905f5260205f20905b81548152906001019060200180831161222f57829003601f168201915b50505050509080600401805461226190613282565b80601f016020809104026020016040519081016040528092919081815260200182805461228d90613282565b80156122d85780601f106122af576101008083540402835291602001916122d8565b820191905f5260205f20905b8154815290600101906020018083116122bb57829003601f168201915b5050505050908060050180546122ed90613282565b80601f016020809104026020016040519081016040528092919081815260200182805461231990613282565b80156123645780601f1061233b57610100808354040283529160200191612364565b820191905f5260205f20905b81548152906001019060200180831161234757829003601f168201915b5050505050905086565b6123766123f2565b5f73ffffffffffffffffffffffffffffffffffffffff168173ffffffffffffffffffffffffffffffffffffffff16036123e6575f6040517f1e4fbdf70000000000000000000000000000000000000000000000000000000081526004016123dd9190612be8565b60405180910390fd5b6123ef81612479565b50565b6123fa61253a565b73ffffffffffffffffffffffffffffffffffffffff16612418611383565b73ffffffffffffffffffffffffffffffffffffffff16146124775761243b61253a565b6040517f118cdaa700000000000000000000000000000000000000000000000000000000815260040161246e9190612be8565b60405180910390fd5b565b5f805f9054906101000a900473ffffffffffffffffffffffffffffffffffffffff169050815f806101000a81548173ffffffffffffffffffffffffffffffffffffffff021916908373ffffffffffffffffffffffffffffffffffffffff1602179055508173ffffffffffffffffffffffffffffffffffffffff168173ffffffffffffffffffffffffffffffffffffffff167f8be0079c531659141344cd1fd0a4f28419497f9722a3daafe3b4186f6b6457e060405160405180910390a35050565b5f33905090565b6040518060800160405280606081526020016060815260200160608152602001606081525090565b6040518060c001604052806060815260200160608152602001606081526020016060815260200160608152602001606081525090565b5f604051905090565b5f80fd5b5f80fd5b5f80fd5b5f80fd5b5f601f19601f8301169050919050565b7f4e487b71000000000000000000000000000000000000000000000000000000005f52604160045260245ffd5b6125fe826125b8565b810181811067ffffffffffffffff8211171561261d5761261c6125c8565b5b80604052505050565b5f61262f61259f565b905061263b82826125f5565b919050565b5f67ffffffffffffffff82111561265a576126596125c8565b5b612663826125b8565b9050602081019050919050565b828183375f83830152505050565b5f61269061268b84612640565b612626565b9050828152602081018484840111156126ac576126ab6125b4565b5b6126b7848285612670565b509392505050565b5f82601f8301126126d3576126d26125b0565b5b81356126e384826020860161267e565b91505092915050565b5f805f8060808587031215612704576127036125a8565b5b5f85013567ffffffffffffffff811115612721576127206125ac565b5b61272d878288016126bf565b945050602085013567ffffffffffffffff81111561274e5761274d6125ac565b5b61275a878288016126bf565b935050604085013567ffffffffffffffff81111561277b5761277a6125ac565b5b612787878288016126bf565b925050606085013567ffffffffffffffff8111156127a8576127a76125ac565b5b6127b4878288016126bf565b91505092959194509250565b5f81519050919050565b5f82825260208201905092915050565b5f5b838110156127f75780820151818401526020810190506127dc565b5f8484015250505050565b5f61280c826127c0565b61281681856127ca565b93506128268185602086016127da565b61282f816125b8565b840191505092915050565b5f608083015f8301518482035f8601526128548282612802565b9150506020830151848203602086015261286e8282612802565b915050604083015184820360408601526128888282612802565b915050606083015184820360608601526128a28282612802565b9150508091505092915050565b5f6020820190508181035f8301526128c7818461283a565b905092915050565b5f8115159050919050565b6128e3816128cf565b82525050565b5f6020820190506128fc5f8301846128da565b92915050565b5f8060408385031215612918576129176125a8565b5b5f83013567ffffffffffffffff811115612935576129346125ac565b5b612941858286016126bf565b925050602083013567ffffffffffffffff811115612962576129616125ac565b5b61296e858286016126bf565b9150509250929050565b5f81519050919050565b5f82825260208201905092915050565b5f819050602082019050919050565b5f60c083015f8301518482035f8601526129bb8282612802565b915050602083015184820360208601526129d58282612802565b915050604083015184820360408601526129ef8282612802565b91505060608301518482036060860152612a098282612802565b91505060808301518482036080860152612a238282612802565b91505060a083015184820360a0860152612a3d8282612802565b9150508091505092915050565b5f612a5583836129a1565b905092915050565b5f602082019050919050565b5f612a7382612978565b612a7d8185612982565b935083602082028501612a8f85612992565b805f5b85811015612aca5784840389528151612aab8582612a4a565b9450612ab683612a5d565b925060208a01995050600181019050612a92565b50829750879550505050505092915050565b5f6020820190508181035f830152612af48184612a69565b905092915050565b5f73ffffffffffffffffffffffffffffffffffffffff82169050919050565b5f819050919050565b5f612b3e612b39612b3484612afc565b612b1b565b612afc565b9050919050565b5f612b4f82612b24565b9050919050565b5f612b6082612b45565b9050919050565b612b7081612b56565b82525050565b5f602082019050612b895f830184612b67565b92915050565b5f612b9982612b45565b9050919050565b612ba981612b8f565b82525050565b5f602082019050612bc25f830184612ba0565b92915050565b5f612bd282612afc565b9050919050565b612be281612bc8565b82525050565b5f602082019050612bfb5f830184612bd9565b92915050565b5f612c0b82612b45565b9050919050565b612c1b81612c01565b82525050565b5f602082019050612c345f830184612c12565b92915050565b5f805f805f8060c08789031215612c5457612c536125a8565b5b5f87013567ffffffffffffffff811115612c7157612c706125ac565b5b612c7d89828a016126bf565b965050602087013567ffffffffffffffff811115612c9e57612c9d6125ac565b5b612caa89828a016126bf565b955050604087013567ffffffffffffffff811115612ccb57612cca6125ac565b5b612cd789828a016126bf565b945050606087013567ffffffffffffffff811115612cf857612cf76125ac565b5b612d0489828a016126bf565b935050608087013567ffffffffffffffff811115612d2557612d246125ac565b5b612d3189828a016126bf565b92505060a087013567ffffffffffffffff811115612d5257612d516125ac565b5b612d5e89828a016126bf565b9150509295509295509295565b5f819050919050565b612d7d81612d6b565b8114612d87575f80fd5b50565b5f81359050612d9881612d74565b92915050565b5f8060408385031215612db457612db36125a8565b5b5f83013567ffffffffffffffff811115612dd157612dd06125ac565b5b612ddd858286016126bf565b9250506020612dee85828601612d8a565b9150509250929050565b5f82825260208201905092915050565b5f612e12826127c0565b612e1c8185612df8565b9350612e2c8185602086016127da565b612e35816125b8565b840191505092915050565b5f60c0820190508181035f830152612e588189612e08565b90508181036020830152612e6c8188612e08565b90508181036040830152612e808187612e08565b90508181036060830152612e948186612e08565b90508181036080830152612ea88185612e08565b905081810360a0830152612ebc8184612e08565b9050979650505050505050565b612ed281612bc8565b8114612edc575f80fd5b50565b5f81359050612eed81612ec9565b92915050565b5f60208284031215612f0857612f076125a8565b5b5f612f1584828501612edf565b91505092915050565b5f6020820190508181035f830152612f368184612e08565b905092915050565b612f47816128cf565b8114612f51575f80fd5b50565b5f81519050612f6281612f3e565b92915050565b5f60208284031215612f7d57612f7c6125a8565b5b5f612f8a84828501612f54565b91505092915050565b7f50617469656e74204e4943206973206e6f7420726567697374657265640000005f82015250565b5f612fc7601d83612df8565b9150612fd282612f93565b602082019050919050565b5f6020820190508181035f830152612ff481612fbb565b9050919050565b7f496e76616c69642063616c6c65722061646472657373206f7220746f6b656e005f82015250565b5f61302f601f83612df8565b915061303a82612ffb565b602082019050919050565b5f6020820190508181035f83015261305c81613023565b9050919050565b5f80fd5b5f80fd5b5f61307d61307884612640565b612626565b905082815260208101848484011115613099576130986125b4565b5b6130a48482856127da565b509392505050565b5f82601f8301126130c0576130bf6125b0565b5b81516130d084826020860161306b565b91505092915050565b5f608082840312156130ee576130ed613063565b5b6130f86080612626565b90505f82015167ffffffffffffffff81111561311757613116613067565b5b613123848285016130ac565b5f83015250602082015167ffffffffffffffff81111561314657613145613067565b5b613152848285016130ac565b602083015250604082015167ffffffffffffffff81111561317657613175613067565b5b613182848285016130ac565b604083015250606082015167ffffffffffffffff8111156131a6576131a5613067565b5b6131b2848285016130ac565b60608301525092915050565b5f602082840312156131d3576131d26125a8565b5b5f82015167ffffffffffffffff8111156131f0576131ef6125ac565b5b6131fc848285016130d9565b91505092915050565b5f81905092915050565b5f613219826127c0565b6132238185613205565b93506132338185602086016127da565b80840191505092915050565b5f61324a828461320f565b915081905092915050565b7f4e487b71000000000000000000000000000000000000000000000000000000005f52602260045260245ffd5b5f600282049050600182168061329957607f821691505b6020821081036132ac576132ab613255565b5b50919050565b7f4e487b71000000000000000000000000000000000000000000000000000000005f52603260045260245ffd5b7f4e487b71000000000000000000000000000000000000000000000000000000005f52601160045260245ffd5b5f61331682612d6b565b91507fffffffffffffffffffffffffffffffffffffffffffffffffffffffffffffffff8203613348576133476132df565b5b600182019050919050565b7f446f63746f72204e4943206973206e6f742072656769737465726564000000005f82015250565b5f613387601c83612df8565b915061339282613353565b602082019050919050565b5f6020820190508181035f8301526133b48161337b565b9050919050565b5f815190506133c981612d74565b92915050565b5f602082840312156133e4576133e36125a8565b5b5f6133f1848285016133bb565b91505092915050565b61340381612d6b565b82525050565b5f60208201905061341c5f8301846133fa565b92915050565b5f60208284031215613437576134366125a8565b5b5f82015167ffffffffffffffff811115613454576134536125ac565b5b613460848285016130ac565b91505092915050565b5f819050815f5260205f209050919050565b5f815461348781613282565b6134918186613205565b9450600182165f81146134ab57600181146134c0576134f2565b60ff19831686528115158202860193506134f2565b6134c985613469565b5f5b838110156134ea578154818901526001820191506020810190506134cb565b838801955050505b50505092915050565b5f613506828461347b565b915081905092915050565b7f43616c6c6572206973206e6f7420616e20617574686f726974790000000000005f82015250565b5f613545601a83612df8565b915061355082613511565b602082019050919050565b5f6020820190508181035f83015261357281613539565b9050919050565b5f6020601f8301049050919050565b5f82821b905092915050565b5f600883026135c37fffffffffffffffffffffffffffffffffffffffffffffffffffffffffffffffff82613588565b6135cd8683613588565b95508019841693508086168417925050509392505050565b5f6135ff6135fa6135f584612d6b565b612b1b565b612d6b565b9050919050565b5f819050919050565b613618836135e5565b61362c61362482613606565b848454613594565b825550505050565b5f90565b613640613634565b61364b81848461360f565b505050565b5b8181101561366e576136635f82613638565b600181019050613651565b5050565b601f8211156136b35761368481613469565b61368d84613579565b8101602085101561369c578190505b6136b06136a885613579565b830182613650565b50505b505050565b5f82821c905092915050565b5f6136d35f19846008026136b8565b1980831691505092915050565b5f6136eb83836136c4565b9150826002028217905092915050565b613704826127c0565b67ffffffffffffffff81111561371d5761371c6125c8565b5b6137278254613282565b613732828285613672565b5f60209050601f831160018114613763575f8415613751578287015190505b61375b85826136e0565b8655506137c2565b601f19841661377186613469565b5f5b8281101561379857848901518255600182019150602085019450602081019050613773565b868310156137b557848901516137b1601f8916826136c4565b8355505b6001600288020188555050505b505050505050565b5f6060820190508181035f8301526137e28186612e08565b905081810360208301526137f68185612e08565b9050818103604083015261380a8184612e08565b905094935050505056fea26469706673582212204780c9a38aa4c4069977b82f63098d368467d85bc9eaa7db606f7fb48f6700d364736f6c63430008140033",
  "immutableReferences": {},
  "source": "// SPDX-License-Identifier: MIT \r\npragma solidity 0.8.20;\r\n\r\nimport \"./PatientEMRStorage.sol\";\r\nimport \"./DoctorRegistry.sol\";\r\nimport \"@openzeppelin/contracts/access/Ownable.sol\";\r\nimport \"./AuthorityRegistry.sol\";\r\n\r\ncontract DoctorAssociationRegistry is Ownable {\r\n\r\n    PatientEMRStorage public patientEMRContract;\r\n    DoctorRegistry public doctorStorageContract;    \r\n    AuthorityRegistry public authorityRegistry;\r\n\r\n    modifier onlyAuthority() {\r\n        require(authorityRegistry.isAuthority(msg.sender), \"Caller is not an authority\");\r\n        _;\r\n    }\r\n\r\n    constructor(address _patientEMRContract, address _doctorStorageContract, address _authorityRegistryAddress) Ownable(_authorityRegistryAddress) {\r\n        patientEMRContract = PatientEMRStorage(_patientEMRContract);\r\n        doctorStorageContract = DoctorRegistry(_doctorStorageContract);\r\n        authorityRegistry = AuthorityRegistry(_authorityRegistryAddress);\r\n    }\r\n\r\n    struct DoctorAssociation {\r\n        string patientNic;\r\n        string doctorNic;\r\n        string appointmentId;\r\n        string token;\r\n        string validateDate;\r\n        string doctorWalletAddress;\r\n    }\r\n\r\n    mapping(string => DoctorAssociation[]) public patientDoctorAssociations;\r\n    event DoctorAssociated(string patientNic, string doctorNic, string token);\r\n\r\n    function associateDoctorWithPatient(\r\n        string memory patientNic,\r\n        string memory doctorNic,\r\n        string memory appointmentId,\r\n        string memory token,\r\n        string memory validateDate,\r\n        string memory doctorWalletAddress\r\n    ) public onlyAuthority {\r\n        require(doctorStorageContract.isNICAlreadyRegistered(doctorNic), \"Doctor NIC is not registered\");\r\n\r\n        DoctorAssociation memory newAssociation = DoctorAssociation({\r\n            patientNic: patientNic,\r\n            doctorNic: doctorNic,\r\n            appointmentId: appointmentId,\r\n            token: token,\r\n            validateDate: validateDate,\r\n            doctorWalletAddress: doctorWalletAddress\r\n        });\r\n\r\n        patientDoctorAssociations[patientNic].push(newAssociation);\r\n\r\n        emit DoctorAssociated(patientNic, doctorNic, token);\r\n    }\r\n\r\n    function getDoctorAssociationsByDoctorNicAndWallet(string memory doctorNic, string memory doctorWalletAddress) public view returns (DoctorAssociation[] memory) {\r\n        require(doctorStorageContract.isNICAlreadyRegistered(doctorNic), \"Doctor NIC is not registered\");\r\n\r\n        uint256 count = 0;\r\n        DoctorAssociation[] memory doctorAssociations;\r\n\r\n        for (uint256 i = 0; i < patientEMRContract.getRegisteredNICsCount(); i++) {\r\n            string memory patientNic = patientEMRContract.getRegisteredNICAtIndex(i);\r\n            DoctorAssociation[] storage associations = patientDoctorAssociations[patientNic];\r\n            for (uint256 j = 0; j < associations.length; j++) {\r\n                if (keccak256(abi.encodePacked(associations[j].doctorNic)) == keccak256(abi.encodePacked(doctorNic))) {\r\n                    count++;\r\n                }\r\n            }\r\n        }\r\n\r\n        if (count > 0) {\r\n            doctorAssociations = new DoctorAssociation[](count);\r\n            uint256 index = 0;\r\n\r\n            for (uint256 i = 0; i < patientEMRContract.getRegisteredNICsCount(); i++) {\r\n                string memory patientNic = patientEMRContract.getRegisteredNICAtIndex(i);\r\n                DoctorAssociation[] storage associations = patientDoctorAssociations[patientNic];\r\n                for (uint256 j = 0; j < associations.length; j++) {\r\n                    if (keccak256(abi.encodePacked(associations[j].doctorNic)) == keccak256(abi.encodePacked(doctorNic))) {\r\n                        if (keccak256(abi.encodePacked(associations[j].doctorWalletAddress)) == keccak256(abi.encodePacked(doctorWalletAddress))) {\r\n                            doctorAssociations[index] = associations[j];\r\n                            index++;\r\n                        }\r\n                    }\r\n                }\r\n            }\r\n        }\r\n\r\n        return doctorAssociations;\r\n    }\r\n\r\n    function getPatientsForTodayByDoctorNic(string memory doctorNic, string memory todayDate) public view returns (DoctorAssociation[] memory) {\r\n        uint256 count = 0;\r\n        for (uint256 i = 0; i < patientEMRContract.getRegisteredNICsCount(); i++) {\r\n            string memory patientNic = patientEMRContract.getRegisteredNICAtIndex(i);\r\n            DoctorAssociation[] storage associations = patientDoctorAssociations[patientNic];\r\n            for (uint256 j = 0; j < associations.length; j++) {\r\n                if (keccak256(abi.encodePacked(associations[j].doctorNic)) == keccak256(abi.encodePacked(doctorNic)) &&\r\n                    keccak256(abi.encodePacked(associations[j].validateDate)) == keccak256(abi.encodePacked(todayDate))) {\r\n                    count++;\r\n                }\r\n            }\r\n        }\r\n\r\n        DoctorAssociation[] memory patientAssociations = new DoctorAssociation[](count);\r\n        uint256 index = 0;\r\n\r\n        for (uint256 i = 0; i < patientEMRContract.getRegisteredNICsCount(); i++) {\r\n            string memory patientNic = patientEMRContract.getRegisteredNICAtIndex(i);\r\n            DoctorAssociation[] storage associations = patientDoctorAssociations[patientNic];\r\n            for (uint256 j = 0; j < associations.length; j++) {\r\n                if (keccak256(abi.encodePacked(associations[j].doctorNic)) == keccak256(abi.encodePacked(doctorNic)) &&\r\n                    keccak256(abi.encodePacked(associations[j].validateDate)) == keccak256(abi.encodePacked(todayDate))) {\r\n                    patientAssociations[index] = associations[j];\r\n                    index++;\r\n                }\r\n            }\r\n        }\r\n\r\n        return patientAssociations;\r\n    }\r\n\r\n    function isCallerAssociatedWithPatient(string memory patientNic, string memory walletAddress, string memory token, string memory todayDate) public view returns (bool) {\r\n        DoctorAssociation[] memory doctorAssociationsList = patientDoctorAssociations[patientNic];\r\n        \r\n        for (uint256 i = 0; i < doctorAssociationsList.length; i++) {\r\n            if (\r\n                keccak256(abi.encodePacked(doctorAssociationsList[i].doctorWalletAddress)) == keccak256(abi.encodePacked(walletAddress)) &&\r\n                keccak256(abi.encodePacked(doctorAssociationsList[i].token)) == keccak256(abi.encodePacked(token)) &&\r\n                keccak256(abi.encodePacked(doctorAssociationsList[i].validateDate)) == keccak256(abi.encodePacked(todayDate))\r\n            ) {\r\n                return true;\r\n            }\r\n        }\r\n\r\n        return false;\r\n    }\r\n\r\n    function getEMRData(string memory patientNic, string memory token, string memory todayDate, string memory walletAddress) public view returns (PatientEMRStorage.EMR memory) {\r\n        require(patientEMRContract.isNICRegistered(patientNic), \"Patient NIC is not registered\");\r\n        require(isCallerAssociatedWithPatient(patientNic, walletAddress, token, todayDate), \"Invalid caller address or token\");\r\n        return patientEMRContract.doctorGetEMRData(patientNic);\r\n    }\r\n}",
  "sourcePath": "C:\\Users\\avjc2\\Documents\\S2 BINUS\\THESIS\\BLOCKCHAIN\\APPLICATIONS\\EMRIHsystem\\EMR-IH_smart_contracts\\contracts\\DoctorAssociationRegistry.sol",
  "compiler": {
    "name": "solc",
    "version": "0.8.20+commit.a1b79de6.Emscripten.clang"
  },
  "schemaVersion": "3.4.16",
  "updatedAt": "2024-02-14T08:28:35.930Z",
  "devdoc": {
    "errors": {
      "OwnableInvalidOwner(address)": [
        {
          "details": "The owner is not a valid owner account. (eg. `address(0)`)"
        }
      ],
      "OwnableUnauthorizedAccount(address)": [
        {
          "details": "The caller account is not authorized to perform an operation."
        }
      ]
    },
    "kind": "dev",
    "methods": {
      "owner()": {
        "details": "Returns the address of the current owner."
      },
      "renounceOwnership()": {
        "details": "Leaves the contract without owner. It will not be possible to call `onlyOwner` functions. Can only be called by the current owner. NOTE: Renouncing ownership will leave the contract without an owner, thereby disabling any functionality that is only available to the owner."
      },
      "transferOwnership(address)": {
        "details": "Transfers ownership of the contract to a new account (`newOwner`). Can only be called by the current owner."
      }
    },
    "version": 1
  },
  "userdoc": {
    "kind": "user",
    "methods": {},
    "version": 1
  }
}