{
  "contractName": "PatientEMRStorage",
  "abi": [
    {
      "inputs": [
        {
          "internalType": "address",
          "name": "_authorityRegistryAddress",
          "type": "address"
        }
      ],
      "stateMutability": "nonpayable",
      "type": "constructor"
    },
    {
      "inputs": [
        {
          "internalType": "address",
          "name": "owner",
          "type": "address"
        }
      ],
      "name": "OwnableInvalidOwner",
      "type": "error"
    },
    {
      "inputs": [
        {
          "internalType": "address",
          "name": "account",
          "type": "address"
        }
      ],
      "name": "OwnableUnauthorizedAccount",
      "type": "error"
    },
    {
      "anonymous": false,
      "inputs": [
        {
          "indexed": false,
          "internalType": "string",
          "name": "patientNic",
          "type": "string"
        },
        {
          "indexed": false,
          "internalType": "string",
          "name": "noRekamMedis",
          "type": "string"
        }
      ],
      "name": "EMRRecordUpdated",
      "type": "event"
    },
    {
      "anonymous": false,
      "inputs": [
        {
          "indexed": true,
          "internalType": "address",
          "name": "previousOwner",
          "type": "address"
        },
        {
          "indexed": true,
          "internalType": "address",
          "name": "newOwner",
          "type": "address"
        }
      ],
      "name": "OwnershipTransferred",
      "type": "event"
    },
    {
      "anonymous": false,
      "inputs": [
        {
          "indexed": false,
          "internalType": "string",
          "name": "nic",
          "type": "string"
        },
        {
          "indexed": false,
          "internalType": "string",
          "name": "name",
          "type": "string"
        },
        {
          "indexed": false,
          "internalType": "string",
          "name": "walletAddress",
          "type": "string"
        }
      ],
      "name": "PatientRegistered",
      "type": "event"
    },
    {
      "anonymous": false,
      "inputs": [
        {
          "indexed": false,
          "internalType": "string",
          "name": "nic",
          "type": "string"
        },
        {
          "indexed": false,
          "internalType": "string",
          "name": "newToken",
          "type": "string"
        }
      ],
      "name": "PatientTokenUpdated",
      "type": "event"
    },
    {
      "inputs": [],
      "name": "authorityRegistry",
      "outputs": [
        {
          "internalType": "contract AuthorityRegistry",
          "name": "",
          "type": "address"
        }
      ],
      "stateMutability": "view",
      "type": "function"
    },
    {
      "inputs": [],
      "name": "difficulty",
      "outputs": [
        {
          "internalType": "uint256",
          "name": "",
          "type": "uint256"
        }
      ],
      "stateMutability": "view",
      "type": "function"
    },
    {
      "inputs": [
        {
          "internalType": "string",
          "name": "",
          "type": "string"
        }
      ],
      "name": "emrRecords",
      "outputs": [
        {
          "internalType": "string",
          "name": "patientNic",
          "type": "string"
        },
        {
          "internalType": "string",
          "name": "dob",
          "type": "string"
        },
        {
          "internalType": "string",
          "name": "noRekamMedis",
          "type": "string"
        },
        {
          "internalType": "string",
          "name": "medicalRecord",
          "type": "string"
        }
      ],
      "stateMutability": "view",
      "type": "function"
    },
    {
      "inputs": [
        {
          "internalType": "string",
          "name": "",
          "type": "string"
        }
      ],
      "name": "isNICRegistered",
      "outputs": [
        {
          "internalType": "bool",
          "name": "",
          "type": "bool"
        }
      ],
      "stateMutability": "view",
      "type": "function"
    },
    {
      "inputs": [
        {
          "internalType": "string",
          "name": "",
          "type": "string"
        }
      ],
      "name": "isWalletRegistered",
      "outputs": [
        {
          "internalType": "bool",
          "name": "",
          "type": "bool"
        }
      ],
      "stateMutability": "view",
      "type": "function"
    },
    {
      "inputs": [],
      "name": "owner",
      "outputs": [
        {
          "internalType": "address",
          "name": "",
          "type": "address"
        }
      ],
      "stateMutability": "view",
      "type": "function"
    },
    {
      "inputs": [
        {
          "internalType": "string",
          "name": "",
          "type": "string"
        }
      ],
      "name": "patients",
      "outputs": [
        {
          "internalType": "string",
          "name": "name",
          "type": "string"
        },
        {
          "internalType": "string",
          "name": "homeAddress",
          "type": "string"
        },
        {
          "internalType": "string",
          "name": "dob",
          "type": "string"
        },
        {
          "internalType": "string",
          "name": "telephone",
          "type": "string"
        },
        {
          "internalType": "string",
          "name": "email",
          "type": "string"
        },
        {
          "internalType": "string",
          "name": "password",
          "type": "string"
        },
        {
          "internalType": "string",
          "name": "nic",
          "type": "string"
        },
        {
          "internalType": "string",
          "name": "walletAddress",
          "type": "string"
        },
        {
          "internalType": "string",
          "name": "token",
          "type": "string"
        },
        {
          "internalType": "string",
          "name": "noRekamMedis",
          "type": "string"
        },
        {
          "internalType": "string",
          "name": "urlKTP",
          "type": "string"
        }
      ],
      "stateMutability": "view",
      "type": "function"
    },
    {
      "inputs": [
        {
          "internalType": "uint256",
          "name": "",
          "type": "uint256"
        }
      ],
      "name": "registeredNICs",
      "outputs": [
        {
          "internalType": "string",
          "name": "",
          "type": "string"
        }
      ],
      "stateMutability": "view",
      "type": "function"
    },
    {
      "inputs": [],
      "name": "renounceOwnership",
      "outputs": [],
      "stateMutability": "nonpayable",
      "type": "function"
    },
    {
      "inputs": [
        {
          "internalType": "address",
          "name": "newOwner",
          "type": "address"
        }
      ],
      "name": "transferOwnership",
      "outputs": [],
      "stateMutability": "nonpayable",
      "type": "function"
    },
    {
      "inputs": [
        {
          "internalType": "uint256",
          "name": "nonce",
          "type": "uint256"
        }
      ],
      "name": "mine",
      "outputs": [
        {
          "internalType": "bytes32",
          "name": "",
          "type": "bytes32"
        }
      ],
      "stateMutability": "pure",
      "type": "function"
    },
    {
      "inputs": [
        {
          "internalType": "uint256",
          "name": "_difficulty",
          "type": "uint256"
        }
      ],
      "name": "setDifficulty",
      "outputs": [],
      "stateMutability": "nonpayable",
      "type": "function"
    },
    {
      "inputs": [
        {
          "internalType": "string",
          "name": "name",
          "type": "string"
        },
        {
          "internalType": "string",
          "name": "homeAddress",
          "type": "string"
        },
        {
          "internalType": "string",
          "name": "dob",
          "type": "string"
        },
        {
          "internalType": "string",
          "name": "email",
          "type": "string"
        },
        {
          "internalType": "string",
          "name": "telephone",
          "type": "string"
        },
        {
          "internalType": "string",
          "name": "password",
          "type": "string"
        },
        {
          "internalType": "string",
          "name": "nic",
          "type": "string"
        },
        {
          "internalType": "string",
          "name": "walletAddress",
          "type": "string"
        },
        {
          "internalType": "string",
          "name": "token",
          "type": "string"
        },
        {
          "internalType": "string",
          "name": "noRekamMedis",
          "type": "string"
        },
        {
          "internalType": "string",
          "name": "urlKTP",
          "type": "string"
        }
      ],
      "name": "registerPatient",
      "outputs": [],
      "stateMutability": "nonpayable",
      "type": "function"
    },
    {
      "inputs": [
        {
          "internalType": "string",
          "name": "nic",
          "type": "string"
        },
        {
          "internalType": "string",
          "name": "newName",
          "type": "string"
        },
        {
          "internalType": "string",
          "name": "newHomeAddress",
          "type": "string"
        },
        {
          "internalType": "string",
          "name": "newTelephone",
          "type": "string"
        },
        {
          "internalType": "string",
          "name": "newEmail",
          "type": "string"
        },
        {
          "internalType": "string",
          "name": "newPassword",
          "type": "string"
        },
        {
          "internalType": "uint256",
          "name": "nonce",
          "type": "uint256"
        }
      ],
      "name": "updatePatientData",
      "outputs": [],
      "stateMutability": "nonpayable",
      "type": "function"
    },
    {
      "inputs": [
        {
          "internalType": "string",
          "name": "nic",
          "type": "string"
        },
        {
          "internalType": "string",
          "name": "newToken",
          "type": "string"
        }
      ],
      "name": "updatePatientToken",
      "outputs": [],
      "stateMutability": "nonpayable",
      "type": "function"
    },
    {
      "inputs": [
        {
          "internalType": "string",
          "name": "nic",
          "type": "string"
        }
      ],
      "name": "getPatientDetails",
      "outputs": [
        {
          "components": [
            {
              "internalType": "string",
              "name": "name",
              "type": "string"
            },
            {
              "internalType": "string",
              "name": "homeAddress",
              "type": "string"
            },
            {
              "internalType": "string",
              "name": "dob",
              "type": "string"
            },
            {
              "internalType": "string",
              "name": "telephone",
              "type": "string"
            },
            {
              "internalType": "string",
              "name": "email",
              "type": "string"
            },
            {
              "internalType": "string",
              "name": "password",
              "type": "string"
            },
            {
              "internalType": "string",
              "name": "nic",
              "type": "string"
            },
            {
              "internalType": "string",
              "name": "walletAddress",
              "type": "string"
            },
            {
              "internalType": "string",
              "name": "token",
              "type": "string"
            },
            {
              "internalType": "string",
              "name": "noRekamMedis",
              "type": "string"
            },
            {
              "internalType": "string",
              "name": "urlKTP",
              "type": "string"
            }
          ],
          "internalType": "struct PatientEMRStorage.Patient",
          "name": "",
          "type": "tuple"
        }
      ],
      "stateMutability": "view",
      "type": "function"
    },
    {
      "inputs": [
        {
          "internalType": "string",
          "name": "nic",
          "type": "string"
        }
      ],
      "name": "isNICAlreadyRegistered",
      "outputs": [
        {
          "internalType": "bool",
          "name": "",
          "type": "bool"
        }
      ],
      "stateMutability": "view",
      "type": "function"
    },
    {
      "inputs": [
        {
          "internalType": "string",
          "name": "nic",
          "type": "string"
        },
        {
          "internalType": "string",
          "name": "password",
          "type": "string"
        },
        {
          "internalType": "string",
          "name": "walletAddress",
          "type": "string"
        }
      ],
      "name": "validateLogin",
      "outputs": [
        {
          "internalType": "string",
          "name": "message",
          "type": "string"
        },
        {
          "components": [
            {
              "internalType": "string",
              "name": "name",
              "type": "string"
            },
            {
              "internalType": "string",
              "name": "homeAddress",
              "type": "string"
            },
            {
              "internalType": "string",
              "name": "dob",
              "type": "string"
            },
            {
              "internalType": "string",
              "name": "telephone",
              "type": "string"
            },
            {
              "internalType": "string",
              "name": "email",
              "type": "string"
            },
            {
              "internalType": "string",
              "name": "password",
              "type": "string"
            },
            {
              "internalType": "string",
              "name": "nic",
              "type": "string"
            },
            {
              "internalType": "string",
              "name": "walletAddress",
              "type": "string"
            },
            {
              "internalType": "string",
              "name": "token",
              "type": "string"
            },
            {
              "internalType": "string",
              "name": "noRekamMedis",
              "type": "string"
            },
            {
              "internalType": "string",
              "name": "urlKTP",
              "type": "string"
            }
          ],
          "internalType": "struct PatientEMRStorage.Patient",
          "name": "patientData",
          "type": "tuple"
        }
      ],
      "stateMutability": "view",
      "type": "function"
    },
    {
      "inputs": [
        {
          "internalType": "string",
          "name": "patientNic",
          "type": "string"
        },
        {
          "internalType": "string",
          "name": "dob",
          "type": "string"
        },
        {
          "internalType": "string",
          "name": "noRekamMedis",
          "type": "string"
        },
        {
          "internalType": "string",
          "name": "medicalRecord",
          "type": "string"
        },
        {
          "internalType": "uint256",
          "name": "nonce",
          "type": "uint256"
        }
      ],
      "name": "addEMRData",
      "outputs": [],
      "stateMutability": "nonpayable",
      "type": "function"
    },
    {
      "inputs": [
        {
          "internalType": "string",
          "name": "patientNic",
          "type": "string"
        },
        {
          "internalType": "string",
          "name": "dob",
          "type": "string"
        }
      ],
      "name": "isEMRDataExist",
      "outputs": [
        {
          "internalType": "bool",
          "name": "",
          "type": "bool"
        },
        {
          "internalType": "string",
          "name": "",
          "type": "string"
        }
      ],
      "stateMutability": "view",
      "type": "function"
    },
    {
      "inputs": [
        {
          "internalType": "string",
          "name": "patientNic",
          "type": "string"
        },
        {
          "internalType": "string",
          "name": "token",
          "type": "string"
        },
        {
          "internalType": "string",
          "name": "patientWalletAddress",
          "type": "string"
        }
      ],
      "name": "getEMRData",
      "outputs": [
        {
          "components": [
            {
              "internalType": "string",
              "name": "patientNic",
              "type": "string"
            },
            {
              "internalType": "string",
              "name": "dob",
              "type": "string"
            },
            {
              "internalType": "string",
              "name": "noRekamMedis",
              "type": "string"
            },
            {
              "internalType": "string",
              "name": "medicalRecord",
              "type": "string"
            }
          ],
          "internalType": "struct PatientEMRStorage.EMR",
          "name": "",
          "type": "tuple"
        }
      ],
      "stateMutability": "view",
      "type": "function"
    },
    {
      "inputs": [
        {
          "internalType": "string",
          "name": "patientNic",
          "type": "string"
        }
      ],
      "name": "doctorGetEMRData",
      "outputs": [
        {
          "components": [
            {
              "internalType": "string",
              "name": "patientNic",
              "type": "string"
            },
            {
              "internalType": "string",
              "name": "dob",
              "type": "string"
            },
            {
              "internalType": "string",
              "name": "noRekamMedis",
              "type": "string"
            },
            {
              "internalType": "string",
              "name": "medicalRecord",
              "type": "string"
            }
          ],
          "internalType": "struct PatientEMRStorage.EMR",
          "name": "",
          "type": "tuple"
        }
      ],
      "stateMutability": "view",
      "type": "function"
    },
    {
      "inputs": [
        {
          "internalType": "string",
          "name": "patientNic",
          "type": "string"
        },
        {
          "internalType": "string",
          "name": "dob",
          "type": "string"
        },
        {
          "internalType": "string",
          "name": "noRekamMedis",
          "type": "string"
        },
        {
          "internalType": "string",
          "name": "medicalRecord",
          "type": "string"
        },
        {
          "internalType": "string",
          "name": "token",
          "type": "string"
        },
        {
          "internalType": "bool",
          "name": "isValidated",
          "type": "bool"
        },
        {
          "internalType": "uint256",
          "name": "nonce",
          "type": "uint256"
        }
      ],
      "name": "updateEMRData",
      "outputs": [],
      "stateMutability": "nonpayable",
      "type": "function"
    },
    {
      "inputs": [
        {
          "internalType": "string",
          "name": "patientNic",
          "type": "string"
        }
      ],
      "name": "getPatientWalletAddress",
      "outputs": [
        {
          "internalType": "string",
          "name": "",
          "type": "string"
        }
      ],
      "stateMutability": "view",
      "type": "function"
    },
    {
      "inputs": [],
      "name": "getRegisteredNICsCount",
      "outputs": [
        {
          "internalType": "uint256",
          "name": "",
          "type": "uint256"
        }
      ],
      "stateMutability": "view",
      "type": "function"
    },
    {
      "inputs": [
        {
          "internalType": "uint256",
          "name": "index",
          "type": "uint256"
        }
      ],
      "name": "getRegisteredNICAtIndex",
      "outputs": [
        {
          "internalType": "string",
          "name": "",
          "type": "string"
        }
      ],
      "stateMutability": "view",
      "type": "function"
    }
  ],
  "bytecode": "0x6080604052600560025534801562000015575f80fd5b5060405162005a2338038062005a2383398181016040528101906200003b91906200022e565b805f73ffffffffffffffffffffffffffffffffffffffff168173ffffffffffffffffffffffffffffffffffffffff1603620000af575f6040517f1e4fbdf7000000000000000000000000000000000000000000000000000000008152600401620000a691906200026f565b60405180910390fd5b620000c0816200010860201b60201c565b508060015f6101000a81548173ffffffffffffffffffffffffffffffffffffffff021916908373ffffffffffffffffffffffffffffffffffffffff160217905550506200028a565b5f805f9054906101000a900473ffffffffffffffffffffffffffffffffffffffff169050815f806101000a81548173ffffffffffffffffffffffffffffffffffffffff021916908373ffffffffffffffffffffffffffffffffffffffff1602179055508173ffffffffffffffffffffffffffffffffffffffff168173ffffffffffffffffffffffffffffffffffffffff167f8be0079c531659141344cd1fd0a4f28419497f9722a3daafe3b4186f6b6457e060405160405180910390a35050565b5f80fd5b5f73ffffffffffffffffffffffffffffffffffffffff82169050919050565b5f620001f882620001cd565b9050919050565b6200020a81620001ec565b811462000215575f80fd5b50565b5f815190506200022881620001ff565b92915050565b5f60208284031215620002465762000245620001c9565b5b5f620002558482850162000218565b91505092915050565b6200026981620001ec565b82525050565b5f602082019050620002845f8301846200025e565b92915050565b61578b80620002985f395ff3fe608060405234801561000f575f80fd5b506004361061018c575f3560e01c80637459783b116100dc578063bf47b89f11610095578063e9d2f8571161006f578063e9d2f857146104ed578063ea977fc814610509578063f2fde38b14610539578063f6b014a7146105555761018c565b8063bf47b89f14610467578063c28b8eca14610483578063c6009d84146104b35761018c565b80637459783b146103935780637dc7971a146103af57806386f1c312146103cb5780638da5cb5b146103fb578063a9ba045e14610419578063b584916c146104375761018c565b806321e329cd116101495780634d474898116101235780634d47489814610321578063602512e114610351578063613092201461036d578063715018a6146103895761018c565b806321e329cd146102a25780632d86bf58146102d35780633717cf2a146103035761018c565b8063029055db146101905780630ee05880146101c357806314c8baa9146101f357806319cae462146102235780631a8b364c146102415780631c9091ae14610271575b5f80fd5b6101aa60048036038101906101a59190613e64565b610585565b6040516101ba9493929190613f25565b60405180910390f35b6101dd60048036038101906101d89190613e64565b6107e1565b6040516101ea9190613f9e565b60405180910390f35b61020d60048036038101906102089190613e64565b610816565b60405161021a9190613f9e565b60405180910390f35b61022b610849565b6040516102389190613fcf565b60405180910390f35b61025b60048036038101906102569190613e64565b61084f565b6040516102689190613fe8565b60405180910390f35b61028b60048036038101906102869190614008565b61096a565b60405161029992919061407e565b60405180910390f35b6102bc60048036038101906102b791906140ac565b6109ad565b6040516102ca9291906142ca565b60405180910390f35b6102ed60048036038101906102e89190613e64565b61134a565b6040516102fa9190614374565b60405180910390f35b61030b6115c1565b6040516103189190613fcf565b60405180910390f35b61033b600480360381019061033691906143be565b6115cd565b6040516103489190614401565b60405180910390f35b61036b600480360381019061036691906143be565b6115fc565b005b61038760048036038101906103829190614444565b61160e565b005b610391611b09565b005b6103ad60048036038101906103a89190614008565b611b1c565b005b6103c960048036038101906103c4919061456d565b611cca565b005b6103e560048036038101906103e091906143be565b611f18565b6040516103f29190613fe8565b60405180910390f35b61040361200b565b6040516104109190614693565b60405180910390f35b610421612032565b60405161042e9190614707565b60405180910390f35b610451600480360381019061044c91906143be565b612057565b60405161045e9190613fe8565b60405180910390f35b610481600480360381019061047c9190614720565b6120fd565b005b61049d600480360381019061049891906140ac565b61237b565b6040516104aa9190614374565b60405180910390f35b6104cd60048036038101906104c89190613e64565b6127ba565b6040516104e49b9a99989796959493929190614865565b60405180910390f35b6105076004803603810190610502919061495b565b612dea565b005b610523600480360381019061051e9190613e64565b6131ad565b6040516105309190614b7c565b60405180910390f35b610553600480360381019061054e9190614bc6565b613884565b005b61056f600480360381019061056a9190613e64565b613908565b60405161057c9190613f9e565b60405180910390f35b6004818051602081018201805184825260208301602085012081835280955050505050505f91509050805f0180546105bc90614c1e565b80601f01602080910402602001604051908101604052809291908181526020018280546105e890614c1e565b80156106335780601f1061060a57610100808354040283529160200191610633565b820191905f5260205f20905b81548152906001019060200180831161061657829003601f168201915b50505050509080600101805461064890614c1e565b80601f016020809104026020016040519081016040528092919081815260200182805461067490614c1e565b80156106bf5780601f10610696576101008083540402835291602001916106bf565b820191905f5260205f20905b8154815290600101906020018083116106a257829003601f168201915b5050505050908060020180546106d490614c1e565b80601f016020809104026020016040519081016040528092919081815260200182805461070090614c1e565b801561074b5780601f106107225761010080835404028352916020019161074b565b820191905f5260205f20905b81548152906001019060200180831161072e57829003601f168201915b50505050509080600301805461076090614c1e565b80601f016020809104026020016040519081016040528092919081815260200182805461078c90614c1e565b80156107d75780601f106107ae576101008083540402835291602001916107d7565b820191905f5260205f20905b8154815290600101906020018083116107ba57829003601f168201915b5050505050905084565b6006818051602081018201805184825260208301602085012081835280955050505050505f915054906101000a900460ff1681565b5f6005826040516108279190614c88565b90815260200160405180910390205f9054906101000a900460ff169050919050565b60025481565b60606005826040516108619190614c88565b90815260200160405180910390205f9054906101000a900460ff166108bb576040517f08c379a00000000000000000000000000000000000000000000000000000000081526004016108b290614ce8565b60405180910390fd5b6003826040516108cb9190614c88565b908152602001604051809103902060070180546108e790614c1e565b80601f016020809104026020016040519081016040528092919081815260200182805461091390614c1e565b801561095e5780601f106109355761010080835404028352916020019161095e565b820191905f5260205f20905b81548152906001019060200180831161094157829003601f168201915b50505050509050919050565b5f60605f610978858561393d565b90505f815111156109905760018192509250506109a6565b5f60405180602001604052805f81525092509250505b9250929050565b60606109b7613c95565b6005856040516109c79190614c88565b90815260200160405180910390205f9054906101000a900460ff1615611221575f6003866040516109f89190614c88565b9081526020016040518091039020604051806101600160405290815f82018054610a2190614c1e565b80601f0160208091040260200160405190810160405280929190818152602001828054610a4d90614c1e565b8015610a985780601f10610a6f57610100808354040283529160200191610a98565b820191905f5260205f20905b815481529060010190602001808311610a7b57829003601f168201915b50505050508152602001600182018054610ab190614c1e565b80601f0160208091040260200160405190810160405280929190818152602001828054610add90614c1e565b8015610b285780601f10610aff57610100808354040283529160200191610b28565b820191905f5260205f20905b815481529060010190602001808311610b0b57829003601f168201915b50505050508152602001600282018054610b4190614c1e565b80601f0160208091040260200160405190810160405280929190818152602001828054610b6d90614c1e565b8015610bb85780601f10610b8f57610100808354040283529160200191610bb8565b820191905f5260205f20905b815481529060010190602001808311610b9b57829003601f168201915b50505050508152602001600382018054610bd190614c1e565b80601f0160208091040260200160405190810160405280929190818152602001828054610bfd90614c1e565b8015610c485780601f10610c1f57610100808354040283529160200191610c48565b820191905f5260205f20905b815481529060010190602001808311610c2b57829003601f168201915b50505050508152602001600482018054610c6190614c1e565b80601f0160208091040260200160405190810160405280929190818152602001828054610c8d90614c1e565b8015610cd85780601f10610caf57610100808354040283529160200191610cd8565b820191905f5260205f20905b815481529060010190602001808311610cbb57829003601f168201915b50505050508152602001600582018054610cf190614c1e565b80601f0160208091040260200160405190810160405280929190818152602001828054610d1d90614c1e565b8015610d685780601f10610d3f57610100808354040283529160200191610d68565b820191905f5260205f20905b815481529060010190602001808311610d4b57829003601f168201915b50505050508152602001600682018054610d8190614c1e565b80601f0160208091040260200160405190810160405280929190818152602001828054610dad90614c1e565b8015610df85780601f10610dcf57610100808354040283529160200191610df8565b820191905f5260205f20905b815481529060010190602001808311610ddb57829003601f168201915b50505050508152602001600782018054610e1190614c1e565b80601f0160208091040260200160405190810160405280929190818152602001828054610e3d90614c1e565b8015610e885780601f10610e5f57610100808354040283529160200191610e88565b820191905f5260205f20905b815481529060010190602001808311610e6b57829003601f168201915b50505050508152602001600882018054610ea190614c1e565b80601f0160208091040260200160405190810160405280929190818152602001828054610ecd90614c1e565b8015610f185780601f10610eef57610100808354040283529160200191610f18565b820191905f5260205f20905b815481529060010190602001808311610efb57829003601f168201915b50505050508152602001600982018054610f3190614c1e565b80601f0160208091040260200160405190810160405280929190818152602001828054610f5d90614c1e565b8015610fa85780601f10610f7f57610100808354040283529160200191610fa8565b820191905f5260205f20905b815481529060010190602001808311610f8b57829003601f168201915b50505050508152602001600a82018054610fc190614c1e565b80601f0160208091040260200160405190810160405280929190818152602001828054610fed90614c1e565b80156110385780601f1061100f57610100808354040283529160200191611038565b820191905f5260205f20905b81548152906001019060200180831161101b57829003601f168201915b50505050508152505090508060a001516040516020016110589190614c88565b604051602081830303815290604052805190602001208560405160200161107f9190614c88565b60405160208183030381529060405280519060200120146110d5576040517f08c379a00000000000000000000000000000000000000000000000000000000081526004016110cc90614d50565b60405180910390fd5b8060e001516040516020016110ea9190614c88565b60405160208183030381529060405280519060200120846040516020016111119190614c88565b6040516020818303038152906040528051906020012014611167576040517f08c379a000000000000000000000000000000000000000000000000000000000815260040161115e90614db8565b60405180910390fd5b6040518060400160405280601281526020017f4c6f67696e205375636365737366756c6c7900000000000000000000000000008152509250604051806101600160405280825f01518152602001826020015181526020018260400151815260200182606001518152602001826080015181526020018260a0015181526020018260c0015181526020018260e00151815260200182610100015181526020018261012001518152602001826101400151815250915050611342565b6040518060400160405280601281526020017f4e4943206e6f7420726567697374657265640000000000000000000000000000815250915060405180610160016040528060405180602001604052805f815250815260200160405180602001604052805f815250815260200160405180602001604052805f815250815260200160405180602001604052805f815250815260200160405180602001604052805f815250815260200160405180602001604052805f815250815260200160405180602001604052805f815250815260200160405180602001604052805f815250815260200160405180602001604052805f815250815260200160405180602001604052805f815250815260200160405180602001604052805f81525081525090505b935093915050565b611352613cef565b6004826040516113629190614c88565b90815260200160405180910390206040518060800160405290815f8201805461138a90614c1e565b80601f01602080910402602001604051908101604052809291908181526020018280546113b690614c1e565b80156114015780601f106113d857610100808354040283529160200191611401565b820191905f5260205f20905b8154815290600101906020018083116113e457829003601f168201915b5050505050815260200160018201805461141a90614c1e565b80601f016020809104026020016040519081016040528092919081815260200182805461144690614c1e565b80156114915780601f1061146857610100808354040283529160200191611491565b820191905f5260205f20905b81548152906001019060200180831161147457829003601f168201915b505050505081526020016002820180546114aa90614c1e565b80601f01602080910402602001604051908101604052809291908181526020018280546114d690614c1e565b80156115215780601f106114f857610100808354040283529160200191611521565b820191905f5260205f20905b81548152906001019060200180831161150457829003601f168201915b5050505050815260200160038201805461153a90614c1e565b80601f016020809104026020016040519081016040528092919081815260200182805461156690614c1e565b80156115b15780601f10611588576101008083540402835291602001916115b1565b820191905f5260205f20905b81548152906001019060200180831161159457829003601f168201915b5050505050815250509050919050565b5f600780549050905090565b5f816040516020016115df9190614df6565b604051602081830303815290604052805190602001209050919050565b611604613abc565b8060028190555050565b60015f9054906101000a900473ffffffffffffffffffffffffffffffffffffffff1673ffffffffffffffffffffffffffffffffffffffff16632330f247336040518263ffffffff1660e01b81526004016116689190614693565b602060405180830381865afa158015611683573d5f803e3d5ffd5b505050506040513d601f19601f820116820180604052508101906116a79190614e24565b6116e6576040517f08c379a00000000000000000000000000000000000000000000000000000000081526004016116dd90614e99565b60405180910390fd5b6116ef81613b43565b61172e576040517f08c379a000000000000000000000000000000000000000000000000000000000815260040161172590614f01565b60405180910390fd5b811561185a575f61173f888861393d565b90505f8151036117eb575f60405180608001604052808a81526020018981526020018881526020018781525090508060048a60405161177e9190614c88565b90815260200160405180910390205f820151815f01908161179f91906150b3565b5060208201518160010190816117b591906150b3565b5060408201518160020190816117cb91906150b3565b5060608201518160030190816117e191906150b3565b509050505061181b565b846004896040516117fc9190614c88565b9081526020016040518091039020600301908161181991906150b3565b505b7fdcbee054614abcc01e0f309967e4aa7c728a916343a5bc683d76690561899cad888760405161184c929190615182565b60405180910390a150611b00565b60058760405161186a9190614c88565b90815260200160405180910390205f9054906101000a900460ff166118c4576040517f08c379a00000000000000000000000000000000000000000000000000000000081526004016118bb90614ce8565b60405180910390fd5b6003876040516118d49190614c88565b90815260200160405180910390206008016040516020016118f59190615237565b604051602081830303815290604052805190602001208360405160200161191c9190614c88565b6040516020818303038152906040528051906020012014611972576040517f08c379a000000000000000000000000000000000000000000000000000000000815260040161196990615297565b60405180910390fd5b856040516020016119839190614c88565b604051602081830303815290604052805190602001206004886040516119a99190614c88565b90815260200160405180910390206001016040516020016119ca9190615237565b60405160208183030381529060405280519060200120148015611a585750846040516020016119f99190614c88565b60405160208183030381529060405280519060200120600488604051611a1f9190614c88565b9081526020016040518091039020600201604051602001611a409190615237565b60405160208183030381529060405280519060200120145b611a97576040517f08c379a0000000000000000000000000000000000000000000000000000000008152600401611a8e906152ff565b60405180910390fd5b83600488604051611aa89190614c88565b90815260200160405180910390206003019081611ac591906150b3565b507fdcbee054614abcc01e0f309967e4aa7c728a916343a5bc683d76690561899cad8786604051611af7929190615182565b60405180910390a15b50505050505050565b611b11613abc565b611b1a5f613b75565b565b60015f9054906101000a900473ffffffffffffffffffffffffffffffffffffffff1673ffffffffffffffffffffffffffffffffffffffff16632330f247336040518263ffffffff1660e01b8152600401611b769190614693565b602060405180830381865afa158015611b91573d5f803e3d5ffd5b505050506040513d601f19601f82011682018060405250810190611bb59190614e24565b611bf4576040517f08c379a0000000000000000000000000000000000000000000000000000000008152600401611beb90614e99565b60405180910390fd5b600582604051611c049190614c88565b90815260200160405180910390205f9054906101000a900460ff16611c5e576040517f08c379a0000000000000000000000000000000000000000000000000000000008152600401611c5590615367565b60405180910390fd5b80600383604051611c6f9190614c88565b90815260200160405180910390206008019081611c8c91906150b3565b507f170881459f113ec5389013b2b605b62f79fe3a2a6c42c48b0c589c28838212748282604051611cbe929190615182565b60405180910390a15050565b60015f9054906101000a900473ffffffffffffffffffffffffffffffffffffffff1673ffffffffffffffffffffffffffffffffffffffff16632330f247336040518263ffffffff1660e01b8152600401611d249190614693565b602060405180830381865afa158015611d3f573d5f803e3d5ffd5b505050506040513d601f19601f82011682018060405250810190611d639190614e24565b611da2576040517f08c379a0000000000000000000000000000000000000000000000000000000008152600401611d9990614e99565b60405180910390fd5b611dab81613b43565b611dea576040517f08c379a0000000000000000000000000000000000000000000000000000000008152600401611de190614f01565b60405180910390fd5b5f611df5868661393d565b90505f815114611e3a576040517f08c379a0000000000000000000000000000000000000000000000000000000008152600401611e31906153cf565b60405180910390fd5b5f604051806080016040528088815260200187815260200186815260200185815250905080600488604051611e6f9190614c88565b90815260200160405180910390205f820151815f019081611e9091906150b3565b506020820151816001019081611ea691906150b3565b506040820151816002019081611ebc91906150b3565b506060820151816003019081611ed291906150b3565b509050507fdcbee054614abcc01e0f309967e4aa7c728a916343a5bc683d76690561899cad8786604051611f07929190615182565b60405180910390a150505050505050565b60606007805490508210611f61576040517f08c379a0000000000000000000000000000000000000000000000000000000008152600401611f5890615437565b60405180910390fd5b60078281548110611f7557611f74615455565b5b905f5260205f20018054611f8890614c1e565b80601f0160208091040260200160405190810160405280929190818152602001828054611fb490614c1e565b8015611fff5780601f10611fd657610100808354040283529160200191611fff565b820191905f5260205f20905b815481529060010190602001808311611fe257829003601f168201915b50505050509050919050565b5f805f9054906101000a900473ffffffffffffffffffffffffffffffffffffffff16905090565b60015f9054906101000a900473ffffffffffffffffffffffffffffffffffffffff1681565b60078181548110612066575f80fd5b905f5260205f20015f91509050805461207e90614c1e565b80601f01602080910402602001604051908101604052809291908181526020018280546120aa90614c1e565b80156120f55780601f106120cc576101008083540402835291602001916120f5565b820191905f5260205f20905b8154815290600101906020018083116120d857829003601f168201915b505050505081565b60015f9054906101000a900473ffffffffffffffffffffffffffffffffffffffff1673ffffffffffffffffffffffffffffffffffffffff16632330f247336040518263ffffffff1660e01b81526004016121579190614693565b602060405180830381865afa158015612172573d5f803e3d5ffd5b505050506040513d601f19601f820116820180604052508101906121969190614e24565b6121d5576040517f08c379a00000000000000000000000000000000000000000000000000000000081526004016121cc90614e99565b60405180910390fd5b6005876040516121e59190614c88565b90815260200160405180910390205f9054906101000a900460ff1661223f576040517f08c379a000000000000000000000000000000000000000000000000000000000815260040161223690615367565b60405180910390fd5b61224881613b43565b612287576040517f08c379a000000000000000000000000000000000000000000000000000000000815260040161227e90614f01565b60405180910390fd5b5f6003886040516122989190614c88565b908152602001604051809103902090505f875111156122c35786815f0190816122c191906150b3565b505b5f865111156122df57858160010190816122dd91906150b3565b505b5f855111156122fb57848160030190816122f991906150b3565b505b5f84511115612317578381600401908161231591906150b3565b505b5f83511115612333578281600501908161233191906150b3565b505b7f27043f7352f820770c3d4dd525f578705f863921193c72da88af575d356cb48188888360070160405161236993929190615503565b60405180910390a15050505050505050565b612383613cef565b6005846040516123939190614c88565b90815260200160405180910390205f9054906101000a900460ff166123ed576040517f08c379a00000000000000000000000000000000000000000000000000000000081526004016123e490614ce8565b60405180910390fd5b6003846040516123fd9190614c88565b908152602001604051809103902060070160405160200161241e9190615237565b60405160208183030381529060405280519060200120826040516020016124459190614c88565b604051602081830303815290604052805190602001201461249b576040517f08c379a000000000000000000000000000000000000000000000000000000000815260040161249290615597565b60405180910390fd5b6003846040516124ab9190614c88565b90815260200160405180910390206008016040516020016124cc9190615237565b60405160208183030381529060405280519060200120836040516020016124f39190614c88565b6040516020818303038152906040528051906020012014612549576040517f08c379a000000000000000000000000000000000000000000000000000000000815260040161254090615297565b60405180910390fd5b6004846040516125599190614c88565b90815260200160405180910390206040518060800160405290815f8201805461258190614c1e565b80601f01602080910402602001604051908101604052809291908181526020018280546125ad90614c1e565b80156125f85780601f106125cf576101008083540402835291602001916125f8565b820191905f5260205f20905b8154815290600101906020018083116125db57829003601f168201915b5050505050815260200160018201805461261190614c1e565b80601f016020809104026020016040519081016040528092919081815260200182805461263d90614c1e565b80156126885780601f1061265f57610100808354040283529160200191612688565b820191905f5260205f20905b81548152906001019060200180831161266b57829003601f168201915b505050505081526020016002820180546126a190614c1e565b80601f01602080910402602001604051908101604052809291908181526020018280546126cd90614c1e565b80156127185780601f106126ef57610100808354040283529160200191612718565b820191905f5260205f20905b8154815290600101906020018083116126fb57829003601f168201915b5050505050815260200160038201805461273190614c1e565b80601f016020809104026020016040519081016040528092919081815260200182805461275d90614c1e565b80156127a85780601f1061277f576101008083540402835291602001916127a8565b820191905f5260205f20905b81548152906001019060200180831161278b57829003601f168201915b50505050508152505090509392505050565b6003818051602081018201805184825260208301602085012081835280955050505050505f91509050805f0180546127f190614c1e565b80601f016020809104026020016040519081016040528092919081815260200182805461281d90614c1e565b80156128685780601f1061283f57610100808354040283529160200191612868565b820191905f5260205f20905b81548152906001019060200180831161284b57829003601f168201915b50505050509080600101805461287d90614c1e565b80601f01602080910402602001604051908101604052809291908181526020018280546128a990614c1e565b80156128f45780601f106128cb576101008083540402835291602001916128f4565b820191905f5260205f20905b8154815290600101906020018083116128d757829003601f168201915b50505050509080600201805461290990614c1e565b80601f016020809104026020016040519081016040528092919081815260200182805461293590614c1e565b80156129805780601f1061295757610100808354040283529160200191612980565b820191905f5260205f20905b81548152906001019060200180831161296357829003601f168201915b50505050509080600301805461299590614c1e565b80601f01602080910402602001604051908101604052809291908181526020018280546129c190614c1e565b8015612a0c5780601f106129e357610100808354040283529160200191612a0c565b820191905f5260205f20905b8154815290600101906020018083116129ef57829003601f168201915b505050505090806004018054612a2190614c1e565b80601f0160208091040260200160405190810160405280929190818152602001828054612a4d90614c1e565b8015612a985780601f10612a6f57610100808354040283529160200191612a98565b820191905f5260205f20905b815481529060010190602001808311612a7b57829003601f168201915b505050505090806005018054612aad90614c1e565b80601f0160208091040260200160405190810160405280929190818152602001828054612ad990614c1e565b8015612b245780601f10612afb57610100808354040283529160200191612b24565b820191905f5260205f20905b815481529060010190602001808311612b0757829003601f168201915b505050505090806006018054612b3990614c1e565b80601f0160208091040260200160405190810160405280929190818152602001828054612b6590614c1e565b8015612bb05780601f10612b8757610100808354040283529160200191612bb0565b820191905f5260205f20905b815481529060010190602001808311612b9357829003601f168201915b505050505090806007018054612bc590614c1e565b80601f0160208091040260200160405190810160405280929190818152602001828054612bf190614c1e565b8015612c3c5780601f10612c1357610100808354040283529160200191612c3c565b820191905f5260205f20905b815481529060010190602001808311612c1f57829003601f168201915b505050505090806008018054612c5190614c1e565b80601f0160208091040260200160405190810160405280929190818152602001828054612c7d90614c1e565b8015612cc85780601f10612c9f57610100808354040283529160200191612cc8565b820191905f5260205f20905b815481529060010190602001808311612cab57829003601f168201915b505050505090806009018054612cdd90614c1e565b80601f0160208091040260200160405190810160405280929190818152602001828054612d0990614c1e565b8015612d545780601f10612d2b57610100808354040283529160200191612d54565b820191905f5260205f20905b815481529060010190602001808311612d3757829003601f168201915b50505050509080600a018054612d6990614c1e565b80601f0160208091040260200160405190810160405280929190818152602001828054612d9590614c1e565b8015612de05780601f10612db757610100808354040283529160200191612de0565b820191905f5260205f20905b815481529060010190602001808311612dc357829003601f168201915b505050505090508b565b600585604051612dfa9190614c88565b90815260200160405180910390205f9054906101000a900460ff1615612e55576040517f08c379a0000000000000000000000000000000000000000000000000000000008152600401612e4c906155ff565b60405180910390fd5b600684604051612e659190614c88565b90815260200160405180910390205f9054906101000a900460ff1615612ec0576040517f08c379a0000000000000000000000000000000000000000000000000000000008152600401612eb79061568d565b60405180910390fd5b5f612ecb868b61393d565b90505f81511115612eda578092505b5f6040518061016001604052808e81526020018d81526020018c81526020018a81526020018b815260200189815260200188815260200187815260200186815260200185815260200184815250905080600388604051612f3a9190614c88565b90815260200160405180910390205f820151815f019081612f5b91906150b3565b506020820151816001019081612f7191906150b3565b506040820151816002019081612f8791906150b3565b506060820151816003019081612f9d91906150b3565b506080820151816004019081612fb391906150b3565b5060a0820151816005019081612fc991906150b3565b5060c0820151816006019081612fdf91906150b3565b5060e0820151816007019081612ff591906150b3565b5061010082015181600801908161300c91906150b3565b5061012082015181600901908161302391906150b3565b5061014082015181600a01908161303a91906150b3565b5090505060016005886040516130509190614c88565b90815260200160405180910390205f6101000a81548160ff02191690831515021790555060016006876040516130869190614c88565b90815260200160405180910390205f6101000a81548160ff021916908315150217905550600787908060018154018082558091505060019003905f5260205f20015f9091909190915090816130db91906150b3565b5060015f9054906101000a900473ffffffffffffffffffffffffffffffffffffffff1673ffffffffffffffffffffffffffffffffffffffff166326defa73336040518263ffffffff1660e01b81526004016131369190614693565b5f604051808303815f87803b15801561314d575f80fd5b505af115801561315f573d5f803e3d5ffd5b505050507f27043f7352f820770c3d4dd525f578705f863921193c72da88af575d356cb481878e88604051613196939291906156ab565b60405180910390a150505050505050505050505050565b6131b5613c95565b6005826040516131c59190614c88565b90815260200160405180910390205f9054906101000a900460ff1661321f576040517f08c379a000000000000000000000000000000000000000000000000000000000815260040161321690615367565b60405180910390fd5b5f6003836040516132309190614c88565b9081526020016040518091039020604051806101600160405290815f8201805461325990614c1e565b80601f016020809104026020016040519081016040528092919081815260200182805461328590614c1e565b80156132d05780601f106132a7576101008083540402835291602001916132d0565b820191905f5260205f20905b8154815290600101906020018083116132b357829003601f168201915b505050505081526020016001820180546132e990614c1e565b80601f016020809104026020016040519081016040528092919081815260200182805461331590614c1e565b80156133605780601f1061333757610100808354040283529160200191613360565b820191905f5260205f20905b81548152906001019060200180831161334357829003601f168201915b5050505050815260200160028201805461337990614c1e565b80601f01602080910402602001604051908101604052809291908181526020018280546133a590614c1e565b80156133f05780601f106133c7576101008083540402835291602001916133f0565b820191905f5260205f20905b8154815290600101906020018083116133d357829003601f168201915b5050505050815260200160038201805461340990614c1e565b80601f016020809104026020016040519081016040528092919081815260200182805461343590614c1e565b80156134805780601f1061345757610100808354040283529160200191613480565b820191905f5260205f20905b81548152906001019060200180831161346357829003601f168201915b5050505050815260200160048201805461349990614c1e565b80601f01602080910402602001604051908101604052809291908181526020018280546134c590614c1e565b80156135105780601f106134e757610100808354040283529160200191613510565b820191905f5260205f20905b8154815290600101906020018083116134f357829003601f168201915b5050505050815260200160058201805461352990614c1e565b80601f016020809104026020016040519081016040528092919081815260200182805461355590614c1e565b80156135a05780601f10613577576101008083540402835291602001916135a0565b820191905f5260205f20905b81548152906001019060200180831161358357829003601f168201915b505050505081526020016006820180546135b990614c1e565b80601f01602080910402602001604051908101604052809291908181526020018280546135e590614c1e565b80156136305780601f1061360757610100808354040283529160200191613630565b820191905f5260205f20905b81548152906001019060200180831161361357829003601f168201915b5050505050815260200160078201805461364990614c1e565b80601f016020809104026020016040519081016040528092919081815260200182805461367590614c1e565b80156136c05780601f10613697576101008083540402835291602001916136c0565b820191905f5260205f20905b8154815290600101906020018083116136a357829003601f168201915b505050505081526020016008820180546136d990614c1e565b80601f016020809104026020016040519081016040528092919081815260200182805461370590614c1e565b80156137505780601f1061372757610100808354040283529160200191613750565b820191905f5260205f20905b81548152906001019060200180831161373357829003601f168201915b5050505050815260200160098201805461376990614c1e565b80601f016020809104026020016040519081016040528092919081815260200182805461379590614c1e565b80156137e05780601f106137b7576101008083540402835291602001916137e0565b820191905f5260205f20905b8154815290600101906020018083116137c357829003601f168201915b50505050508152602001600a820180546137f990614c1e565b80601f016020809104026020016040519081016040528092919081815260200182805461382590614c1e565b80156138705780601f1061384757610100808354040283529160200191613870565b820191905f5260205f20905b81548152906001019060200180831161385357829003601f168201915b505050505081525050905080915050919050565b61388c613abc565b5f73ffffffffffffffffffffffffffffffffffffffff168173ffffffffffffffffffffffffffffffffffffffff16036138fc575f6040517f1e4fbdf70000000000000000000000000000000000000000000000000000000081526004016138f39190614693565b60405180910390fd5b61390581613b75565b50565b6005818051602081018201805184825260208301602085012081835280955050505050505f915054906101000a900460ff1681565b60606139f06004846040516139529190614c88565b9081526020016040518091039020600101805461396e90614c1e565b80601f016020809104026020016040519081016040528092919081815260200182805461399a90614c1e565b80156139e55780601f106139bc576101008083540402835291602001916139e5565b820191905f5260205f20905b8154815290600101906020018083116139c857829003601f168201915b505050505083613c36565b15613aa457600483604051613a059190614c88565b90815260200160405180910390206002018054613a2190614c1e565b80601f0160208091040260200160405190810160405280929190818152602001828054613a4d90614c1e565b8015613a985780601f10613a6f57610100808354040283529160200191613a98565b820191905f5260205f20905b815481529060010190602001808311613a7b57829003601f168201915b50505050509050613ab6565b60405180602001604052805f81525090505b92915050565b613ac4613c8e565b73ffffffffffffffffffffffffffffffffffffffff16613ae261200b565b73ffffffffffffffffffffffffffffffffffffffff1614613b4157613b05613c8e565b6040517f118cdaa7000000000000000000000000000000000000000000000000000000008152600401613b389190614693565b60405180910390fd5b565b5f80613b4e836115cd565b90505f600254610100613b619190615722565b6001901b5f1b905080821092505050919050565b5f805f9054906101000a900473ffffffffffffffffffffffffffffffffffffffff169050815f806101000a81548173ffffffffffffffffffffffffffffffffffffffff021916908373ffffffffffffffffffffffffffffffffffffffff1602179055508173ffffffffffffffffffffffffffffffffffffffff168173ffffffffffffffffffffffffffffffffffffffff167f8be0079c531659141344cd1fd0a4f28419497f9722a3daafe3b4186f6b6457e060405160405180910390a35050565b5f81604051602001613c489190614c88565b6040516020818303038152906040528051906020012083604051602001613c6f9190614c88565b6040516020818303038152906040528051906020012014905092915050565b5f33905090565b60405180610160016040528060608152602001606081526020016060815260200160608152602001606081526020016060815260200160608152602001606081526020016060815260200160608152602001606081525090565b6040518060800160405280606081526020016060815260200160608152602001606081525090565b5f604051905090565b5f80fd5b5f80fd5b5f80fd5b5f80fd5b5f601f19601f8301169050919050565b7f4e487b71000000000000000000000000000000000000000000000000000000005f52604160045260245ffd5b613d7682613d30565b810181811067ffffffffffffffff82111715613d9557613d94613d40565b5b80604052505050565b5f613da7613d17565b9050613db38282613d6d565b919050565b5f67ffffffffffffffff821115613dd257613dd1613d40565b5b613ddb82613d30565b9050602081019050919050565b828183375f83830152505050565b5f613e08613e0384613db8565b613d9e565b905082815260208101848484011115613e2457613e23613d2c565b5b613e2f848285613de8565b509392505050565b5f82601f830112613e4b57613e4a613d28565b5b8135613e5b848260208601613df6565b91505092915050565b5f60208284031215613e7957613e78613d20565b5b5f82013567ffffffffffffffff811115613e9657613e95613d24565b5b613ea284828501613e37565b91505092915050565b5f81519050919050565b5f82825260208201905092915050565b5f5b83811015613ee2578082015181840152602081019050613ec7565b5f8484015250505050565b5f613ef782613eab565b613f018185613eb5565b9350613f11818560208601613ec5565b613f1a81613d30565b840191505092915050565b5f6080820190508181035f830152613f3d8187613eed565b90508181036020830152613f518186613eed565b90508181036040830152613f658185613eed565b90508181036060830152613f798184613eed565b905095945050505050565b5f8115159050919050565b613f9881613f84565b82525050565b5f602082019050613fb15f830184613f8f565b92915050565b5f819050919050565b613fc981613fb7565b82525050565b5f602082019050613fe25f830184613fc0565b92915050565b5f6020820190508181035f8301526140008184613eed565b905092915050565b5f806040838503121561401e5761401d613d20565b5b5f83013567ffffffffffffffff81111561403b5761403a613d24565b5b61404785828601613e37565b925050602083013567ffffffffffffffff81111561406857614067613d24565b5b61407485828601613e37565b9150509250929050565b5f6040820190506140915f830185613f8f565b81810360208301526140a38184613eed565b90509392505050565b5f805f606084860312156140c3576140c2613d20565b5b5f84013567ffffffffffffffff8111156140e0576140df613d24565b5b6140ec86828701613e37565b935050602084013567ffffffffffffffff81111561410d5761410c613d24565b5b61411986828701613e37565b925050604084013567ffffffffffffffff81111561413a57614139613d24565b5b61414686828701613e37565b9150509250925092565b5f82825260208201905092915050565b5f61416a82613eab565b6141748185614150565b9350614184818560208601613ec5565b61418d81613d30565b840191505092915050565b5f61016083015f8301518482035f8601526141b38282614160565b915050602083015184820360208601526141cd8282614160565b915050604083015184820360408601526141e78282614160565b915050606083015184820360608601526142018282614160565b9150506080830151848203608086015261421b8282614160565b91505060a083015184820360a08601526142358282614160565b91505060c083015184820360c086015261424f8282614160565b91505060e083015184820360e08601526142698282614160565b9150506101008301518482036101008601526142858282614160565b9150506101208301518482036101208601526142a18282614160565b9150506101408301518482036101408601526142bd8282614160565b9150508091505092915050565b5f6040820190508181035f8301526142e28185613eed565b905081810360208301526142f68184614198565b90509392505050565b5f608083015f8301518482035f8601526143198282614160565b915050602083015184820360208601526143338282614160565b9150506040830151848203604086015261434d8282614160565b915050606083015184820360608601526143678282614160565b9150508091505092915050565b5f6020820190508181035f83015261438c81846142ff565b905092915050565b61439d81613fb7565b81146143a7575f80fd5b50565b5f813590506143b881614394565b92915050565b5f602082840312156143d3576143d2613d20565b5b5f6143e0848285016143aa565b91505092915050565b5f819050919050565b6143fb816143e9565b82525050565b5f6020820190506144145f8301846143f2565b92915050565b61442381613f84565b811461442d575f80fd5b50565b5f8135905061443e8161441a565b92915050565b5f805f805f805f60e0888a03121561445f5761445e613d20565b5b5f88013567ffffffffffffffff81111561447c5761447b613d24565b5b6144888a828b01613e37565b975050602088013567ffffffffffffffff8111156144a9576144a8613d24565b5b6144b58a828b01613e37565b965050604088013567ffffffffffffffff8111156144d6576144d5613d24565b5b6144e28a828b01613e37565b955050606088013567ffffffffffffffff81111561450357614502613d24565b5b61450f8a828b01613e37565b945050608088013567ffffffffffffffff8111156145305761452f613d24565b5b61453c8a828b01613e37565b93505060a061454d8a828b01614430565b92505060c061455e8a828b016143aa565b91505092959891949750929550565b5f805f805f60a0868803121561458657614585613d20565b5b5f86013567ffffffffffffffff8111156145a3576145a2613d24565b5b6145af88828901613e37565b955050602086013567ffffffffffffffff8111156145d0576145cf613d24565b5b6145dc88828901613e37565b945050604086013567ffffffffffffffff8111156145fd576145fc613d24565b5b61460988828901613e37565b935050606086013567ffffffffffffffff81111561462a57614629613d24565b5b61463688828901613e37565b9250506080614647888289016143aa565b9150509295509295909350565b5f73ffffffffffffffffffffffffffffffffffffffff82169050919050565b5f61467d82614654565b9050919050565b61468d81614673565b82525050565b5f6020820190506146a65f830184614684565b92915050565b5f819050919050565b5f6146cf6146ca6146c584614654565b6146ac565b614654565b9050919050565b5f6146e0826146b5565b9050919050565b5f6146f1826146d6565b9050919050565b614701816146e7565b82525050565b5f60208201905061471a5f8301846146f8565b92915050565b5f805f805f805f60e0888a03121561473b5761473a613d20565b5b5f88013567ffffffffffffffff81111561475857614757613d24565b5b6147648a828b01613e37565b975050602088013567ffffffffffffffff81111561478557614784613d24565b5b6147918a828b01613e37565b965050604088013567ffffffffffffffff8111156147b2576147b1613d24565b5b6147be8a828b01613e37565b955050606088013567ffffffffffffffff8111156147df576147de613d24565b5b6147eb8a828b01613e37565b945050608088013567ffffffffffffffff81111561480c5761480b613d24565b5b6148188a828b01613e37565b93505060a088013567ffffffffffffffff81111561483957614838613d24565b5b6148458a828b01613e37565b92505060c06148568a828b016143aa565b91505092959891949750929550565b5f610160820190508181035f83015261487e818e613eed565b90508181036020830152614892818d613eed565b905081810360408301526148a6818c613eed565b905081810360608301526148ba818b613eed565b905081810360808301526148ce818a613eed565b905081810360a08301526148e28189613eed565b905081810360c08301526148f68188613eed565b905081810360e083015261490a8187613eed565b905081810361010083015261491f8186613eed565b90508181036101208301526149348185613eed565b90508181036101408301526149498184613eed565b90509c9b505050505050505050505050565b5f805f805f805f805f805f6101608c8e03121561497b5761497a613d20565b5b5f8c013567ffffffffffffffff81111561499857614997613d24565b5b6149a48e828f01613e37565b9b505060208c013567ffffffffffffffff8111156149c5576149c4613d24565b5b6149d18e828f01613e37565b9a505060408c013567ffffffffffffffff8111156149f2576149f1613d24565b5b6149fe8e828f01613e37565b99505060608c013567ffffffffffffffff811115614a1f57614a1e613d24565b5b614a2b8e828f01613e37565b98505060808c013567ffffffffffffffff811115614a4c57614a4b613d24565b5b614a588e828f01613e37565b97505060a08c013567ffffffffffffffff811115614a7957614a78613d24565b5b614a858e828f01613e37565b96505060c08c013567ffffffffffffffff811115614aa657614aa5613d24565b5b614ab28e828f01613e37565b95505060e08c013567ffffffffffffffff811115614ad357614ad2613d24565b5b614adf8e828f01613e37565b9450506101008c013567ffffffffffffffff811115614b0157614b00613d24565b5b614b0d8e828f01613e37565b9350506101208c013567ffffffffffffffff811115614b2f57614b2e613d24565b5b614b3b8e828f01613e37565b9250506101408c013567ffffffffffffffff811115614b5d57614b5c613d24565b5b614b698e828f01613e37565b9150509295989b509295989b9093969950565b5f6020820190508181035f830152614b948184614198565b905092915050565b614ba581614673565b8114614baf575f80fd5b50565b5f81359050614bc081614b9c565b92915050565b5f60208284031215614bdb57614bda613d20565b5b5f614be884828501614bb2565b91505092915050565b7f4e487b71000000000000000000000000000000000000000000000000000000005f52602260045260245ffd5b5f6002820490506001821680614c3557607f821691505b602082108103614c4857614c47614bf1565b5b50919050565b5f81905092915050565b5f614c6282613eab565b614c6c8185614c4e565b9350614c7c818560208601613ec5565b80840191505092915050565b5f614c938284614c58565b915081905092915050565b7f50617469656e74204e4943206973206e6f7420726567697374657265640000005f82015250565b5f614cd2601d83613eb5565b9150614cdd82614c9e565b602082019050919050565b5f6020820190508181035f830152614cff81614cc6565b9050919050565b7f496e76616c69642070617373776f7264000000000000000000000000000000005f82015250565b5f614d3a601083613eb5565b9150614d4582614d06565b602082019050919050565b5f6020820190508181035f830152614d6781614d2e565b9050919050565b7f496e76616c69642077616c6c65742061646472657373000000000000000000005f82015250565b5f614da2601683613eb5565b9150614dad82614d6e565b602082019050919050565b5f6020820190508181035f830152614dcf81614d96565b9050919050565b5f819050919050565b614df0614deb82613fb7565b614dd6565b82525050565b5f614e018284614ddf565b60208201915081905092915050565b5f81519050614e1e8161441a565b92915050565b5f60208284031215614e3957614e38613d20565b5b5f614e4684828501614e10565b91505092915050565b7f43616c6c6572206973206e6f7420616e20617574686f726974790000000000005f82015250565b5f614e83601a83613eb5565b9150614e8e82614e4f565b602082019050919050565b5f6020820190508181035f830152614eb081614e77565b9050919050565b7f506f572076616c69646174696f6e206661696c656400000000000000000000005f82015250565b5f614eeb601583613eb5565b9150614ef682614eb7565b602082019050919050565b5f6020820190508181035f830152614f1881614edf565b9050919050565b5f819050815f5260205f209050919050565b5f6020601f8301049050919050565b5f82821b905092915050565b5f60088302614f7b7fffffffffffffffffffffffffffffffffffffffffffffffffffffffffffffffff82614f40565b614f858683614f40565b95508019841693508086168417925050509392505050565b5f614fb7614fb2614fad84613fb7565b6146ac565b613fb7565b9050919050565b5f819050919050565b614fd083614f9d565b614fe4614fdc82614fbe565b848454614f4c565b825550505050565b5f90565b614ff8614fec565b615003818484614fc7565b505050565b5b818110156150265761501b5f82614ff0565b600181019050615009565b5050565b601f82111561506b5761503c81614f1f565b61504584614f31565b81016020851015615054578190505b61506861506085614f31565b830182615008565b50505b505050565b5f82821c905092915050565b5f61508b5f1984600802615070565b1980831691505092915050565b5f6150a3838361507c565b9150826002028217905092915050565b6150bc82613eab565b67ffffffffffffffff8111156150d5576150d4613d40565b5b6150df8254614c1e565b6150ea82828561502a565b5f60209050601f83116001811461511b575f8415615109578287015190505b6151138582615098565b86555061517a565b601f19841661512986614f1f565b5f5b828110156151505784890151825560018201915060208501945060208101905061512b565b8683101561516d5784890151615169601f89168261507c565b8355505b6001600288020188555050505b505050505050565b5f6040820190508181035f83015261519a8185613eed565b905081810360208301526151ae8184613eed565b90509392505050565b5f81546151c381614c1e565b6151cd8186614c4e565b9450600182165f81146151e757600181146151fc5761522e565b60ff198316865281151582028601935061522e565b61520585614f1f565b5f5b8381101561522657815481890152600182019150602081019050615207565b838801955050505b50505092915050565b5f61524282846151b7565b915081905092915050565b7f496e76616c696420746f6b656e000000000000000000000000000000000000005f82015250565b5f615281600d83613eb5565b915061528c8261524d565b602082019050919050565b5f6020820190508181035f8301526152ae81615275565b9050919050565b7f496e76616c6964206461746100000000000000000000000000000000000000005f82015250565b5f6152e9600c83613eb5565b91506152f4826152b5565b602082019050919050565b5f6020820190508181035f830152615316816152dd565b9050919050565b7f4e4943206973206e6f74207265676973746572656400000000000000000000005f82015250565b5f615351601583613eb5565b915061535c8261531d565b602082019050919050565b5f6020820190508181035f83015261537e81615345565b9050919050565b7f454d52206461746120616c7265616479206578697374730000000000000000005f82015250565b5f6153b9601783613eb5565b91506153c482615385565b602082019050919050565b5f6020820190508181035f8301526153e6816153ad565b9050919050565b7f496e646578206f7574206f6620626f756e6473000000000000000000000000005f82015250565b5f615421601383613eb5565b915061542c826153ed565b602082019050919050565b5f6020820190508181035f83015261544e81615415565b9050919050565b7f4e487b71000000000000000000000000000000000000000000000000000000005f52603260045260245ffd5b5f815461548e81614c1e565b6154988186613eb5565b9450600182165f81146154b257600181146154c8576154fa565b60ff1983168652811515602002860193506154fa565b6154d185614f1f565b5f5b838110156154f2578154818901526001820191506020810190506154d3565b808801955050505b50505092915050565b5f6060820190508181035f83015261551b8186613eed565b9050818103602083015261552f8185613eed565b905081810360408301526155438184615482565b9050949350505050565b7f4e6f7420617574686f72697a656420746f2061646420454d52206461746100005f82015250565b5f615581601e83613eb5565b915061558c8261554d565b602082019050919050565b5f6020820190508181035f8301526155ae81615575565b9050919050565b7f4e494320697320616c72656164792072656769737465726564000000000000005f82015250565b5f6155e9601983613eb5565b91506155f4826155b5565b602082019050919050565b5f6020820190508181035f830152615616816155dd565b9050919050565b7f57616c6c6574206164647265737320697320616c7265616479207265676973745f8201527f6572656400000000000000000000000000000000000000000000000000000000602082015250565b5f615677602483613eb5565b91506156828261561d565b604082019050919050565b5f6020820190508181035f8301526156a48161566b565b9050919050565b5f6060820190508181035f8301526156c38186613eed565b905081810360208301526156d78185613eed565b905081810360408301526156eb8184613eed565b9050949350505050565b7f4e487b71000000000000000000000000000000000000000000000000000000005f52601160045260245ffd5b5f61572c82613fb7565b915061573783613fb7565b925082820390508181111561574f5761574e6156f5565b5b9291505056fea2646970667358221220b06091a91bde3c0ac3ec61062050fd5aaf458b545dcbe4fb7defb3681f81b05c64736f6c63430008140033",
  "immutableReferences": {},
  "source": "// SPDX-License-Identifier: MIT \r\npragma solidity 0.8.20;\r\n\r\nimport \"@openzeppelin/contracts/access/Ownable.sol\";\r\nimport \"./AuthorityRegistry.sol\";\r\n\r\ncontract PatientEMRStorage is Ownable {\r\n    AuthorityRegistry public authorityRegistry;\r\n    uint256 public difficulty = 5;\r\n\r\n    constructor(address _authorityRegistryAddress) Ownable(_authorityRegistryAddress) {\r\n        authorityRegistry = AuthorityRegistry(_authorityRegistryAddress);\r\n    }\r\n\r\n    modifier onlyAuthority() {\r\n        require(authorityRegistry.isAuthority(msg.sender), \"Caller is not an authority\");\r\n        _;\r\n    }\r\n\r\n    struct Patient {\r\n        string name;\r\n        string homeAddress;\r\n        string dob;\r\n        string telephone;\r\n        string email;\r\n        string password;\r\n        string nic;\r\n        string walletAddress;\r\n        string token;\r\n        string noRekamMedis;\r\n        string urlKTP;\r\n    }\r\n\r\n    struct EMR {\r\n        string patientNic;\r\n        string dob;\r\n        string noRekamMedis;\r\n        string medicalRecord;\r\n    }\r\n\r\n    mapping(string => Patient) public patients;\r\n    mapping(string => EMR) public emrRecords;\r\n    mapping(string => bool) public isNICRegistered;\r\n    mapping(string => bool) public isWalletRegistered;\r\n    string[] public registeredNICs;\r\n\r\n    event PatientRegistered(string nic, string name, string walletAddress);\r\n    event EMRRecordUpdated(string patientNic, string noRekamMedis);\r\n    event PatientTokenUpdated(string nic, string newToken);\r\n\r\n    function mine(uint256 nonce) public pure returns (bytes32) {\r\n        return keccak256(abi.encodePacked(nonce));\r\n    }\r\n\r\n    function checkProofOfWork(uint256 nonce) internal view returns (bool) {\r\n        bytes32 hash = mine(nonce);\r\n        bytes32 target = bytes32(uint256(1) << (256 - difficulty));\r\n\r\n        return hash < target;\r\n    }\r\n\r\n    function setDifficulty(uint256 _difficulty) external onlyOwner {\r\n        difficulty = _difficulty;\r\n    }\r\n    \r\n    //Patient\r\n    function registerPatient(\r\n        string memory name,\r\n        string memory homeAddress,\r\n        string memory dob,\r\n        string memory email,\r\n        string memory telephone,\r\n        string memory password,\r\n        string memory nic,\r\n        string memory walletAddress,\r\n        string memory token,\r\n        string memory noRekamMedis,\r\n        string memory urlKTP\r\n    ) public {\r\n        require(!isNICRegistered[nic], \"NIC is already registered\");\r\n        require(!isWalletRegistered[walletAddress], \"Wallet address is already registered\");\r\n        \r\n        string memory existingNoRekamMedis = getEMRNoRekamMedis(nic, dob);\r\n        if (bytes(existingNoRekamMedis).length > 0) {\r\n            noRekamMedis = existingNoRekamMedis;\r\n        }\r\n\r\n        Patient memory newPatient = Patient({\r\n            name: name,\r\n            homeAddress: homeAddress,\r\n            dob: dob,\r\n            email: email,\r\n            telephone: telephone,\r\n            password: password,\r\n            nic: nic,\r\n            walletAddress: walletAddress,\r\n            token: token,\r\n            noRekamMedis: noRekamMedis,\r\n            urlKTP: urlKTP\r\n        });\r\n\r\n        patients[nic] = newPatient;\r\n        isNICRegistered[nic] = true;\r\n        isWalletRegistered[walletAddress] = true;\r\n        registeredNICs.push(nic);\r\n\r\n        authorityRegistry.addAuthority(msg.sender);\r\n        emit PatientRegistered(nic, name, walletAddress);\r\n\r\n    }\r\n\r\n    function updatePatientData(\r\n        string memory nic,\r\n        string memory newName,\r\n        string memory newHomeAddress,\r\n        string memory newTelephone,\r\n        string memory newEmail,\r\n        string memory newPassword,\r\n        uint256 nonce\r\n    ) public onlyAuthority {\r\n        require(isNICRegistered[nic], \"NIC is not registered\");\r\n        require(checkProofOfWork(nonce), \"PoW validation failed\");\r\n\r\n        Patient storage patient = patients[nic];\r\n        if (bytes(newName).length > 0) {\r\n            patient.name = newName;\r\n        }\r\n        if (bytes(newHomeAddress).length > 0) {\r\n            patient.homeAddress = newHomeAddress;\r\n        }\r\n        if (bytes(newTelephone).length > 0) {\r\n            patient.telephone = newTelephone;\r\n        }\r\n        if (bytes(newEmail).length > 0) {\r\n            patient.email = newEmail;\r\n        }\r\n        if (bytes(newPassword).length > 0) {\r\n            patient.password = newPassword;\r\n        }\r\n\r\n        emit PatientRegistered(nic, newName, patient.walletAddress);\r\n    }\r\n\r\n    function updatePatientToken(string memory nic, string memory newToken) public onlyAuthority {\r\n        require(isNICRegistered[nic], \"NIC is not registered\");\r\n        patients[nic].token = newToken;\r\n        emit PatientTokenUpdated(nic, newToken);\r\n    }\r\n\r\n    function getPatientDetails(string memory nic) public view returns (Patient memory) {\r\n        require(isNICRegistered[nic], \"NIC is not registered\");\r\n        Patient memory patient = patients[nic];\r\n        return patient;\r\n    }\r\n\r\n    function isNICAlreadyRegistered(string memory nic) public view returns (bool) {\r\n        return isNICRegistered[nic];\r\n    }\r\n\r\n    function validateLogin(\r\n        string memory nic,\r\n        string memory password,\r\n        string memory walletAddress\r\n    ) public view returns (string memory message, Patient memory patientData) {\r\n        if (isNICRegistered[nic]) {\r\n            Patient memory patient = patients[nic];\r\n\r\n        require(\r\n            keccak256(abi.encodePacked(password)) == keccak256(abi.encodePacked(patient.password)),\r\n            \"Invalid password\"\r\n        );\r\n        require(\r\n            keccak256(abi.encodePacked(walletAddress)) == keccak256(abi.encodePacked(patient.walletAddress)),\r\n            \"Invalid wallet address\"\r\n        );\r\n\r\n        message = \"Login Successfully\";\r\n        patientData = Patient({\r\n            name: patient.name,\r\n            homeAddress: patient.homeAddress,\r\n            dob: patient.dob,\r\n            email: patient.email,\r\n            telephone: patient.telephone,\r\n            password: patient.password,\r\n            nic: patient.nic,\r\n            walletAddress: patient.walletAddress,\r\n            token: patient.token,\r\n            noRekamMedis: patient.noRekamMedis,\r\n            urlKTP: patient.urlKTP\r\n        });\r\n        } else {\r\n            message = \"NIC not registered\";\r\n            patientData = Patient(\"\", \"\", \"\", \"\", \"\", \"\", \"\", \"\", \"\", \"\", \"\");\r\n        }\r\n    }\r\n\r\n    // EMR\r\n    function addEMRData(\r\n        string memory patientNic,\r\n        string memory dob,\r\n        string memory noRekamMedis,\r\n        string memory medicalRecord,\r\n        uint256 nonce\r\n    ) public onlyAuthority{  \r\n        require(checkProofOfWork(nonce), \"PoW validation failed\");\r\n        string memory existingNoRekamMedis = getEMRNoRekamMedis(patientNic, dob);\r\n        require(bytes(existingNoRekamMedis).length == 0, \"EMR data already exists\");\r\n\r\n        EMR memory newEMR = EMR({\r\n            patientNic: patientNic,\r\n            dob: dob,\r\n            noRekamMedis: noRekamMedis,\r\n            medicalRecord: medicalRecord\r\n        });\r\n\r\n        emrRecords[patientNic] = newEMR;\r\n\r\n        emit EMRRecordUpdated(patientNic, noRekamMedis);\r\n    }\r\n\r\n    function isEMRDataExist(string memory patientNic, string memory dob) public view returns (bool, string memory) {\r\n        string memory existingNoRekamMedis = getEMRNoRekamMedis(patientNic, dob);\r\n        if (bytes(existingNoRekamMedis).length > 0) {\r\n            return (true, existingNoRekamMedis);\r\n        } else {\r\n            return (false, \"\");\r\n        }\r\n    }\r\n    \r\n    function getEMRData(string memory patientNic, string memory token, string memory patientWalletAddress) public view returns (EMR memory) {\r\n        require(isNICRegistered[patientNic], \"Patient NIC is not registered\");\r\n        require(keccak256(abi.encodePacked(patientWalletAddress)) == keccak256(abi.encodePacked(patients[patientNic].walletAddress)), \"Not authorized to add EMR data\");\r\n        require(keccak256(abi.encodePacked(token)) == keccak256(abi.encodePacked(patients[patientNic].token)),\"Invalid token\");\r\n\r\n        return emrRecords[patientNic];\r\n    }\r\n\r\n    function doctorGetEMRData(string memory patientNic) public view returns (EMR memory) {\r\n        return emrRecords[patientNic];\r\n    }\r\n\r\n    function updateEMRData(\r\n        string memory patientNic,\r\n        string memory dob,\r\n        string memory noRekamMedis,\r\n        string memory medicalRecord,\r\n        string memory token,\r\n        bool isValidated,\r\n        uint256 nonce\r\n    ) public onlyAuthority {\r\n        require(checkProofOfWork(nonce), \"PoW validation failed\");\r\n\r\n        if (isValidated)\r\n        {\r\n            string memory existingNoRekamMedis = getEMRNoRekamMedis(patientNic, dob);\r\n\r\n            if (bytes(existingNoRekamMedis).length == 0) {\r\n                EMR memory newEMR = EMR({\r\n                    patientNic: patientNic,\r\n                    dob: dob,\r\n                    noRekamMedis: noRekamMedis,\r\n                    medicalRecord: medicalRecord\r\n                });\r\n                emrRecords[patientNic] = newEMR;\r\n            } else {\r\n                emrRecords[patientNic].medicalRecord = medicalRecord;\r\n            }\r\n\r\n            emit EMRRecordUpdated(patientNic, noRekamMedis);\r\n        }\r\n        else \r\n        {\r\n            require(isNICRegistered[patientNic], \"Patient NIC is not registered\");\r\n            require(\r\n                    keccak256(abi.encodePacked(token)) == keccak256(abi.encodePacked(patients[patientNic].token)),\r\n                    \"Invalid token\"\r\n                );\r\n                require(\r\n                    keccak256(abi.encodePacked(emrRecords[patientNic].dob)) == keccak256(abi.encodePacked(dob)) &&\r\n                    keccak256(abi.encodePacked(emrRecords[patientNic].noRekamMedis)) == keccak256(abi.encodePacked(noRekamMedis)),\r\n                    \"Invalid data\"\r\n                );\r\n            emrRecords[patientNic].medicalRecord = medicalRecord;\r\n            emit EMRRecordUpdated(patientNic, noRekamMedis);\r\n        }\r\n    }\r\n\r\n    function getPatientWalletAddress(string memory patientNic) external view returns (string memory) {\r\n        require(isNICRegistered[patientNic], \"Patient NIC is not registered\");\r\n        return patients[patientNic].walletAddress;\r\n    }\r\n\r\n    function getRegisteredNICsCount() public view returns (uint256) {\r\n        return registeredNICs.length;\r\n    }\r\n\r\n    function getRegisteredNICAtIndex(uint256 index) public view returns (string memory) {\r\n        require(index < registeredNICs.length, \"Index out of bounds\");\r\n        return registeredNICs[index];\r\n    }\r\n\r\n    function getEMRNoRekamMedis(string memory nic, string memory dob) internal view returns (string memory) {\r\n        if (compareStrings(emrRecords[nic].dob, dob)) {\r\n            return emrRecords[nic].noRekamMedis;\r\n        }\r\n        return \"\";\r\n    }\r\n\r\n    function compareStrings(string memory a, string memory b) internal pure returns (bool) {\r\n        return keccak256(abi.encodePacked(a)) == keccak256(abi.encodePacked(b));\r\n    }\r\n    \r\n}",
  "sourcePath": "C:\\Users\\avjc2\\Documents\\S2 BINUS\\THESIS\\BLOCKCHAIN\\APPLICATIONS\\EMRIHsystem\\EMR-IH_smart_contracts\\contracts\\PatientEMRStorage.sol",
  "compiler": {
    "name": "solc",
    "version": "0.8.20+commit.a1b79de6.Emscripten.clang"
  },
  "schemaVersion": "3.4.16",
  "updatedAt": "2024-02-14T08:28:35.951Z",
  "devdoc": {
    "errors": {
      "OwnableInvalidOwner(address)": [
        {
          "details": "The owner is not a valid owner account. (eg. `address(0)`)"
        }
      ],
      "OwnableUnauthorizedAccount(address)": [
        {
          "details": "The caller account is not authorized to perform an operation."
        }
      ]
    },
    "kind": "dev",
    "methods": {
      "owner()": {
        "details": "Returns the address of the current owner."
      },
      "renounceOwnership()": {
        "details": "Leaves the contract without owner. It will not be possible to call `onlyOwner` functions. Can only be called by the current owner. NOTE: Renouncing ownership will leave the contract without an owner, thereby disabling any functionality that is only available to the owner."
      },
      "transferOwnership(address)": {
        "details": "Transfers ownership of the contract to a new account (`newOwner`). Can only be called by the current owner."
      }
    },
    "version": 1
  },
  "userdoc": {
    "kind": "user",
    "methods": {},
    "version": 1
  }
}