{
  "contractName": "PatientEMR",
  "abi": [
    {
      "inputs": [],
      "stateMutability": "nonpayable",
      "type": "constructor"
    },
    {
      "anonymous": false,
      "inputs": [
        {
          "indexed": false,
          "internalType": "string",
          "name": "patientNic",
          "type": "string"
        },
        {
          "indexed": false,
          "internalType": "string",
          "name": "noRekamMedis",
          "type": "string"
        }
      ],
      "name": "EMRRecordUpdated",
      "type": "event"
    },
    {
      "anonymous": false,
      "inputs": [
        {
          "indexed": false,
          "internalType": "string",
          "name": "nic",
          "type": "string"
        },
        {
          "indexed": false,
          "internalType": "string",
          "name": "name",
          "type": "string"
        },
        {
          "indexed": false,
          "internalType": "string",
          "name": "walletAddress",
          "type": "string"
        }
      ],
      "name": "PatientRegistered",
      "type": "event"
    },
    {
      "anonymous": false,
      "inputs": [
        {
          "indexed": false,
          "internalType": "string",
          "name": "nic",
          "type": "string"
        },
        {
          "indexed": false,
          "internalType": "string",
          "name": "newToken",
          "type": "string"
        }
      ],
      "name": "PatientTokenUpdated",
      "type": "event"
    },
    {
      "inputs": [
        {
          "internalType": "string",
          "name": "",
          "type": "string"
        }
      ],
      "name": "emrRecords",
      "outputs": [
        {
          "internalType": "string",
          "name": "patientNic",
          "type": "string"
        },
        {
          "internalType": "string",
          "name": "dob",
          "type": "string"
        },
        {
          "internalType": "string",
          "name": "noRekamMedis",
          "type": "string"
        },
        {
          "internalType": "string",
          "name": "medicalRecord",
          "type": "string"
        }
      ],
      "stateMutability": "view",
      "type": "function",
      "constant": true
    },
    {
      "inputs": [
        {
          "internalType": "string",
          "name": "",
          "type": "string"
        }
      ],
      "name": "isNICRegistered",
      "outputs": [
        {
          "internalType": "bool",
          "name": "",
          "type": "bool"
        }
      ],
      "stateMutability": "view",
      "type": "function",
      "constant": true
    },
    {
      "inputs": [
        {
          "internalType": "string",
          "name": "",
          "type": "string"
        }
      ],
      "name": "isWalletRegistered",
      "outputs": [
        {
          "internalType": "bool",
          "name": "",
          "type": "bool"
        }
      ],
      "stateMutability": "view",
      "type": "function",
      "constant": true
    },
    {
      "inputs": [],
      "name": "owner",
      "outputs": [
        {
          "internalType": "address",
          "name": "",
          "type": "address"
        }
      ],
      "stateMutability": "view",
      "type": "function",
      "constant": true
    },
    {
      "inputs": [
        {
          "internalType": "string",
          "name": "",
          "type": "string"
        }
      ],
      "name": "patients",
      "outputs": [
        {
          "internalType": "string",
          "name": "name",
          "type": "string"
        },
        {
          "internalType": "string",
          "name": "homeAddress",
          "type": "string"
        },
        {
          "internalType": "string",
          "name": "dob",
          "type": "string"
        },
        {
          "internalType": "string",
          "name": "telephone",
          "type": "string"
        },
        {
          "internalType": "string",
          "name": "email",
          "type": "string"
        },
        {
          "internalType": "string",
          "name": "password",
          "type": "string"
        },
        {
          "internalType": "string",
          "name": "nic",
          "type": "string"
        },
        {
          "internalType": "string",
          "name": "walletAddress",
          "type": "string"
        },
        {
          "internalType": "string",
          "name": "token",
          "type": "string"
        },
        {
          "internalType": "string",
          "name": "noRekamMedis",
          "type": "string"
        },
        {
          "internalType": "string",
          "name": "urlKTP",
          "type": "string"
        }
      ],
      "stateMutability": "view",
      "type": "function",
      "constant": true
    },
    {
      "inputs": [
        {
          "internalType": "uint256",
          "name": "",
          "type": "uint256"
        }
      ],
      "name": "registeredNICs",
      "outputs": [
        {
          "internalType": "string",
          "name": "",
          "type": "string"
        }
      ],
      "stateMutability": "view",
      "type": "function",
      "constant": true
    },
    {
      "inputs": [
        {
          "internalType": "string",
          "name": "name",
          "type": "string"
        },
        {
          "internalType": "string",
          "name": "homeAddress",
          "type": "string"
        },
        {
          "internalType": "string",
          "name": "dob",
          "type": "string"
        },
        {
          "internalType": "string",
          "name": "email",
          "type": "string"
        },
        {
          "internalType": "string",
          "name": "telephone",
          "type": "string"
        },
        {
          "internalType": "string",
          "name": "password",
          "type": "string"
        },
        {
          "internalType": "string",
          "name": "nic",
          "type": "string"
        },
        {
          "internalType": "string",
          "name": "walletAddress",
          "type": "string"
        },
        {
          "internalType": "string",
          "name": "token",
          "type": "string"
        },
        {
          "internalType": "string",
          "name": "noRekamMedis",
          "type": "string"
        },
        {
          "internalType": "string",
          "name": "urlKTP",
          "type": "string"
        }
      ],
      "name": "registerPatient",
      "outputs": [],
      "stateMutability": "nonpayable",
      "type": "function"
    },
    {
      "inputs": [
        {
          "internalType": "string",
          "name": "nic",
          "type": "string"
        },
        {
          "internalType": "string",
          "name": "newName",
          "type": "string"
        },
        {
          "internalType": "string",
          "name": "newHomeAddress",
          "type": "string"
        },
        {
          "internalType": "string",
          "name": "newTelephone",
          "type": "string"
        },
        {
          "internalType": "string",
          "name": "newEmail",
          "type": "string"
        },
        {
          "internalType": "string",
          "name": "newPassword",
          "type": "string"
        },
        {
          "internalType": "string",
          "name": "patientWalletAddress",
          "type": "string"
        }
      ],
      "name": "updatePatientData",
      "outputs": [],
      "stateMutability": "nonpayable",
      "type": "function"
    },
    {
      "inputs": [
        {
          "internalType": "string",
          "name": "nic",
          "type": "string"
        },
        {
          "internalType": "string",
          "name": "newToken",
          "type": "string"
        },
        {
          "internalType": "string",
          "name": "patientWalletAddress",
          "type": "string"
        }
      ],
      "name": "updatePatientToken",
      "outputs": [],
      "stateMutability": "nonpayable",
      "type": "function"
    },
    {
      "inputs": [
        {
          "internalType": "string",
          "name": "nic",
          "type": "string"
        }
      ],
      "name": "getPatientDetails",
      "outputs": [
        {
          "components": [
            {
              "internalType": "string",
              "name": "name",
              "type": "string"
            },
            {
              "internalType": "string",
              "name": "homeAddress",
              "type": "string"
            },
            {
              "internalType": "string",
              "name": "dob",
              "type": "string"
            },
            {
              "internalType": "string",
              "name": "telephone",
              "type": "string"
            },
            {
              "internalType": "string",
              "name": "email",
              "type": "string"
            },
            {
              "internalType": "string",
              "name": "password",
              "type": "string"
            },
            {
              "internalType": "string",
              "name": "nic",
              "type": "string"
            },
            {
              "internalType": "string",
              "name": "walletAddress",
              "type": "string"
            },
            {
              "internalType": "string",
              "name": "token",
              "type": "string"
            },
            {
              "internalType": "string",
              "name": "noRekamMedis",
              "type": "string"
            },
            {
              "internalType": "string",
              "name": "urlKTP",
              "type": "string"
            }
          ],
          "internalType": "struct PatientEMR.Patient",
          "name": "",
          "type": "tuple"
        }
      ],
      "stateMutability": "view",
      "type": "function",
      "constant": true
    },
    {
      "inputs": [],
      "name": "getAllPatients",
      "outputs": [
        {
          "components": [
            {
              "internalType": "string",
              "name": "name",
              "type": "string"
            },
            {
              "internalType": "string",
              "name": "homeAddress",
              "type": "string"
            },
            {
              "internalType": "string",
              "name": "dob",
              "type": "string"
            },
            {
              "internalType": "string",
              "name": "telephone",
              "type": "string"
            },
            {
              "internalType": "string",
              "name": "email",
              "type": "string"
            },
            {
              "internalType": "string",
              "name": "password",
              "type": "string"
            },
            {
              "internalType": "string",
              "name": "nic",
              "type": "string"
            },
            {
              "internalType": "string",
              "name": "walletAddress",
              "type": "string"
            },
            {
              "internalType": "string",
              "name": "token",
              "type": "string"
            },
            {
              "internalType": "string",
              "name": "noRekamMedis",
              "type": "string"
            },
            {
              "internalType": "string",
              "name": "urlKTP",
              "type": "string"
            }
          ],
          "internalType": "struct PatientEMR.Patient[]",
          "name": "",
          "type": "tuple[]"
        }
      ],
      "stateMutability": "view",
      "type": "function",
      "constant": true
    },
    {
      "inputs": [
        {
          "internalType": "string",
          "name": "nic",
          "type": "string"
        }
      ],
      "name": "isNICAlreadyRegistered",
      "outputs": [
        {
          "internalType": "bool",
          "name": "",
          "type": "bool"
        }
      ],
      "stateMutability": "view",
      "type": "function",
      "constant": true
    },
    {
      "inputs": [
        {
          "internalType": "string",
          "name": "nic",
          "type": "string"
        },
        {
          "internalType": "string",
          "name": "password",
          "type": "string"
        },
        {
          "internalType": "string",
          "name": "walletAddress",
          "type": "string"
        }
      ],
      "name": "validateLogin",
      "outputs": [
        {
          "internalType": "string",
          "name": "message",
          "type": "string"
        },
        {
          "components": [
            {
              "internalType": "string",
              "name": "name",
              "type": "string"
            },
            {
              "internalType": "string",
              "name": "homeAddress",
              "type": "string"
            },
            {
              "internalType": "string",
              "name": "dob",
              "type": "string"
            },
            {
              "internalType": "string",
              "name": "telephone",
              "type": "string"
            },
            {
              "internalType": "string",
              "name": "email",
              "type": "string"
            },
            {
              "internalType": "string",
              "name": "password",
              "type": "string"
            },
            {
              "internalType": "string",
              "name": "nic",
              "type": "string"
            },
            {
              "internalType": "string",
              "name": "walletAddress",
              "type": "string"
            },
            {
              "internalType": "string",
              "name": "token",
              "type": "string"
            },
            {
              "internalType": "string",
              "name": "noRekamMedis",
              "type": "string"
            },
            {
              "internalType": "string",
              "name": "urlKTP",
              "type": "string"
            }
          ],
          "internalType": "struct PatientEMR.Patient",
          "name": "patientData",
          "type": "tuple"
        }
      ],
      "stateMutability": "view",
      "type": "function",
      "constant": true
    },
    {
      "inputs": [
        {
          "internalType": "string",
          "name": "patientNic",
          "type": "string"
        },
        {
          "internalType": "string",
          "name": "dob",
          "type": "string"
        },
        {
          "internalType": "string",
          "name": "noRekamMedis",
          "type": "string"
        },
        {
          "internalType": "string",
          "name": "medicalRecord",
          "type": "string"
        },
        {
          "internalType": "string",
          "name": "patientWalletAddress",
          "type": "string"
        }
      ],
      "name": "addEMRData",
      "outputs": [],
      "stateMutability": "nonpayable",
      "type": "function"
    },
    {
      "inputs": [
        {
          "internalType": "string",
          "name": "patientNic",
          "type": "string"
        },
        {
          "internalType": "string",
          "name": "dob",
          "type": "string"
        }
      ],
      "name": "isEMRDataExist",
      "outputs": [
        {
          "internalType": "bool",
          "name": "",
          "type": "bool"
        },
        {
          "internalType": "string",
          "name": "",
          "type": "string"
        }
      ],
      "stateMutability": "view",
      "type": "function",
      "constant": true
    },
    {
      "inputs": [
        {
          "internalType": "string",
          "name": "patientNic",
          "type": "string"
        },
        {
          "internalType": "string",
          "name": "token",
          "type": "string"
        },
        {
          "internalType": "string",
          "name": "patientWalletAddress",
          "type": "string"
        }
      ],
      "name": "getEMRData",
      "outputs": [
        {
          "components": [
            {
              "internalType": "string",
              "name": "patientNic",
              "type": "string"
            },
            {
              "internalType": "string",
              "name": "dob",
              "type": "string"
            },
            {
              "internalType": "string",
              "name": "noRekamMedis",
              "type": "string"
            },
            {
              "internalType": "string",
              "name": "medicalRecord",
              "type": "string"
            }
          ],
          "internalType": "struct PatientEMR.EMR",
          "name": "",
          "type": "tuple"
        }
      ],
      "stateMutability": "view",
      "type": "function",
      "constant": true
    },
    {
      "inputs": [
        {
          "internalType": "string",
          "name": "patientNic",
          "type": "string"
        }
      ],
      "name": "doctorGetEMRData",
      "outputs": [
        {
          "components": [
            {
              "internalType": "string",
              "name": "patientNic",
              "type": "string"
            },
            {
              "internalType": "string",
              "name": "dob",
              "type": "string"
            },
            {
              "internalType": "string",
              "name": "noRekamMedis",
              "type": "string"
            },
            {
              "internalType": "string",
              "name": "medicalRecord",
              "type": "string"
            }
          ],
          "internalType": "struct PatientEMR.EMR",
          "name": "",
          "type": "tuple"
        }
      ],
      "stateMutability": "view",
      "type": "function",
      "constant": true
    },
    {
      "inputs": [
        {
          "internalType": "string",
          "name": "patientNic",
          "type": "string"
        },
        {
          "internalType": "string",
          "name": "dob",
          "type": "string"
        },
        {
          "internalType": "string",
          "name": "noRekamMedis",
          "type": "string"
        },
        {
          "internalType": "string",
          "name": "medicalRecord",
          "type": "string"
        },
        {
          "internalType": "string",
          "name": "token",
          "type": "string"
        },
        {
          "internalType": "bool",
          "name": "isValidated",
          "type": "bool"
        },
        {
          "internalType": "string",
          "name": "patientWalletAddress",
          "type": "string"
        }
      ],
      "name": "updateEMRData",
      "outputs": [],
      "stateMutability": "nonpayable",
      "type": "function"
    },
    {
      "inputs": [
        {
          "internalType": "string",
          "name": "patientNic",
          "type": "string"
        }
      ],
      "name": "getPatientWalletAddress",
      "outputs": [
        {
          "internalType": "string",
          "name": "",
          "type": "string"
        }
      ],
      "stateMutability": "view",
      "type": "function",
      "constant": true
    },
    {
      "inputs": [],
      "name": "getRegisteredNICsCount",
      "outputs": [
        {
          "internalType": "uint256",
          "name": "",
          "type": "uint256"
        }
      ],
      "stateMutability": "view",
      "type": "function",
      "constant": true
    },
    {
      "inputs": [
        {
          "internalType": "uint256",
          "name": "index",
          "type": "uint256"
        }
      ],
      "name": "getRegisteredNICAtIndex",
      "outputs": [
        {
          "internalType": "string",
          "name": "",
          "type": "string"
        }
      ],
      "stateMutability": "view",
      "type": "function",
      "constant": true
    }
  ],
  "bytecode": "0x608060405234801561001057600080fd5b50336000806101000a81548173ffffffffffffffffffffffffffffffffffffffff021916908373ffffffffffffffffffffffffffffffffffffffff160217905550615acc80620000616000396000f3fe608060405234801561001057600080fd5b50600436106101375760003560e01c80635c69a0cb116100b8578063c28b8eca1161007c578063c28b8eca1461039f578063c6009d84146103cf578063e9d2f85714610409578063ea977fc814610425578063f6b014a714610455578063f84b54091461048557610137565b80635c69a0cb146102e9578063647e17891461030557806386f1c312146103215780638da5cb5b14610351578063b584916c1461036f57610137565b80631a8b364c116100ff5780631a8b364c146102095780631c9091ae1461023957806321e329cd1461026a5780632d86bf581461029b5780633717cf2a146102cb57610137565b80630244747e1461013c578063029055db146101585780630ee058801461018b57806314c8baa9146101bb57806318a231a9146101eb575b600080fd5b610156600480360381019061015191906144be565b6104a1565b005b610172600480360381019061016d919061437a565b6106f4565b6040516101829493929190615423565b60405180910390f35b6101a560048036038101906101a0919061437a565b61095a565b6040516101b29190615333565b60405180910390f35b6101d560048036038101906101d0919061437a565b610990565b6040516101e29190615333565b60405180910390f35b6101f36109c5565b6040516102009190615311565b60405180910390f35b610223600480360381019061021e919061437a565b6112ac565b604051610230919061537e565b60405180910390f35b610253600480360381019061024e91906143bb565b6113ca565b60405161026192919061534e565b60405180910390f35b610284600480360381019061027f9190614427565b611412565b6040516102929291906155c8565b60405180910390f35b6102b560048036038101906102b0919061437a565b611dd4565b6040516102c2919061577f565b60405180910390f35b6102d3612054565b6040516102e091906157c3565b60405180910390f35b61030360048036038101906102fe91906146db565b612061565b005b61031f600480360381019061031a9190614427565b612298565b005b61033b60048036038101906103369190614a19565b612425565b604051610348919061537e565b60405180910390f35b610359612542565b60405161036691906152f6565b60405180910390f35b61038960048036038101906103849190614a19565b612566565b604051610396919061537e565b60405180910390f35b6103b960048036038101906103b49190614427565b612612565b6040516103c6919061577f565b60405180910390f35b6103e960048036038101906103e4919061437a565b612a5b565b6040516104009b9a99989796959493929190615484565b60405180910390f35b610423600480360381019061041e9190614821565b6130a3565b005b61043f600480360381019061043a919061437a565b61343f565b60405161044c91906157a1565b60405180910390f35b61046f600480360381019061046a919061437a565b613b2f565b60405161047c9190615333565b60405180910390f35b61049f600480360381019061049a91906145ad565b613b65565b005b60008054906101000a900473ffffffffffffffffffffffffffffffffffffffff1673ffffffffffffffffffffffffffffffffffffffff163373ffffffffffffffffffffffffffffffffffffffff161480610566575060018560405161050691906152c8565b908152602001604051809103902060070160405160200161052791906152df565b604051602081830303815290604052805190602001208160405160200161054e91906152c8565b60405160208183030381529060405280519060200120145b6105a5576040517f08c379a000000000000000000000000000000000000000000000000000000000815260040161059c9061567f565b60405180910390fd5b60006105b18686613fe6565b905060008151146105f7576040517f08c379a00000000000000000000000000000000000000000000000000000000081526004016105ee9061561f565b60405180910390fd5b600060405180608001604052808881526020018781526020018681526020018581525090508060028860405161062d91906152c8565b908152602001604051809103902060008201518160000190805190602001906106579291906141c3565b5060208201518160010190805190602001906106749291906141c3565b5060408201518160020190805190602001906106919291906141c3565b5060608201518160030190805190602001906106ae9291906141c3565b509050507fdcbee054614abcc01e0f309967e4aa7c728a916343a5bc683d76690561899cad87866040516106e39291906153a0565b60405180910390a150505050505050565b60028180516020810182018051848252602083016020850120818352809550505050505060009150905080600001805461072d9061594f565b80601f01602080910402602001604051908101604052809291908181526020018280546107599061594f565b80156107a65780601f1061077b576101008083540402835291602001916107a6565b820191906000526020600020905b81548152906001019060200180831161078957829003601f168201915b5050505050908060010180546107bb9061594f565b80601f01602080910402602001604051908101604052809291908181526020018280546107e79061594f565b80156108345780601f1061080957610100808354040283529160200191610834565b820191906000526020600020905b81548152906001019060200180831161081757829003601f168201915b5050505050908060020180546108499061594f565b80601f01602080910402602001604051908101604052809291908181526020018280546108759061594f565b80156108c25780601f10610897576101008083540402835291602001916108c2565b820191906000526020600020905b8154815290600101906020018083116108a557829003601f168201915b5050505050908060030180546108d79061594f565b80601f01602080910402602001604051908101604052809291908181526020018280546109039061594f565b80156109505780601f1061092557610100808354040283529160200191610950565b820191906000526020600020905b81548152906001019060200180831161093357829003601f168201915b5050505050905084565b6004818051602081018201805184825260208301602085012081835280955050505050506000915054906101000a900460ff1681565b60006003826040516109a291906152c8565b908152602001604051809103902060009054906101000a900460ff169050919050565b6060600060058054905067ffffffffffffffff811115610a0e577f4e487b7100000000000000000000000000000000000000000000000000000000600052604160045260246000fd5b604051908082528060200260200182016040528015610a4757816020015b610a34614249565b815260200190600190039081610a2c5790505b5090506000805b6005805490508110156112a057600060058281548110610a97577f4e487b7100000000000000000000000000000000000000000000000000000000600052603260045260246000fd5b906000526020600020018054610aac9061594f565b80601f0160208091040260200160405190810160405280929190818152602001828054610ad89061594f565b8015610b255780601f10610afa57610100808354040283529160200191610b25565b820191906000526020600020905b815481529060010190602001808311610b0857829003601f168201915b505050505090506000600182604051610b3e91906152c8565b908152602001604051809103902060405180610160016040529081600082018054610b689061594f565b80601f0160208091040260200160405190810160405280929190818152602001828054610b949061594f565b8015610be15780601f10610bb657610100808354040283529160200191610be1565b820191906000526020600020905b815481529060010190602001808311610bc457829003601f168201915b50505050508152602001600182018054610bfa9061594f565b80601f0160208091040260200160405190810160405280929190818152602001828054610c269061594f565b8015610c735780601f10610c4857610100808354040283529160200191610c73565b820191906000526020600020905b815481529060010190602001808311610c5657829003601f168201915b50505050508152602001600282018054610c8c9061594f565b80601f0160208091040260200160405190810160405280929190818152602001828054610cb89061594f565b8015610d055780601f10610cda57610100808354040283529160200191610d05565b820191906000526020600020905b815481529060010190602001808311610ce857829003601f168201915b50505050508152602001600382018054610d1e9061594f565b80601f0160208091040260200160405190810160405280929190818152602001828054610d4a9061594f565b8015610d975780601f10610d6c57610100808354040283529160200191610d97565b820191906000526020600020905b815481529060010190602001808311610d7a57829003601f168201915b50505050508152602001600482018054610db09061594f565b80601f0160208091040260200160405190810160405280929190818152602001828054610ddc9061594f565b8015610e295780601f10610dfe57610100808354040283529160200191610e29565b820191906000526020600020905b815481529060010190602001808311610e0c57829003601f168201915b50505050508152602001600582018054610e429061594f565b80601f0160208091040260200160405190810160405280929190818152602001828054610e6e9061594f565b8015610ebb5780601f10610e9057610100808354040283529160200191610ebb565b820191906000526020600020905b815481529060010190602001808311610e9e57829003601f168201915b50505050508152602001600682018054610ed49061594f565b80601f0160208091040260200160405190810160405280929190818152602001828054610f009061594f565b8015610f4d5780601f10610f2257610100808354040283529160200191610f4d565b820191906000526020600020905b815481529060010190602001808311610f3057829003601f168201915b50505050508152602001600782018054610f669061594f565b80601f0160208091040260200160405190810160405280929190818152602001828054610f929061594f565b8015610fdf5780601f10610fb457610100808354040283529160200191610fdf565b820191906000526020600020905b815481529060010190602001808311610fc257829003601f168201915b50505050508152602001600882018054610ff89061594f565b80601f01602080910402602001604051908101604052809291908181526020018280546110249061594f565b80156110715780601f1061104657610100808354040283529160200191611071565b820191906000526020600020905b81548152906001019060200180831161105457829003601f168201915b5050505050815260200160098201805461108a9061594f565b80601f01602080910402602001604051908101604052809291908181526020018280546110b69061594f565b80156111035780601f106110d857610100808354040283529160200191611103565b820191906000526020600020905b8154815290600101906020018083116110e657829003601f168201915b50505050508152602001600a8201805461111c9061594f565b80601f01602080910402602001604051908101604052809291908181526020018280546111489061594f565b80156111955780601f1061116a57610100808354040283529160200191611195565b820191906000526020600020905b81548152906001019060200180831161117857829003601f168201915b5050505050815250509050600081600001515114806111b957506000816020015151145b806111c957506000816040015151145b806111d957506000816080015151145b806111e957506000816060015151145b806111f9575060008160a0015151145b80611209575060008160e0015151145b8061121a5750600081610120015151145b8061122b5750600081610140015151145b1561123757505061128d565b80858581518110611271577f4e487b7100000000000000000000000000000000000000000000000000000000600052603260045260246000fd5b6020026020010181905250838061128790615981565b94505050505b808061129890615981565b915050610a4e565b50808252819250505090565b60606003826040516112be91906152c8565b908152602001604051809103902060009054906101000a900460ff16611319576040517f08c379a00000000000000000000000000000000000000000000000000000000081526004016113109061563f565b60405180910390fd5b60018260405161132991906152c8565b908152602001604051809103902060070180546113459061594f565b80601f01602080910402602001604051908101604052809291908181526020018280546113719061594f565b80156113be5780601f10611393576101008083540402835291602001916113be565b820191906000526020600020905b8154815290600101906020018083116113a157829003601f168201915b50505050509050919050565b6000606060006113da8585613fe6565b90506000815111156113f357600181925092505061140b565b60006040518060200160405280600081525092509250505b9250929050565b606061141c614249565b60038560405161142c91906152c8565b908152602001604051809103902060009054906101000a900460ff1615611ca057600060018660405161145f91906152c8565b9081526020016040518091039020604051806101600160405290816000820180546114899061594f565b80601f01602080910402602001604051908101604052809291908181526020018280546114b59061594f565b80156115025780601f106114d757610100808354040283529160200191611502565b820191906000526020600020905b8154815290600101906020018083116114e557829003601f168201915b5050505050815260200160018201805461151b9061594f565b80601f01602080910402602001604051908101604052809291908181526020018280546115479061594f565b80156115945780601f1061156957610100808354040283529160200191611594565b820191906000526020600020905b81548152906001019060200180831161157757829003601f168201915b505050505081526020016002820180546115ad9061594f565b80601f01602080910402602001604051908101604052809291908181526020018280546115d99061594f565b80156116265780601f106115fb57610100808354040283529160200191611626565b820191906000526020600020905b81548152906001019060200180831161160957829003601f168201915b5050505050815260200160038201805461163f9061594f565b80601f016020809104026020016040519081016040528092919081815260200182805461166b9061594f565b80156116b85780601f1061168d576101008083540402835291602001916116b8565b820191906000526020600020905b81548152906001019060200180831161169b57829003601f168201915b505050505081526020016004820180546116d19061594f565b80601f01602080910402602001604051908101604052809291908181526020018280546116fd9061594f565b801561174a5780601f1061171f5761010080835404028352916020019161174a565b820191906000526020600020905b81548152906001019060200180831161172d57829003601f168201915b505050505081526020016005820180546117639061594f565b80601f016020809104026020016040519081016040528092919081815260200182805461178f9061594f565b80156117dc5780601f106117b1576101008083540402835291602001916117dc565b820191906000526020600020905b8154815290600101906020018083116117bf57829003601f168201915b505050505081526020016006820180546117f59061594f565b80601f01602080910402602001604051908101604052809291908181526020018280546118219061594f565b801561186e5780601f106118435761010080835404028352916020019161186e565b820191906000526020600020905b81548152906001019060200180831161185157829003601f168201915b505050505081526020016007820180546118879061594f565b80601f01602080910402602001604051908101604052809291908181526020018280546118b39061594f565b80156119005780601f106118d557610100808354040283529160200191611900565b820191906000526020600020905b8154815290600101906020018083116118e357829003601f168201915b505050505081526020016008820180546119199061594f565b80601f01602080910402602001604051908101604052809291908181526020018280546119459061594f565b80156119925780601f1061196757610100808354040283529160200191611992565b820191906000526020600020905b81548152906001019060200180831161197557829003601f168201915b505050505081526020016009820180546119ab9061594f565b80601f01602080910402602001604051908101604052809291908181526020018280546119d79061594f565b8015611a245780601f106119f957610100808354040283529160200191611a24565b820191906000526020600020905b815481529060010190602001808311611a0757829003601f168201915b50505050508152602001600a82018054611a3d9061594f565b80601f0160208091040260200160405190810160405280929190818152602001828054611a699061594f565b8015611ab65780601f10611a8b57610100808354040283529160200191611ab6565b820191906000526020600020905b815481529060010190602001808311611a9957829003601f168201915b50505050508152505090508060a00151604051602001611ad691906152c8565b6040516020818303038152906040528051906020012085604051602001611afd91906152c8565b6040516020818303038152906040528051906020012014611b53576040517f08c379a0000000000000000000000000000000000000000000000000000000008152600401611b4a9061571f565b60405180910390fd5b8060e00151604051602001611b6891906152c8565b6040516020818303038152906040528051906020012084604051602001611b8f91906152c8565b6040516020818303038152906040528051906020012014611be5576040517f08c379a0000000000000000000000000000000000000000000000000000000008152600401611bdc9061575f565b60405180910390fd5b6040518060400160405280601281526020017f4c6f67696e205375636365737366756c6c790000000000000000000000000000815250925060405180610160016040528082600001518152602001826020015181526020018260400151815260200182606001518152602001826080015181526020018260a0015181526020018260c0015181526020018260e00151815260200182610100015181526020018261012001518152602001826101400151815250915050611dcc565b6040518060400160405280601281526020017f4e4943206e6f742072656769737465726564000000000000000000000000000081525091506040518061016001604052806040518060200160405280600081525081526020016040518060200160405280600081525081526020016040518060200160405280600081525081526020016040518060200160405280600081525081526020016040518060200160405280600081525081526020016040518060200160405280600081525081526020016040518060200160405280600081525081526020016040518060200160405280600081525081526020016040518060200160405280600081525081526020016040518060200160405280600081525081526020016040518060200160405280600081525081525090505b935093915050565b611ddc6142a3565b600282604051611dec91906152c8565b9081526020016040518091039020604051806080016040529081600082018054611e159061594f565b80601f0160208091040260200160405190810160405280929190818152602001828054611e419061594f565b8015611e8e5780601f10611e6357610100808354040283529160200191611e8e565b820191906000526020600020905b815481529060010190602001808311611e7157829003601f168201915b50505050508152602001600182018054611ea79061594f565b80601f0160208091040260200160405190810160405280929190818152602001828054611ed39061594f565b8015611f205780601f10611ef557610100808354040283529160200191611f20565b820191906000526020600020905b815481529060010190602001808311611f0357829003601f168201915b50505050508152602001600282018054611f399061594f565b80601f0160208091040260200160405190810160405280929190818152602001828054611f659061594f565b8015611fb25780601f10611f8757610100808354040283529160200191611fb2565b820191906000526020600020905b815481529060010190602001808311611f9557829003601f168201915b50505050508152602001600382018054611fcb9061594f565b80601f0160208091040260200160405190810160405280929190818152602001828054611ff79061594f565b80156120445780601f1061201957610100808354040283529160200191612044565b820191906000526020600020905b81548152906001019060200180831161202757829003601f168201915b5050505050815250509050919050565b6000600580549050905090565b60038760405161207191906152c8565b908152602001604051809103902060009054906101000a900460ff166120cc576040517f08c379a00000000000000000000000000000000000000000000000000000000081526004016120c39061565f565b60405180910390fd5b6001876040516120dc91906152c8565b90815260200160405180910390206007016040516020016120fd91906152df565b604051602081830303815290604052805190602001208160405160200161212491906152c8565b604051602081830303815290604052805190602001201461217a576040517f08c379a00000000000000000000000000000000000000000000000000000000081526004016121719061567f565b60405180910390fd5b600060018860405161218c91906152c8565b908152602001604051809103902090506000875111156121c057868160000190805190602001906121be9291906141c3565b505b6000865111156121e457858160010190805190602001906121e29291906141c3565b505b60008551111561220857848160030190805190602001906122069291906141c3565b505b60008451111561222c578381600401908051906020019061222a9291906141c3565b505b600083511115612250578281600501908051906020019061224e9291906141c3565b505b7f27043f7352f820770c3d4dd525f578705f863921193c72da88af575d356cb4818888836007016040516122869392919061557c565b60405180910390a15050505050505050565b6003836040516122a891906152c8565b908152602001604051809103902060009054906101000a900460ff16612303576040517f08c379a00000000000000000000000000000000000000000000000000000000081526004016122fa9061565f565b60405180910390fd5b60018360405161231391906152c8565b908152602001604051809103902060070160405160200161233491906152df565b604051602081830303815290604052805190602001208160405160200161235b91906152c8565b60405160208183030381529060405280519060200120146123b1576040517f08c379a00000000000000000000000000000000000000000000000000000000081526004016123a89061567f565b60405180910390fd5b816001846040516123c291906152c8565b908152602001604051809103902060080190805190602001906123e69291906141c3565b507f170881459f113ec5389013b2b605b62f79fe3a2a6c42c48b0c589c288382127483836040516124189291906153a0565b60405180910390a1505050565b6060600580549050821061246e576040517f08c379a00000000000000000000000000000000000000000000000000000000081526004016124659061573f565b60405180910390fd5b600582815481106124a8577f4e487b7100000000000000000000000000000000000000000000000000000000600052603260045260246000fd5b9060005260206000200180546124bd9061594f565b80601f01602080910402602001604051908101604052809291908181526020018280546124e99061594f565b80156125365780601f1061250b57610100808354040283529160200191612536565b820191906000526020600020905b81548152906001019060200180831161251957829003601f168201915b50505050509050919050565b60008054906101000a900473ffffffffffffffffffffffffffffffffffffffff1681565b6005818154811061257657600080fd5b9060005260206000200160009150905080546125919061594f565b80601f01602080910402602001604051908101604052809291908181526020018280546125bd9061594f565b801561260a5780601f106125df5761010080835404028352916020019161260a565b820191906000526020600020905b8154815290600101906020018083116125ed57829003601f168201915b505050505081565b61261a6142a3565b60038460405161262a91906152c8565b908152602001604051809103902060009054906101000a900460ff16612685576040517f08c379a000000000000000000000000000000000000000000000000000000000815260040161267c9061563f565b60405180910390fd5b60018460405161269591906152c8565b90815260200160405180910390206007016040516020016126b691906152df565b60405160208183030381529060405280519060200120826040516020016126dd91906152c8565b6040516020818303038152906040528051906020012014612733576040517f08c379a000000000000000000000000000000000000000000000000000000000815260040161272a906155ff565b60405180910390fd5b60018460405161274391906152c8565b908152602001604051809103902060080160405160200161276491906152df565b604051602081830303815290604052805190602001208360405160200161278b91906152c8565b60405160208183030381529060405280519060200120146127e1576040517f08c379a00000000000000000000000000000000000000000000000000000000081526004016127d8906156bf565b60405180910390fd5b6002846040516127f191906152c8565b908152602001604051809103902060405180608001604052908160008201805461281a9061594f565b80601f01602080910402602001604051908101604052809291908181526020018280546128469061594f565b80156128935780601f1061286857610100808354040283529160200191612893565b820191906000526020600020905b81548152906001019060200180831161287657829003601f168201915b505050505081526020016001820180546128ac9061594f565b80601f01602080910402602001604051908101604052809291908181526020018280546128d89061594f565b80156129255780601f106128fa57610100808354040283529160200191612925565b820191906000526020600020905b81548152906001019060200180831161290857829003601f168201915b5050505050815260200160028201805461293e9061594f565b80601f016020809104026020016040519081016040528092919081815260200182805461296a9061594f565b80156129b75780601f1061298c576101008083540402835291602001916129b7565b820191906000526020600020905b81548152906001019060200180831161299a57829003601f168201915b505050505081526020016003820180546129d09061594f565b80601f01602080910402602001604051908101604052809291908181526020018280546129fc9061594f565b8015612a495780601f10612a1e57610100808354040283529160200191612a49565b820191906000526020600020905b815481529060010190602001808311612a2c57829003601f168201915b50505050508152505090509392505050565b600181805160208101820180518482526020830160208501208183528095505050505050600091509050806000018054612a949061594f565b80601f0160208091040260200160405190810160405280929190818152602001828054612ac09061594f565b8015612b0d5780601f10612ae257610100808354040283529160200191612b0d565b820191906000526020600020905b815481529060010190602001808311612af057829003601f168201915b505050505090806001018054612b229061594f565b80601f0160208091040260200160405190810160405280929190818152602001828054612b4e9061594f565b8015612b9b5780601f10612b7057610100808354040283529160200191612b9b565b820191906000526020600020905b815481529060010190602001808311612b7e57829003601f168201915b505050505090806002018054612bb09061594f565b80601f0160208091040260200160405190810160405280929190818152602001828054612bdc9061594f565b8015612c295780601f10612bfe57610100808354040283529160200191612c29565b820191906000526020600020905b815481529060010190602001808311612c0c57829003601f168201915b505050505090806003018054612c3e9061594f565b80601f0160208091040260200160405190810160405280929190818152602001828054612c6a9061594f565b8015612cb75780601f10612c8c57610100808354040283529160200191612cb7565b820191906000526020600020905b815481529060010190602001808311612c9a57829003601f168201915b505050505090806004018054612ccc9061594f565b80601f0160208091040260200160405190810160405280929190818152602001828054612cf89061594f565b8015612d455780601f10612d1a57610100808354040283529160200191612d45565b820191906000526020600020905b815481529060010190602001808311612d2857829003601f168201915b505050505090806005018054612d5a9061594f565b80601f0160208091040260200160405190810160405280929190818152602001828054612d869061594f565b8015612dd35780601f10612da857610100808354040283529160200191612dd3565b820191906000526020600020905b815481529060010190602001808311612db657829003601f168201915b505050505090806006018054612de89061594f565b80601f0160208091040260200160405190810160405280929190818152602001828054612e149061594f565b8015612e615780601f10612e3657610100808354040283529160200191612e61565b820191906000526020600020905b815481529060010190602001808311612e4457829003601f168201915b505050505090806007018054612e769061594f565b80601f0160208091040260200160405190810160405280929190818152602001828054612ea29061594f565b8015612eef5780601f10612ec457610100808354040283529160200191612eef565b820191906000526020600020905b815481529060010190602001808311612ed257829003601f168201915b505050505090806008018054612f049061594f565b80601f0160208091040260200160405190810160405280929190818152602001828054612f309061594f565b8015612f7d5780601f10612f5257610100808354040283529160200191612f7d565b820191906000526020600020905b815481529060010190602001808311612f6057829003601f168201915b505050505090806009018054612f929061594f565b80601f0160208091040260200160405190810160405280929190818152602001828054612fbe9061594f565b801561300b5780601f10612fe05761010080835404028352916020019161300b565b820191906000526020600020905b815481529060010190602001808311612fee57829003601f168201915b50505050509080600a0180546130209061594f565b80601f016020809104026020016040519081016040528092919081815260200182805461304c9061594f565b80156130995780601f1061306e57610100808354040283529160200191613099565b820191906000526020600020905b81548152906001019060200180831161307c57829003601f168201915b505050505090508b565b6003856040516130b391906152c8565b908152602001604051809103902060009054906101000a900460ff161561310f576040517f08c379a0000000000000000000000000000000000000000000000000000000008152600401613106906156ff565b60405180910390fd5b60048460405161311f91906152c8565b908152602001604051809103902060009054906101000a900460ff161561317b576040517f08c379a0000000000000000000000000000000000000000000000000000000008152600401613172906156df565b60405180910390fd5b6000613187868b613fe6565b9050600081511115613197578092505b60006040518061016001604052808e81526020018d81526020018c81526020018a81526020018b8152602001898152602001888152602001878152602001868152602001858152602001848152509050806001886040516131f891906152c8565b908152602001604051809103902060008201518160000190805190602001906132229291906141c3565b50602082015181600101908051906020019061323f9291906141c3565b50604082015181600201908051906020019061325c9291906141c3565b5060608201518160030190805190602001906132799291906141c3565b5060808201518160040190805190602001906132969291906141c3565b5060a08201518160050190805190602001906132b39291906141c3565b5060c08201518160060190805190602001906132d09291906141c3565b5060e08201518160070190805190602001906132ed9291906141c3565b5061010082015181600801908051906020019061330b9291906141c3565b506101208201518160090190805190602001906133299291906141c3565b5061014082015181600a0190805190602001906133479291906141c3565b50905050600160038860405161335d91906152c8565b908152602001604051809103902060006101000a81548160ff021916908315150217905550600160048760405161339491906152c8565b908152602001604051809103902060006101000a81548160ff0219169083151502179055506005879080600181540180825580915050600190039060005260206000200160009091909190915090805190602001906133f49291906141c3565b507f27043f7352f820770c3d4dd525f578705f863921193c72da88af575d356cb481878e88604051613428939291906153d7565b60405180910390a150505050505050505050505050565b613447614249565b60038260405161345791906152c8565b908152602001604051809103902060009054906101000a900460ff166134b2576040517f08c379a00000000000000000000000000000000000000000000000000000000081526004016134a99061565f565b60405180910390fd5b60006001836040516134c491906152c8565b9081526020016040518091039020604051806101600160405290816000820180546134ee9061594f565b80601f016020809104026020016040519081016040528092919081815260200182805461351a9061594f565b80156135675780601f1061353c57610100808354040283529160200191613567565b820191906000526020600020905b81548152906001019060200180831161354a57829003601f168201915b505050505081526020016001820180546135809061594f565b80601f01602080910402602001604051908101604052809291908181526020018280546135ac9061594f565b80156135f95780601f106135ce576101008083540402835291602001916135f9565b820191906000526020600020905b8154815290600101906020018083116135dc57829003601f168201915b505050505081526020016002820180546136129061594f565b80601f016020809104026020016040519081016040528092919081815260200182805461363e9061594f565b801561368b5780601f106136605761010080835404028352916020019161368b565b820191906000526020600020905b81548152906001019060200180831161366e57829003601f168201915b505050505081526020016003820180546136a49061594f565b80601f01602080910402602001604051908101604052809291908181526020018280546136d09061594f565b801561371d5780601f106136f25761010080835404028352916020019161371d565b820191906000526020600020905b81548152906001019060200180831161370057829003601f168201915b505050505081526020016004820180546137369061594f565b80601f01602080910402602001604051908101604052809291908181526020018280546137629061594f565b80156137af5780601f10613784576101008083540402835291602001916137af565b820191906000526020600020905b81548152906001019060200180831161379257829003601f168201915b505050505081526020016005820180546137c89061594f565b80601f01602080910402602001604051908101604052809291908181526020018280546137f49061594f565b80156138415780601f1061381657610100808354040283529160200191613841565b820191906000526020600020905b81548152906001019060200180831161382457829003601f168201915b5050505050815260200160068201805461385a9061594f565b80601f01602080910402602001604051908101604052809291908181526020018280546138869061594f565b80156138d35780601f106138a8576101008083540402835291602001916138d3565b820191906000526020600020905b8154815290600101906020018083116138b657829003601f168201915b505050505081526020016007820180546138ec9061594f565b80601f01602080910402602001604051908101604052809291908181526020018280546139189061594f565b80156139655780601f1061393a57610100808354040283529160200191613965565b820191906000526020600020905b81548152906001019060200180831161394857829003601f168201915b5050505050815260200160088201805461397e9061594f565b80601f01602080910402602001604051908101604052809291908181526020018280546139aa9061594f565b80156139f75780601f106139cc576101008083540402835291602001916139f7565b820191906000526020600020905b8154815290600101906020018083116139da57829003601f168201915b50505050508152602001600982018054613a109061594f565b80601f0160208091040260200160405190810160405280929190818152602001828054613a3c9061594f565b8015613a895780601f10613a5e57610100808354040283529160200191613a89565b820191906000526020600020905b815481529060010190602001808311613a6c57829003601f168201915b50505050508152602001600a82018054613aa29061594f565b80601f0160208091040260200160405190810160405280929190818152602001828054613ace9061594f565b8015613b1b5780601f10613af057610100808354040283529160200191613b1b565b820191906000526020600020905b815481529060010190602001808311613afe57829003601f168201915b505050505081525050905080915050919050565b6003818051602081018201805184825260208301602085012081835280955050505050506000915054906101000a900460ff1681565b8115613cba576000613b778888613fe6565b9050600081511415613c4457600060405180608001604052808a81526020018981526020018881526020018781525090508060028a604051613bb991906152c8565b90815260200160405180910390206000820151816000019080519060200190613be39291906141c3565b506020820151816001019080519060200190613c009291906141c3565b506040820151816002019080519060200190613c1d9291906141c3565b506060820151816003019080519060200190613c3a9291906141c3565b5090505050613c7b565b84600289604051613c5591906152c8565b90815260200160405180910390206003019080519060200190613c799291906141c3565b505b7fdcbee054614abcc01e0f309967e4aa7c728a916343a5bc683d76690561899cad8887604051613cac9291906153a0565b60405180910390a150613fdd565b600387604051613cca91906152c8565b908152602001604051809103902060009054906101000a900460ff16613d25576040517f08c379a0000000000000000000000000000000000000000000000000000000008152600401613d1c9061563f565b60405180910390fd5b600187604051613d3591906152c8565b9081526020016040518091039020600701604051602001613d5691906152df565b6040516020818303038152906040528051906020012081604051602001613d7d91906152c8565b604051602081830303815290604052805190602001201415613fdc57600187604051613da991906152c8565b9081526020016040518091039020600801604051602001613dca91906152df565b6040516020818303038152906040528051906020012083604051602001613df191906152c8565b6040516020818303038152906040528051906020012014613e47576040517f08c379a0000000000000000000000000000000000000000000000000000000008152600401613e3e906156bf565b60405180910390fd5b85604051602001613e5891906152c8565b60405160208183030381529060405280519060200120600288604051613e7e91906152c8565b9081526020016040518091039020600101604051602001613e9f91906152df565b60405160208183030381529060405280519060200120148015613f2d575084604051602001613ece91906152c8565b60405160208183030381529060405280519060200120600288604051613ef491906152c8565b9081526020016040518091039020600201604051602001613f1591906152df565b60405160208183030381529060405280519060200120145b613f6c576040517f08c379a0000000000000000000000000000000000000000000000000000000008152600401613f639061569f565b60405180910390fd5b83600288604051613f7d91906152c8565b90815260200160405180910390206003019080519060200190613fa19291906141c3565b507fdcbee054614abcc01e0f309967e4aa7c728a916343a5bc683d76690561899cad8786604051613fd39291906153a0565b60405180910390a15b5b50505050505050565b606061409b600284604051613ffb91906152c8565b908152602001604051809103902060010180546140179061594f565b80601f01602080910402602001604051908101604052809291908181526020018280546140439061594f565b80156140905780601f1061406557610100808354040283529160200191614090565b820191906000526020600020905b81548152906001019060200180831161407357829003601f168201915b50505050508361416a565b15614151576002836040516140b091906152c8565b908152602001604051809103902060020180546140cc9061594f565b80601f01602080910402602001604051908101604052809291908181526020018280546140f89061594f565b80156141455780601f1061411a57610100808354040283529160200191614145565b820191906000526020600020905b81548152906001019060200180831161412857829003601f168201915b50505050509050614164565b6040518060200160405280600081525090505b92915050565b60008160405160200161417d91906152c8565b60405160208183030381529060405280519060200120836040516020016141a491906152c8565b6040516020818303038152906040528051906020012014905092915050565b8280546141cf9061594f565b90600052602060002090601f0160209004810192826141f15760008555614238565b82601f1061420a57805160ff1916838001178555614238565b82800160010185558215614238579182015b8281111561423757825182559160200191906001019061421c565b5b50905061424591906142cb565b5090565b60405180610160016040528060608152602001606081526020016060815260200160608152602001606081526020016060815260200160608152602001606081526020016060815260200160608152602001606081525090565b6040518060800160405280606081526020016060815260200160608152602001606081525090565b5b808211156142e45760008160009055506001016142cc565b5090565b60006142fb6142f68461580f565b6157de565b90508281526020810184848401111561431357600080fd5b61431e84828561590d565b509392505050565b60008135905061433581615a68565b92915050565b600082601f83011261434c57600080fd5b813561435c8482602086016142e8565b91505092915050565b60008135905061437481615a7f565b92915050565b60006020828403121561438c57600080fd5b600082013567ffffffffffffffff8111156143a657600080fd5b6143b28482850161433b565b91505092915050565b600080604083850312156143ce57600080fd5b600083013567ffffffffffffffff8111156143e857600080fd5b6143f48582860161433b565b925050602083013567ffffffffffffffff81111561441157600080fd5b61441d8582860161433b565b9150509250929050565b60008060006060848603121561443c57600080fd5b600084013567ffffffffffffffff81111561445657600080fd5b6144628682870161433b565b935050602084013567ffffffffffffffff81111561447f57600080fd5b61448b8682870161433b565b925050604084013567ffffffffffffffff8111156144a857600080fd5b6144b48682870161433b565b9150509250925092565b600080600080600060a086880312156144d657600080fd5b600086013567ffffffffffffffff8111156144f057600080fd5b6144fc8882890161433b565b955050602086013567ffffffffffffffff81111561451957600080fd5b6145258882890161433b565b945050604086013567ffffffffffffffff81111561454257600080fd5b61454e8882890161433b565b935050606086013567ffffffffffffffff81111561456b57600080fd5b6145778882890161433b565b925050608086013567ffffffffffffffff81111561459457600080fd5b6145a08882890161433b565b9150509295509295909350565b600080600080600080600060e0888a0312156145c857600080fd5b600088013567ffffffffffffffff8111156145e257600080fd5b6145ee8a828b0161433b565b975050602088013567ffffffffffffffff81111561460b57600080fd5b6146178a828b0161433b565b965050604088013567ffffffffffffffff81111561463457600080fd5b6146408a828b0161433b565b955050606088013567ffffffffffffffff81111561465d57600080fd5b6146698a828b0161433b565b945050608088013567ffffffffffffffff81111561468657600080fd5b6146928a828b0161433b565b93505060a06146a38a828b01614326565b92505060c088013567ffffffffffffffff8111156146c057600080fd5b6146cc8a828b0161433b565b91505092959891949750929550565b600080600080600080600060e0888a0312156146f657600080fd5b600088013567ffffffffffffffff81111561471057600080fd5b61471c8a828b0161433b565b975050602088013567ffffffffffffffff81111561473957600080fd5b6147458a828b0161433b565b965050604088013567ffffffffffffffff81111561476257600080fd5b61476e8a828b0161433b565b955050606088013567ffffffffffffffff81111561478b57600080fd5b6147978a828b0161433b565b945050608088013567ffffffffffffffff8111156147b457600080fd5b6147c08a828b0161433b565b93505060a088013567ffffffffffffffff8111156147dd57600080fd5b6147e98a828b0161433b565b92505060c088013567ffffffffffffffff81111561480657600080fd5b6148128a828b0161433b565b91505092959891949750929550565b60008060008060008060008060008060006101608c8e03121561484357600080fd5b60008c013567ffffffffffffffff81111561485d57600080fd5b6148698e828f0161433b565b9b505060208c013567ffffffffffffffff81111561488657600080fd5b6148928e828f0161433b565b9a505060408c013567ffffffffffffffff8111156148af57600080fd5b6148bb8e828f0161433b565b99505060608c013567ffffffffffffffff8111156148d857600080fd5b6148e48e828f0161433b565b98505060808c013567ffffffffffffffff81111561490157600080fd5b61490d8e828f0161433b565b97505060a08c013567ffffffffffffffff81111561492a57600080fd5b6149368e828f0161433b565b96505060c08c013567ffffffffffffffff81111561495357600080fd5b61495f8e828f0161433b565b95505060e08c013567ffffffffffffffff81111561497c57600080fd5b6149888e828f0161433b565b9450506101008c013567ffffffffffffffff8111156149a657600080fd5b6149b28e828f0161433b565b9350506101208c013567ffffffffffffffff8111156149d057600080fd5b6149dc8e828f0161433b565b9250506101408c013567ffffffffffffffff8111156149fa57600080fd5b614a068e828f0161433b565b9150509295989b509295989b9093969950565b600060208284031215614a2b57600080fd5b6000614a3984828501614365565b91505092915050565b6000614a4e838361504f565b905092915050565b614a5f816158c5565b82525050565b6000614a7082615864565b614a7a8185615887565b935083602082028501614a8c8561583f565b8060005b85811015614ac85784840389528151614aa98582614a42565b9450614ab48361587a565b925060208a01995050600181019050614a90565b50829750879550505050505092915050565b614ae3816158d7565b82525050565b6000614af48261586f565b614afe8185615898565b9350614b0e81856020860161591c565b614b1781615a57565b840191505092915050565b6000614b2d8261586f565b614b3781856158a9565b9350614b4781856020860161591c565b614b5081615a57565b840191505092915050565b6000614b668261586f565b614b7081856158ba565b9350614b8081856020860161591c565b80840191505092915050565b60008154614b998161594f565b614ba381866158a9565b94506001821660008114614bbe5760018114614bd057614c03565b60ff1983168652602086019350614c03565b614bd98561584f565b60005b83811015614bfb57815481890152600182019150602081019050614bdc565b808801955050505b50505092915050565b60008154614c198161594f565b614c2381866158ba565b94506001821660008114614c3e5760018114614c4f57614c82565b60ff19831686528186019350614c82565b614c588561584f565b60005b83811015614c7a57815481890152600182019150602081019050614c5b565b838801955050505b50505092915050565b6000614c98601e836158a9565b91507f4e6f7420617574686f72697a656420746f2061646420454d52206461746100006000830152602082019050919050565b6000614cd86017836158a9565b91507f454d52206461746120616c7265616479206578697374730000000000000000006000830152602082019050919050565b6000614d18601d836158a9565b91507f50617469656e74204e4943206973206e6f7420726567697374657265640000006000830152602082019050919050565b6000614d586015836158a9565b91507f4e4943206973206e6f74207265676973746572656400000000000000000000006000830152602082019050919050565b6000614d986025836158a9565b91507f4e6f7420617574686f72697a656420746f207570646174652070617469656e7460008301527f20646174610000000000000000000000000000000000000000000000000000006020830152604082019050919050565b6000614dfe600c836158a9565b91507f496e76616c6964206461746100000000000000000000000000000000000000006000830152602082019050919050565b6000614e3e600d836158a9565b91507f496e76616c696420746f6b656e000000000000000000000000000000000000006000830152602082019050919050565b6000614e7e6024836158a9565b91507f57616c6c6574206164647265737320697320616c72656164792072656769737460008301527f65726564000000000000000000000000000000000000000000000000000000006020830152604082019050919050565b6000614ee46019836158a9565b91507f4e494320697320616c72656164792072656769737465726564000000000000006000830152602082019050919050565b6000614f246010836158a9565b91507f496e76616c69642070617373776f7264000000000000000000000000000000006000830152602082019050919050565b6000614f646013836158a9565b91507f496e646578206f7574206f6620626f756e6473000000000000000000000000006000830152602082019050919050565b6000614fa46016836158a9565b91507f496e76616c69642077616c6c65742061646472657373000000000000000000006000830152602082019050919050565b60006080830160008301518482036000860152614ff48282614ae9565b9150506020830151848203602086015261500e8282614ae9565b915050604083015184820360408601526150288282614ae9565b915050606083015184820360608601526150428282614ae9565b9150508091505092915050565b600061016083016000830151848203600086015261506d8282614ae9565b915050602083015184820360208601526150878282614ae9565b915050604083015184820360408601526150a18282614ae9565b915050606083015184820360608601526150bb8282614ae9565b915050608083015184820360808601526150d58282614ae9565b91505060a083015184820360a08601526150ef8282614ae9565b91505060c083015184820360c08601526151098282614ae9565b91505060e083015184820360e08601526151238282614ae9565b91505061010083015184820361010086015261513f8282614ae9565b91505061012083015184820361012086015261515b8282614ae9565b9150506101408301518482036101408601526151778282614ae9565b9150508091505092915050565b60006101608301600083015184820360008601526151a28282614ae9565b915050602083015184820360208601526151bc8282614ae9565b915050604083015184820360408601526151d68282614ae9565b915050606083015184820360608601526151f08282614ae9565b9150506080830151848203608086015261520a8282614ae9565b91505060a083015184820360a08601526152248282614ae9565b91505060c083015184820360c086015261523e8282614ae9565b91505060e083015184820360e08601526152588282614ae9565b9150506101008301518482036101008601526152748282614ae9565b9150506101208301518482036101208601526152908282614ae9565b9150506101408301518482036101408601526152ac8282614ae9565b9150508091505092915050565b6152c281615903565b82525050565b60006152d48284614b5b565b915081905092915050565b60006152eb8284614c0c565b915081905092915050565b600060208201905061530b6000830184614a56565b92915050565b6000602082019050818103600083015261532b8184614a65565b905092915050565b60006020820190506153486000830184614ada565b92915050565b60006040820190506153636000830185614ada565b81810360208301526153758184614b22565b90509392505050565b600060208201905081810360008301526153988184614b22565b905092915050565b600060408201905081810360008301526153ba8185614b22565b905081810360208301526153ce8184614b22565b90509392505050565b600060608201905081810360008301526153f18186614b22565b905081810360208301526154058185614b22565b905081810360408301526154198184614b22565b9050949350505050565b6000608082019050818103600083015261543d8187614b22565b905081810360208301526154518186614b22565b905081810360408301526154658185614b22565b905081810360608301526154798184614b22565b905095945050505050565b600061016082019050818103600083015261549f818e614b22565b905081810360208301526154b3818d614b22565b905081810360408301526154c7818c614b22565b905081810360608301526154db818b614b22565b905081810360808301526154ef818a614b22565b905081810360a08301526155038189614b22565b905081810360c08301526155178188614b22565b905081810360e083015261552b8187614b22565b90508181036101008301526155408186614b22565b90508181036101208301526155558185614b22565b905081810361014083015261556a8184614b22565b90509c9b505050505050505050505050565b600060608201905081810360008301526155968186614b22565b905081810360208301526155aa8185614b22565b905081810360408301526155be8184614b8c565b9050949350505050565b600060408201905081810360008301526155e28185614b22565b905081810360208301526155f68184615184565b90509392505050565b6000602082019050818103600083015261561881614c8b565b9050919050565b6000602082019050818103600083015261563881614ccb565b9050919050565b6000602082019050818103600083015261565881614d0b565b9050919050565b6000602082019050818103600083015261567881614d4b565b9050919050565b6000602082019050818103600083015261569881614d8b565b9050919050565b600060208201905081810360008301526156b881614df1565b9050919050565b600060208201905081810360008301526156d881614e31565b9050919050565b600060208201905081810360008301526156f881614e71565b9050919050565b6000602082019050818103600083015261571881614ed7565b9050919050565b6000602082019050818103600083015261573881614f17565b9050919050565b6000602082019050818103600083015261575881614f57565b9050919050565b6000602082019050818103600083015261577881614f97565b9050919050565b600060208201905081810360008301526157998184614fd7565b905092915050565b600060208201905081810360008301526157bb8184615184565b905092915050565b60006020820190506157d860008301846152b9565b92915050565b6000604051905081810181811067ffffffffffffffff8211171561580557615804615a28565b5b8060405250919050565b600067ffffffffffffffff82111561582a57615829615a28565b5b601f19601f8301169050602081019050919050565b6000819050602082019050919050565b60008190508160005260206000209050919050565b600081519050919050565b600081519050919050565b6000602082019050919050565b600082825260208201905092915050565b600082825260208201905092915050565b600082825260208201905092915050565b600081905092915050565b60006158d0826158e3565b9050919050565b60008115159050919050565b600073ffffffffffffffffffffffffffffffffffffffff82169050919050565b6000819050919050565b82818337600083830152505050565b60005b8381101561593a57808201518184015260208101905061591f565b83811115615949576000848401525b50505050565b6000600282049050600182168061596757607f821691505b6020821081141561597b5761597a6159f9565b5b50919050565b600061598c82615903565b91507fffffffffffffffffffffffffffffffffffffffffffffffffffffffffffffffff8214156159bf576159be6159ca565b5b600182019050919050565b7f4e487b7100000000000000000000000000000000000000000000000000000000600052601160045260246000fd5b7f4e487b7100000000000000000000000000000000000000000000000000000000600052602260045260246000fd5b7f4e487b7100000000000000000000000000000000000000000000000000000000600052604160045260246000fd5b6000601f19601f8301169050919050565b615a71816158d7565b8114615a7c57600080fd5b50565b615a8881615903565b8114615a9357600080fd5b5056fea2646970667358221220f05d42e16b4695cf8282db1b699001a192ed75ae2cc9f6c98b10bc374ed7129664736f6c63430008000033",
  "immutableReferences": {},
  "source": "// SPDX-License-Identifier: MIT \r\npragma solidity 0.8.0;\r\n\r\ncontract PatientEMR {\r\n    address public owner;\r\n\r\n    modifier onlyOwner() {\r\n        require(msg.sender == owner, \"Only the owner can call this function\");\r\n        _;\r\n    }\r\n\r\n    constructor() {\r\n        owner = msg.sender;\r\n    }\r\n\r\n    struct Patient {\r\n        string name;\r\n        string homeAddress;\r\n        string dob;\r\n        string telephone;\r\n        string email;\r\n        string password;\r\n        string nic;\r\n        string walletAddress;\r\n        string token;\r\n        string noRekamMedis;\r\n        string urlKTP;\r\n    }\r\n\r\n    struct EMR {\r\n        string patientNic;\r\n        string dob;\r\n        string noRekamMedis;\r\n        string medicalRecord;\r\n    }\r\n\r\n    mapping(string => Patient) public patients;\r\n    mapping(string => EMR) public emrRecords;\r\n    mapping(string => bool) public isNICRegistered;\r\n    mapping(string => bool) public isWalletRegistered;\r\n    string[] public registeredNICs;\r\n\r\n    event PatientRegistered(string nic, string name, string walletAddress);\r\n    event EMRRecordUpdated(string patientNic, string noRekamMedis);\r\n    event PatientTokenUpdated(string nic, string newToken);\r\n\r\n    //Patient\r\n    function registerPatient(\r\n        string memory name,\r\n        string memory homeAddress,\r\n        string memory dob,\r\n        string memory email,\r\n        string memory telephone,\r\n        string memory password,\r\n        string memory nic,\r\n        string memory walletAddress,\r\n        string memory token,\r\n        string memory noRekamMedis,\r\n        string memory urlKTP\r\n    ) public {\r\n        require(!isNICRegistered[nic], \"NIC is already registered\");\r\n        require(!isWalletRegistered[walletAddress], \"Wallet address is already registered\");\r\n        \r\n        // Check if EMR data already exists for the given NIC and dob\r\n        string memory existingNoRekamMedis = getEMRNoRekamMedis(nic, dob);\r\n        if (bytes(existingNoRekamMedis).length > 0) {\r\n            noRekamMedis = existingNoRekamMedis;\r\n        }\r\n\r\n        Patient memory newPatient = Patient({\r\n            name: name,\r\n            homeAddress: homeAddress,\r\n            dob: dob,\r\n            email: email,\r\n            telephone: telephone,\r\n            password: password,\r\n            nic: nic,\r\n            walletAddress: walletAddress,\r\n            token: token,\r\n            noRekamMedis: noRekamMedis,\r\n            urlKTP: urlKTP\r\n        });\r\n\r\n        patients[nic] = newPatient;\r\n        isNICRegistered[nic] = true;\r\n        isWalletRegistered[walletAddress] = true;\r\n        registeredNICs.push(nic);\r\n\r\n        emit PatientRegistered(nic, name, walletAddress);\r\n    }\r\n\r\n    function updatePatientData(\r\n        string memory nic,\r\n        string memory newName,\r\n        string memory newHomeAddress,\r\n        string memory newTelephone,\r\n        string memory newEmail,\r\n        string memory newPassword,\r\n        string memory patientWalletAddress\r\n    ) public {\r\n        require(isNICRegistered[nic], \"NIC is not registered\");\r\n        require(\r\n            keccak256(abi.encodePacked(patientWalletAddress)) == keccak256(abi.encodePacked(patients[nic].walletAddress)),\r\n            \"Not authorized to update patient data\"\r\n        );\r\n\r\n        Patient storage patient = patients[nic];\r\n        if (bytes(newName).length > 0) {\r\n            patient.name = newName;\r\n        }\r\n        if (bytes(newHomeAddress).length > 0) {\r\n            patient.homeAddress = newHomeAddress;\r\n        }\r\n        if (bytes(newTelephone).length > 0) {\r\n            patient.telephone = newTelephone;\r\n        }\r\n        if (bytes(newEmail).length > 0) {\r\n            patient.email = newEmail;\r\n        }\r\n        if (bytes(newPassword).length > 0) {\r\n            patient.password = newPassword;\r\n        }\r\n\r\n        emit PatientRegistered(nic, newName, patient.walletAddress);\r\n    }\r\n\r\n    function updatePatientToken(string memory nic, string memory newToken, string memory patientWalletAddress) public {\r\n        require(isNICRegistered[nic], \"NIC is not registered\");\r\n        require(\r\n            keccak256(abi.encodePacked(patientWalletAddress)) == keccak256(abi.encodePacked(patients[nic].walletAddress)),\r\n            \"Not authorized to update patient data\"\r\n        );\r\n\r\n        patients[nic].token = newToken;\r\n\r\n        emit PatientTokenUpdated(nic, newToken);\r\n    }\r\n\r\n    function getPatientDetails(string memory nic) public view returns (Patient memory) {\r\n        require(isNICRegistered[nic], \"NIC is not registered\");\r\n        Patient memory patient = patients[nic];\r\n        return patient;\r\n    }\r\n\r\n    function getAllPatients() public view returns (Patient[] memory) {\r\n        Patient[] memory allPatients = new Patient[](registeredNICs.length);\r\n        uint256 validPatientsCount = 0;\r\n\r\n        for (uint256 i = 0; i < registeredNICs.length; i++) {\r\n            string memory nic = registeredNICs[i];\r\n            Patient memory patient = patients[nic];\r\n\r\n            if (\r\n                bytes(patient.name).length == 0 ||\r\n                bytes(patient.homeAddress).length == 0 ||\r\n                bytes(patient.dob).length == 0 ||\r\n                bytes(patient.email).length == 0 ||\r\n                bytes(patient.telephone).length == 0 ||\r\n                bytes(patient.password).length == 0 ||\r\n                bytes(patient.walletAddress).length == 0 ||\r\n                bytes(patient.noRekamMedis).length == 0 ||\r\n                bytes(patient.urlKTP).length == 0\r\n            ) {\r\n                continue;\r\n            }\r\n\r\n            allPatients[validPatientsCount] = patient;\r\n            validPatientsCount++;\r\n        }\r\n\r\n        assembly {\r\n            mstore(allPatients, validPatientsCount)\r\n        }\r\n\r\n        return allPatients;\r\n    }\r\n\r\n    function isNICAlreadyRegistered(string memory nic) public view returns (bool) {\r\n        return isNICRegistered[nic];\r\n    }\r\n\r\n    function validateLogin(\r\n        string memory nic,\r\n        string memory password,\r\n        string memory walletAddress\r\n    ) public view returns (string memory message, Patient memory patientData) {\r\n        if (isNICRegistered[nic]) {\r\n            Patient memory patient = patients[nic];\r\n\r\n        require(\r\n            keccak256(abi.encodePacked(password)) == keccak256(abi.encodePacked(patient.password)),\r\n            \"Invalid password\"\r\n        );\r\n        require(\r\n            keccak256(abi.encodePacked(walletAddress)) == keccak256(abi.encodePacked(patient.walletAddress)),\r\n            \"Invalid wallet address\"\r\n        );\r\n\r\n        message = \"Login Successfully\";\r\n        patientData = Patient({\r\n            name: patient.name,\r\n            homeAddress: patient.homeAddress,\r\n            dob: patient.dob,\r\n            email: patient.email,\r\n            telephone: patient.telephone,\r\n            password: patient.password,\r\n            nic: patient.nic,\r\n            walletAddress: patient.walletAddress,\r\n            token: patient.token,\r\n            noRekamMedis: patient.noRekamMedis,\r\n            urlKTP: patient.urlKTP\r\n            });\r\n        } else {\r\n            message = \"NIC not registered\";\r\n            patientData = Patient(\"\", \"\", \"\", \"\", \"\", \"\", \"\", \"\", \"\", \"\", \"\");\r\n        }\r\n    }\r\n\r\n    // EMR\r\n    function addEMRData(\r\n        string memory patientNic,\r\n        string memory dob,\r\n        string memory noRekamMedis,\r\n        string memory medicalRecord,\r\n        string memory patientWalletAddress\r\n    ) public {  \r\n        require(\r\n            msg.sender == owner || keccak256(abi.encodePacked(patientWalletAddress)) == keccak256(abi.encodePacked(patients[patientNic].walletAddress)),\r\n            \"Not authorized to update patient data\"\r\n        );\r\n        // Check if EMR data already exists for the given NIC and dob\r\n        string memory existingNoRekamMedis = getEMRNoRekamMedis(patientNic, dob);\r\n        require(bytes(existingNoRekamMedis).length == 0, \"EMR data already exists\");\r\n\r\n        EMR memory newEMR = EMR({\r\n            patientNic: patientNic,\r\n            dob: dob,\r\n            noRekamMedis: noRekamMedis,\r\n            medicalRecord: medicalRecord\r\n        });\r\n\r\n        emrRecords[patientNic] = newEMR;\r\n\r\n        emit EMRRecordUpdated(patientNic, noRekamMedis);\r\n    }\r\n\r\n    function isEMRDataExist(string memory patientNic, string memory dob) public view returns (bool, string memory) {\r\n        string memory existingNoRekamMedis = getEMRNoRekamMedis(patientNic, dob);\r\n        if (bytes(existingNoRekamMedis).length > 0) {\r\n            return (true, existingNoRekamMedis);\r\n        } else {\r\n            return (false, \"\");\r\n        }\r\n    }\r\n    \r\n    function getEMRData(string memory patientNic, string memory token, string memory patientWalletAddress) public view returns (EMR memory) {\r\n        require(isNICRegistered[patientNic], \"Patient NIC is not registered\");\r\n        require(keccak256(abi.encodePacked(patientWalletAddress)) == keccak256(abi.encodePacked(patients[patientNic].walletAddress)), \"Not authorized to add EMR data\");\r\n        require(keccak256(abi.encodePacked(token)) == keccak256(abi.encodePacked(patients[patientNic].token)),\"Invalid token\");\r\n\r\n        return emrRecords[patientNic];\r\n    }\r\n\r\n    function doctorGetEMRData(string memory patientNic) public view returns (EMR memory) {\r\n        return emrRecords[patientNic];\r\n    }\r\n\r\n    function updateEMRData(\r\n        string memory patientNic,\r\n        string memory dob,\r\n        string memory noRekamMedis,\r\n        string memory medicalRecord,\r\n        string memory token,\r\n        bool isValidated,\r\n        string memory patientWalletAddress\r\n    ) public {\r\n\r\n        if (isValidated)\r\n        {\r\n            // Check if EMR data already exists for the given NIC and dob\r\n            string memory existingNoRekamMedis = getEMRNoRekamMedis(patientNic, dob);\r\n\r\n            if (bytes(existingNoRekamMedis).length == 0) {\r\n                // No existing EMR data, create a new one\r\n                EMR memory newEMR = EMR({\r\n                    patientNic: patientNic,\r\n                    dob: dob,\r\n                    noRekamMedis: noRekamMedis,\r\n                    medicalRecord: medicalRecord\r\n                });\r\n                emrRecords[patientNic] = newEMR;\r\n            } else {\r\n                // Update existing EMR data\r\n                emrRecords[patientNic].medicalRecord = medicalRecord;\r\n            }\r\n\r\n            emit EMRRecordUpdated(patientNic, noRekamMedis);\r\n        }\r\n        else \r\n        {\r\n            require(isNICRegistered[patientNic], \"Patient NIC is not registered\");\r\n            // Check if the caller is the patient\r\n            if (keccak256(abi.encodePacked(patientWalletAddress)) == keccak256(abi.encodePacked(patients[patientNic].walletAddress))) {\r\n                require(\r\n                    keccak256(abi.encodePacked(token)) == keccak256(abi.encodePacked(patients[patientNic].token)),\r\n                    \"Invalid token\"\r\n                );\r\n                require(\r\n                    keccak256(abi.encodePacked(emrRecords[patientNic].dob)) == keccak256(abi.encodePacked(dob)) &&\r\n                    keccak256(abi.encodePacked(emrRecords[patientNic].noRekamMedis)) == keccak256(abi.encodePacked(noRekamMedis)),\r\n                    \"Invalid data\"\r\n                );\r\n                emrRecords[patientNic].medicalRecord = medicalRecord;\r\n                emit EMRRecordUpdated(patientNic, noRekamMedis);\r\n            } \r\n        }\r\n    }\r\n\r\n    function getPatientWalletAddress(string memory patientNic) external view returns (string memory) {\r\n        require(isNICRegistered[patientNic], \"Patient NIC is not registered\");\r\n        return patients[patientNic].walletAddress;\r\n    }\r\n\r\n    function getRegisteredNICsCount() public view returns (uint256) {\r\n        return registeredNICs.length;\r\n    }\r\n\r\n    function getRegisteredNICAtIndex(uint256 index) public view returns (string memory) {\r\n        require(index < registeredNICs.length, \"Index out of bounds\");\r\n        return registeredNICs[index];\r\n    }\r\n\r\n    // Helper function to get EMR NoRekamMedis for the given NIC and dob\r\n    function getEMRNoRekamMedis(string memory nic, string memory dob) internal view returns (string memory) {\r\n        if (compareStrings(emrRecords[nic].dob, dob)) {\r\n            return emrRecords[nic].noRekamMedis;\r\n        }\r\n        return \"\";\r\n    }\r\n\r\n    // Helper function to compare strings\r\n    function compareStrings(string memory a, string memory b) internal pure returns (bool) {\r\n        return keccak256(abi.encodePacked(a)) == keccak256(abi.encodePacked(b));\r\n    }\r\n    \r\n}",
  "sourcePath": "C:\\Users\\avjc2\\Documents\\S2 BINUS\\THESIS\\BLOCKCHAIN\\APPLICATIONS\\sc_emr\\contracts\\PatientEMR.sol",
  "compiler": {
    "name": "solc",
    "version": "0.8.0+commit.c7dfd78e.Emscripten.clang"
  },
  "schemaVersion": "3.4.16",
  "updatedAt": "2024-02-02T06:05:24.435Z",
  "networkType": "ethereum",
  "devdoc": {
    "kind": "dev",
    "methods": {},
    "version": 1
  },
  "userdoc": {
    "kind": "user",
    "methods": {},
    "version": 1
  }
}