{
  "contractName": "DoctorAssociationContract",
  "abi": [
    {
      "inputs": [
        {
          "internalType": "address",
          "name": "_patientEMRContract",
          "type": "address"
        },
        {
          "internalType": "address",
          "name": "_doctorStorageContract",
          "type": "address"
        }
      ],
      "stateMutability": "nonpayable",
      "type": "constructor"
    },
    {
      "anonymous": false,
      "inputs": [
        {
          "indexed": false,
          "internalType": "string",
          "name": "patientNic",
          "type": "string"
        },
        {
          "indexed": false,
          "internalType": "string",
          "name": "doctorNic",
          "type": "string"
        },
        {
          "indexed": false,
          "internalType": "string",
          "name": "token",
          "type": "string"
        }
      ],
      "name": "DoctorAssociated",
      "type": "event"
    },
    {
      "inputs": [],
      "name": "doctorStorageContract",
      "outputs": [
        {
          "internalType": "contract DoctorStorage",
          "name": "",
          "type": "address"
        }
      ],
      "stateMutability": "view",
      "type": "function",
      "constant": true
    },
    {
      "inputs": [],
      "name": "owner",
      "outputs": [
        {
          "internalType": "address",
          "name": "",
          "type": "address"
        }
      ],
      "stateMutability": "view",
      "type": "function",
      "constant": true
    },
    {
      "inputs": [
        {
          "internalType": "string",
          "name": "",
          "type": "string"
        },
        {
          "internalType": "uint256",
          "name": "",
          "type": "uint256"
        }
      ],
      "name": "patientDoctorAssociations",
      "outputs": [
        {
          "internalType": "string",
          "name": "patientNic",
          "type": "string"
        },
        {
          "internalType": "string",
          "name": "doctorNic",
          "type": "string"
        },
        {
          "internalType": "string",
          "name": "appointmentId",
          "type": "string"
        },
        {
          "internalType": "string",
          "name": "token",
          "type": "string"
        },
        {
          "internalType": "string",
          "name": "validateDate",
          "type": "string"
        },
        {
          "internalType": "string",
          "name": "doctorWalletAddress",
          "type": "string"
        }
      ],
      "stateMutability": "view",
      "type": "function",
      "constant": true
    },
    {
      "inputs": [],
      "name": "patientEMRContract",
      "outputs": [
        {
          "internalType": "contract PatientEMR",
          "name": "",
          "type": "address"
        }
      ],
      "stateMutability": "view",
      "type": "function",
      "constant": true
    },
    {
      "inputs": [
        {
          "internalType": "string",
          "name": "patientNic",
          "type": "string"
        },
        {
          "internalType": "string",
          "name": "doctorNic",
          "type": "string"
        },
        {
          "internalType": "string",
          "name": "appointmentId",
          "type": "string"
        },
        {
          "internalType": "string",
          "name": "token",
          "type": "string"
        },
        {
          "internalType": "string",
          "name": "validateDate",
          "type": "string"
        },
        {
          "internalType": "string",
          "name": "doctorWalletAddress",
          "type": "string"
        },
        {
          "internalType": "string",
          "name": "patientWalletAddress",
          "type": "string"
        }
      ],
      "name": "associateDoctorWithPatient",
      "outputs": [],
      "stateMutability": "nonpayable",
      "type": "function"
    },
    {
      "inputs": [
        {
          "internalType": "string",
          "name": "doctorNic",
          "type": "string"
        },
        {
          "internalType": "string",
          "name": "doctorWalletAddress",
          "type": "string"
        }
      ],
      "name": "getDoctorAssociationsByDoctorNicAndWallet",
      "outputs": [
        {
          "components": [
            {
              "internalType": "string",
              "name": "patientNic",
              "type": "string"
            },
            {
              "internalType": "string",
              "name": "doctorNic",
              "type": "string"
            },
            {
              "internalType": "string",
              "name": "appointmentId",
              "type": "string"
            },
            {
              "internalType": "string",
              "name": "token",
              "type": "string"
            },
            {
              "internalType": "string",
              "name": "validateDate",
              "type": "string"
            },
            {
              "internalType": "string",
              "name": "doctorWalletAddress",
              "type": "string"
            }
          ],
          "internalType": "struct DoctorAssociationContract.DoctorAssociation[]",
          "name": "",
          "type": "tuple[]"
        }
      ],
      "stateMutability": "view",
      "type": "function",
      "constant": true
    },
    {
      "inputs": [
        {
          "internalType": "string",
          "name": "doctorNic",
          "type": "string"
        },
        {
          "internalType": "string",
          "name": "todayDate",
          "type": "string"
        }
      ],
      "name": "getPatientsForTodayByDoctorNic",
      "outputs": [
        {
          "components": [
            {
              "internalType": "string",
              "name": "patientNic",
              "type": "string"
            },
            {
              "internalType": "string",
              "name": "doctorNic",
              "type": "string"
            },
            {
              "internalType": "string",
              "name": "appointmentId",
              "type": "string"
            },
            {
              "internalType": "string",
              "name": "token",
              "type": "string"
            },
            {
              "internalType": "string",
              "name": "validateDate",
              "type": "string"
            },
            {
              "internalType": "string",
              "name": "doctorWalletAddress",
              "type": "string"
            }
          ],
          "internalType": "struct DoctorAssociationContract.DoctorAssociation[]",
          "name": "",
          "type": "tuple[]"
        }
      ],
      "stateMutability": "view",
      "type": "function",
      "constant": true
    },
    {
      "inputs": [
        {
          "internalType": "string",
          "name": "patientNic",
          "type": "string"
        },
        {
          "internalType": "string",
          "name": "walletAddress",
          "type": "string"
        },
        {
          "internalType": "string",
          "name": "token",
          "type": "string"
        },
        {
          "internalType": "string",
          "name": "todayDate",
          "type": "string"
        }
      ],
      "name": "isCallerAssociatedWithPatient",
      "outputs": [
        {
          "internalType": "bool",
          "name": "",
          "type": "bool"
        }
      ],
      "stateMutability": "view",
      "type": "function",
      "constant": true
    },
    {
      "inputs": [
        {
          "internalType": "string",
          "name": "patientNic",
          "type": "string"
        },
        {
          "internalType": "string",
          "name": "token",
          "type": "string"
        },
        {
          "internalType": "string",
          "name": "todayDate",
          "type": "string"
        },
        {
          "internalType": "string",
          "name": "walletAddress",
          "type": "string"
        }
      ],
      "name": "getEMRData",
      "outputs": [
        {
          "components": [
            {
              "internalType": "string",
              "name": "patientNic",
              "type": "string"
            },
            {
              "internalType": "string",
              "name": "dob",
              "type": "string"
            },
            {
              "internalType": "string",
              "name": "noRekamMedis",
              "type": "string"
            },
            {
              "internalType": "string",
              "name": "medicalRecord",
              "type": "string"
            }
          ],
          "internalType": "struct PatientEMR.EMR",
          "name": "",
          "type": "tuple"
        }
      ],
      "stateMutability": "view",
      "type": "function",
      "constant": true
    }
  ],
  "bytecode": "0x60806040523480156200001157600080fd5b506040516200398738038062003987833981810160405281019062000037919062000118565b336000806101000a81548173ffffffffffffffffffffffffffffffffffffffff021916908373ffffffffffffffffffffffffffffffffffffffff16021790555081600160006101000a81548173ffffffffffffffffffffffffffffffffffffffff021916908373ffffffffffffffffffffffffffffffffffffffff16021790555080600260006101000a81548173ffffffffffffffffffffffffffffffffffffffff021916908373ffffffffffffffffffffffffffffffffffffffff1602179055505050620001a7565b60008151905062000112816200018d565b92915050565b600080604083850312156200012c57600080fd5b60006200013c8582860162000101565b92505060206200014f8582860162000101565b9150509250929050565b600062000166826200016d565b9050919050565b600073ffffffffffffffffffffffffffffffffffffffff82169050919050565b620001988162000159565b8114620001a457600080fd5b50565b6137d080620001b76000396000f3fe608060405234801561001057600080fd5b50600436106100935760003560e01c80638459bc65116100665780638459bc65146101465780638da5cb5b14610164578063b7e3a77414610182578063d0bc99d81461019e578063e46c783e146101ce57610093565b8063359fa8bb1461009857806339eddf2a146100c857806352b43fae146100f85780636df2546e14610128575b600080fd5b6100b260048036038101906100ad9190612b21565b610203565b6040516100bf919061345d565b60405180910390f35b6100e260048036038101906100dd9190612b21565b6103fa565b6040516100ef9190613293565b60405180910390f35b610112600480360381019061010d9190612ab5565b6109e6565b60405161011f9190613271565b60405180910390f35b6101306114d3565b60405161013d91906132c9565b60405180910390f35b61014e6114f9565b60405161015b91906132ae565b60405180910390f35b61016c61151f565b6040516101799190613256565b60405180910390f35b61019c60048036038101906101979190612be4565b611543565b005b6101b860048036038101906101b39190612ab5565b61192e565b6040516101c59190613271565b60405180910390f35b6101e860048036038101906101e39190612d2a565b6123c8565b6040516101fa96959493929190613352565b60405180910390f35b61020b612767565b600160009054906101000a900473ffffffffffffffffffffffffffffffffffffffff1673ffffffffffffffffffffffffffffffffffffffff1663f6b014a7866040518263ffffffff1660e01b815260040161026691906132e4565b60206040518083038186803b15801561027e57600080fd5b505afa158015610292573d6000803e3d6000fd5b505050506040513d601f19601f820116820180604052508101906102b69190612a4b565b6102f5576040517f08c379a00000000000000000000000000000000000000000000000000000000081526004016102ec906133fd565b60405180910390fd5b610301858386866103fa565b610340576040517f08c379a00000000000000000000000000000000000000000000000000000000081526004016103379061341d565b60405180910390fd5b600160009054906101000a900473ffffffffffffffffffffffffffffffffffffffff1673ffffffffffffffffffffffffffffffffffffffff16632d86bf58866040518263ffffffff1660e01b815260040161039b91906132e4565b60006040518083038186803b1580156103b357600080fd5b505afa1580156103c7573d6000803e3d6000fd5b505050506040513d6000823e3d601f19601f820116820180604052508101906103f09190612d7e565b9050949350505050565b60008060038660405161040d9190613228565b9081526020016040518091039020805480602002602001604051908101604052809291908181526020016000905b828210156107d957838290600052602060002090600602016040518060c001604052908160008201805461046e90613653565b80601f016020809104026020016040519081016040528092919081815260200182805461049a90613653565b80156104e75780601f106104bc576101008083540402835291602001916104e7565b820191906000526020600020905b8154815290600101906020018083116104ca57829003601f168201915b5050505050815260200160018201805461050090613653565b80601f016020809104026020016040519081016040528092919081815260200182805461052c90613653565b80156105795780601f1061054e57610100808354040283529160200191610579565b820191906000526020600020905b81548152906001019060200180831161055c57829003601f168201915b5050505050815260200160028201805461059290613653565b80601f01602080910402602001604051908101604052809291908181526020018280546105be90613653565b801561060b5780601f106105e05761010080835404028352916020019161060b565b820191906000526020600020905b8154815290600101906020018083116105ee57829003601f168201915b5050505050815260200160038201805461062490613653565b80601f016020809104026020016040519081016040528092919081815260200182805461065090613653565b801561069d5780601f106106725761010080835404028352916020019161069d565b820191906000526020600020905b81548152906001019060200180831161068057829003601f168201915b505050505081526020016004820180546106b690613653565b80601f01602080910402602001604051908101604052809291908181526020018280546106e290613653565b801561072f5780601f106107045761010080835404028352916020019161072f565b820191906000526020600020905b81548152906001019060200180831161071257829003601f168201915b5050505050815260200160058201805461074890613653565b80601f016020809104026020016040519081016040528092919081815260200182805461077490613653565b80156107c15780601f10610796576101008083540402835291602001916107c1565b820191906000526020600020905b8154815290600101906020018083116107a457829003601f168201915b5050505050815250508152602001906001019061043b565b50505050905060005b81518110156109d757856040516020016107fc9190613228565b6040516020818303038152906040528051906020012082828151811061084b577f4e487b7100000000000000000000000000000000000000000000000000000000600052603260045260246000fd5b602002602001015160a001516040516020016108679190613228565b604051602081830303815290604052805190602001201480156109195750846040516020016108969190613228565b604051602081830303815290604052805190602001208282815181106108e5577f4e487b7100000000000000000000000000000000000000000000000000000000600052603260045260246000fd5b6020026020010151606001516040516020016109019190613228565b60405160208183030381529060405280519060200120145b80156109b45750836040516020016109319190613228565b60405160208183030381529060405280519060200120828281518110610980577f4e487b7100000000000000000000000000000000000000000000000000000000600052603260045260246000fd5b60200260200101516080015160405160200161099c9190613228565b60405160208183030381529060405280519060200120145b156109c4576001925050506109de565b80806109cf90613685565b9150506107e2565b5060009150505b949350505050565b6060600260009054906101000a900473ffffffffffffffffffffffffffffffffffffffff1673ffffffffffffffffffffffffffffffffffffffff166314c8baa9846040518263ffffffff1660e01b8152600401610a4391906132e4565b60206040518083038186803b158015610a5b57600080fd5b505afa158015610a6f573d6000803e3d6000fd5b505050506040513d601f19601f82011682018060405250810190610a939190612a4b565b610ad2576040517f08c379a0000000000000000000000000000000000000000000000000000000008152600401610ac99061343d565b60405180910390fd5b6000606060005b600160009054906101000a900473ffffffffffffffffffffffffffffffffffffffff1673ffffffffffffffffffffffffffffffffffffffff16633717cf2a6040518163ffffffff1660e01b815260040160206040518083038186803b158015610b4157600080fd5b505afa158015610b55573d6000803e3d6000fd5b505050506040513d601f19601f82011682018060405250810190610b799190612dbf565b811015610d3a576000600160009054906101000a900473ffffffffffffffffffffffffffffffffffffffff1673ffffffffffffffffffffffffffffffffffffffff166386f1c312836040518263ffffffff1660e01b8152600401610bdd919061347f565b60006040518083038186803b158015610bf557600080fd5b505afa158015610c09573d6000803e3d6000fd5b505050506040513d6000823e3d601f19601f82011682018060405250810190610c329190612a74565b90506000600382604051610c469190613228565b9081526020016040518091039020905060005b8180549050811015610d245788604051602001610c769190613228565b60405160208183030381529060405280519060200120828281548110610cc5577f4e487b7100000000000000000000000000000000000000000000000000000000600052603260045260246000fd5b9060005260206000209060060201600101604051602001610ce6919061323f565b604051602081830303815290604052805190602001201415610d11578580610d0d90613685565b9650505b8080610d1c90613685565b915050610c59565b5050508080610d3290613685565b915050610ad9565b5060008211156114c8578167ffffffffffffffff811115610d84577f4e487b7100000000000000000000000000000000000000000000000000000000600052604160045260246000fd5b604051908082528060200260200182016040528015610dbd57816020015b610daa61278f565b815260200190600190039081610da25790505b5090506000805b600160009054906101000a900473ffffffffffffffffffffffffffffffffffffffff1673ffffffffffffffffffffffffffffffffffffffff16633717cf2a6040518163ffffffff1660e01b815260040160206040518083038186803b158015610e2c57600080fd5b505afa158015610e40573d6000803e3d6000fd5b505050506040513d601f19601f82011682018060405250810190610e649190612dbf565b8110156114c5576000600160009054906101000a900473ffffffffffffffffffffffffffffffffffffffff1673ffffffffffffffffffffffffffffffffffffffff166386f1c312836040518263ffffffff1660e01b8152600401610ec8919061347f565b60006040518083038186803b158015610ee057600080fd5b505afa158015610ef4573d6000803e3d6000fd5b505050506040513d6000823e3d601f19601f82011682018060405250810190610f1d9190612a74565b90506000600382604051610f319190613228565b9081526020016040518091039020905060005b81805490508110156114af5789604051602001610f619190613228565b60405160208183030381529060405280519060200120828281548110610fb0577f4e487b7100000000000000000000000000000000000000000000000000000000600052603260045260246000fd5b9060005260206000209060060201600101604051602001610fd1919061323f565b60405160208183030381529060405280519060200120141561149c5788604051602001610ffe9190613228565b6040516020818303038152906040528051906020012082828154811061104d577f4e487b7100000000000000000000000000000000000000000000000000000000600052603260045260246000fd5b906000526020600020906006020160050160405160200161106e919061323f565b60405160208183030381529060405280519060200120141561149b578181815481106110c3577f4e487b7100000000000000000000000000000000000000000000000000000000600052603260045260246000fd5b90600052602060002090600602016040518060c00160405290816000820180546110ec90613653565b80601f016020809104026020016040519081016040528092919081815260200182805461111890613653565b80156111655780601f1061113a57610100808354040283529160200191611165565b820191906000526020600020905b81548152906001019060200180831161114857829003601f168201915b5050505050815260200160018201805461117e90613653565b80601f01602080910402602001604051908101604052809291908181526020018280546111aa90613653565b80156111f75780601f106111cc576101008083540402835291602001916111f7565b820191906000526020600020905b8154815290600101906020018083116111da57829003601f168201915b5050505050815260200160028201805461121090613653565b80601f016020809104026020016040519081016040528092919081815260200182805461123c90613653565b80156112895780601f1061125e57610100808354040283529160200191611289565b820191906000526020600020905b81548152906001019060200180831161126c57829003601f168201915b505050505081526020016003820180546112a290613653565b80601f01602080910402602001604051908101604052809291908181526020018280546112ce90613653565b801561131b5780601f106112f05761010080835404028352916020019161131b565b820191906000526020600020905b8154815290600101906020018083116112fe57829003601f168201915b5050505050815260200160048201805461133490613653565b80601f016020809104026020016040519081016040528092919081815260200182805461136090613653565b80156113ad5780601f10611382576101008083540402835291602001916113ad565b820191906000526020600020905b81548152906001019060200180831161139057829003601f168201915b505050505081526020016005820180546113c690613653565b80601f01602080910402602001604051908101604052809291908181526020018280546113f290613653565b801561143f5780601f106114145761010080835404028352916020019161143f565b820191906000526020600020905b81548152906001019060200180831161142257829003601f168201915b505050505081525050868681518110611481577f4e487b7100000000000000000000000000000000000000000000000000000000600052603260045260246000fd5b6020026020010181905250848061149790613685565b9550505b5b80806114a790613685565b915050610f44565b50505080806114bd90613685565b915050610dc4565b50505b809250505092915050565b600160009054906101000a900473ffffffffffffffffffffffffffffffffffffffff1681565b600260009054906101000a900473ffffffffffffffffffffffffffffffffffffffff1681565b60008054906101000a900473ffffffffffffffffffffffffffffffffffffffff1681565b600260009054906101000a900473ffffffffffffffffffffffffffffffffffffffff1673ffffffffffffffffffffffffffffffffffffffff166314c8baa9876040518263ffffffff1660e01b815260040161159e91906132e4565b60206040518083038186803b1580156115b657600080fd5b505afa1580156115ca573d6000803e3d6000fd5b505050506040513d601f19601f820116820180604052508101906115ee9190612a4b565b61162d576040517f08c379a00000000000000000000000000000000000000000000000000000000081526004016116249061343d565b60405180910390fd5b60008054906101000a900473ffffffffffffffffffffffffffffffffffffffff1673ffffffffffffffffffffffffffffffffffffffff163373ffffffffffffffffffffffffffffffffffffffff1614806117815750600160009054906101000a900473ffffffffffffffffffffffffffffffffffffffff1673ffffffffffffffffffffffffffffffffffffffff16631a8b364c886040518263ffffffff1660e01b81526004016116dd91906132e4565b60006040518083038186803b1580156116f557600080fd5b505afa158015611709573d6000803e3d6000fd5b505050506040513d6000823e3d601f19601f820116820180604052508101906117329190612a74565b6040516020016117429190613228565b60405160208183030381529060405280519060200120816040516020016117699190613228565b60405160208183030381529060405280519060200120145b6117c0576040517f08c379a00000000000000000000000000000000000000000000000000000000081526004016117b7906133dd565b60405180910390fd5b60006040518060c001604052808981526020018881526020018781526020018681526020018581526020018481525090506003886040516118019190613228565b908152602001604051809103902081908060018154018082558091505060019003906000526020600020906006020160009091909190915060008201518160000190805190602001906118559291906127c5565b5060208201518160010190805190602001906118729291906127c5565b50604082015181600201908051906020019061188f9291906127c5565b5060608201518160030190805190602001906118ac9291906127c5565b5060808201518160040190805190602001906118c99291906127c5565b5060a08201518160050190805190602001906118e69291906127c5565b5050507fc84f4ede037f9aa1bd0e7ed658d7a4b813c97a7f496b44f80306edd45e26281588888760405161191c93929190613306565b60405180910390a15050505050505050565b60606000805b600160009054906101000a900473ffffffffffffffffffffffffffffffffffffffff1673ffffffffffffffffffffffffffffffffffffffff16633717cf2a6040518163ffffffff1660e01b815260040160206040518083038186803b15801561199c57600080fd5b505afa1580156119b0573d6000803e3d6000fd5b505050506040513d601f19601f820116820180604052508101906119d49190612dbf565b811015611c35576000600160009054906101000a900473ffffffffffffffffffffffffffffffffffffffff1673ffffffffffffffffffffffffffffffffffffffff166386f1c312836040518263ffffffff1660e01b8152600401611a38919061347f565b60006040518083038186803b158015611a5057600080fd5b505afa158015611a64573d6000803e3d6000fd5b505050506040513d6000823e3d601f19601f82011682018060405250810190611a8d9190612a74565b90506000600382604051611aa19190613228565b9081526020016040518091039020905060005b8180549050811015611c1f5787604051602001611ad19190613228565b60405160208183030381529060405280519060200120828281548110611b20577f4e487b7100000000000000000000000000000000000000000000000000000000600052603260045260246000fd5b9060005260206000209060060201600101604051602001611b41919061323f565b60405160208183030381529060405280519060200120148015611bf8575086604051602001611b709190613228565b60405160208183030381529060405280519060200120828281548110611bbf577f4e487b7100000000000000000000000000000000000000000000000000000000600052603260045260246000fd5b9060005260206000209060060201600401604051602001611be0919061323f565b60405160208183030381529060405280519060200120145b15611c0c578480611c0890613685565b9550505b8080611c1790613685565b915050611ab4565b5050508080611c2d90613685565b915050611934565b5060008167ffffffffffffffff811115611c78577f4e487b7100000000000000000000000000000000000000000000000000000000600052604160045260246000fd5b604051908082528060200260200182016040528015611cb157816020015b611c9e61278f565b815260200190600190039081611c965790505b5090506000805b600160009054906101000a900473ffffffffffffffffffffffffffffffffffffffff1673ffffffffffffffffffffffffffffffffffffffff16633717cf2a6040518163ffffffff1660e01b815260040160206040518083038186803b158015611d2057600080fd5b505afa158015611d34573d6000803e3d6000fd5b505050506040513d601f19601f82011682018060405250810190611d589190612dbf565b8110156123bb576000600160009054906101000a900473ffffffffffffffffffffffffffffffffffffffff1673ffffffffffffffffffffffffffffffffffffffff166386f1c312836040518263ffffffff1660e01b8152600401611dbc919061347f565b60006040518083038186803b158015611dd457600080fd5b505afa158015611de8573d6000803e3d6000fd5b505050506040513d6000823e3d601f19601f82011682018060405250810190611e119190612a74565b90506000600382604051611e259190613228565b9081526020016040518091039020905060005b81805490508110156123a55789604051602001611e559190613228565b60405160208183030381529060405280519060200120828281548110611ea4577f4e487b7100000000000000000000000000000000000000000000000000000000600052603260045260246000fd5b9060005260206000209060060201600101604051602001611ec5919061323f565b60405160208183030381529060405280519060200120148015611f7c575088604051602001611ef49190613228565b60405160208183030381529060405280519060200120828281548110611f43577f4e487b7100000000000000000000000000000000000000000000000000000000600052603260045260246000fd5b9060005260206000209060060201600401604051602001611f64919061323f565b60405160208183030381529060405280519060200120145b1561239257818181548110611fba577f4e487b7100000000000000000000000000000000000000000000000000000000600052603260045260246000fd5b90600052602060002090600602016040518060c0016040529081600082018054611fe390613653565b80601f016020809104026020016040519081016040528092919081815260200182805461200f90613653565b801561205c5780601f106120315761010080835404028352916020019161205c565b820191906000526020600020905b81548152906001019060200180831161203f57829003601f168201915b5050505050815260200160018201805461207590613653565b80601f01602080910402602001604051908101604052809291908181526020018280546120a190613653565b80156120ee5780601f106120c3576101008083540402835291602001916120ee565b820191906000526020600020905b8154815290600101906020018083116120d157829003601f168201915b5050505050815260200160028201805461210790613653565b80601f016020809104026020016040519081016040528092919081815260200182805461213390613653565b80156121805780601f1061215557610100808354040283529160200191612180565b820191906000526020600020905b81548152906001019060200180831161216357829003601f168201915b5050505050815260200160038201805461219990613653565b80601f01602080910402602001604051908101604052809291908181526020018280546121c590613653565b80156122125780601f106121e757610100808354040283529160200191612212565b820191906000526020600020905b8154815290600101906020018083116121f557829003601f168201915b5050505050815260200160048201805461222b90613653565b80601f016020809104026020016040519081016040528092919081815260200182805461225790613653565b80156122a45780601f10612279576101008083540402835291602001916122a4565b820191906000526020600020905b81548152906001019060200180831161228757829003601f168201915b505050505081526020016005820180546122bd90613653565b80601f01602080910402602001604051908101604052809291908181526020018280546122e990613653565b80156123365780601f1061230b57610100808354040283529160200191612336565b820191906000526020600020905b81548152906001019060200180831161231957829003601f168201915b505050505081525050868681518110612378577f4e487b7100000000000000000000000000000000000000000000000000000000600052603260045260246000fd5b6020026020010181905250848061238e90613685565b9550505b808061239d90613685565b915050611e38565b50505080806123b390613685565b915050611cb8565b5081935050505092915050565b60038280516020810182018051848252602083016020850120818352809550505050505081815481106123fa57600080fd5b90600052602060002090600602016000915091505080600001805461241e90613653565b80601f016020809104026020016040519081016040528092919081815260200182805461244a90613653565b80156124975780601f1061246c57610100808354040283529160200191612497565b820191906000526020600020905b81548152906001019060200180831161247a57829003601f168201915b5050505050908060010180546124ac90613653565b80601f01602080910402602001604051908101604052809291908181526020018280546124d890613653565b80156125255780601f106124fa57610100808354040283529160200191612525565b820191906000526020600020905b81548152906001019060200180831161250857829003601f168201915b50505050509080600201805461253a90613653565b80601f016020809104026020016040519081016040528092919081815260200182805461256690613653565b80156125b35780601f10612588576101008083540402835291602001916125b3565b820191906000526020600020905b81548152906001019060200180831161259657829003601f168201915b5050505050908060030180546125c890613653565b80601f01602080910402602001604051908101604052809291908181526020018280546125f490613653565b80156126415780601f1061261657610100808354040283529160200191612641565b820191906000526020600020905b81548152906001019060200180831161262457829003601f168201915b50505050509080600401805461265690613653565b80601f016020809104026020016040519081016040528092919081815260200182805461268290613653565b80156126cf5780601f106126a4576101008083540402835291602001916126cf565b820191906000526020600020905b8154815290600101906020018083116126b257829003601f168201915b5050505050908060050180546126e490613653565b80601f016020809104026020016040519081016040528092919081815260200182805461271090613653565b801561275d5780601f106127325761010080835404028352916020019161275d565b820191906000526020600020905b81548152906001019060200180831161274057829003601f168201915b5050505050905086565b6040518060800160405280606081526020016060815260200160608152602001606081525090565b6040518060c001604052806060815260200160608152602001606081526020016060815260200160608152602001606081525090565b8280546127d190613653565b90600052602060002090601f0160209004810192826127f3576000855561283a565b82601f1061280c57805160ff191683800117855561283a565b8280016001018555821561283a579182015b8281111561283957825182559160200191906001019061281e565b5b509050612847919061284b565b5090565b5b8082111561286457600081600090555060010161284c565b5090565b600061287b612876846134cb565b61349a565b90508281526020810184848401111561289357600080fd5b61289e848285613611565b509392505050565b60006128b96128b4846134cb565b61349a565b9050828152602081018484840111156128d157600080fd5b6128dc848285613620565b509392505050565b6000815190506128f38161376c565b92915050565b600082601f83011261290a57600080fd5b813561291a848260208601612868565b91505092915050565b600082601f83011261293457600080fd5b81516129448482602086016128a6565b91505092915050565b60006080828403121561295f57600080fd5b612969608061349a565b9050600082015167ffffffffffffffff81111561298557600080fd5b61299184828501612923565b600083015250602082015167ffffffffffffffff8111156129b157600080fd5b6129bd84828501612923565b602083015250604082015167ffffffffffffffff8111156129dd57600080fd5b6129e984828501612923565b604083015250606082015167ffffffffffffffff811115612a0957600080fd5b612a1584828501612923565b60608301525092915050565b600081359050612a3081613783565b92915050565b600081519050612a4581613783565b92915050565b600060208284031215612a5d57600080fd5b6000612a6b848285016128e4565b91505092915050565b600060208284031215612a8657600080fd5b600082015167ffffffffffffffff811115612aa057600080fd5b612aac84828501612923565b91505092915050565b60008060408385031215612ac857600080fd5b600083013567ffffffffffffffff811115612ae257600080fd5b612aee858286016128f9565b925050602083013567ffffffffffffffff811115612b0b57600080fd5b612b17858286016128f9565b9150509250929050565b60008060008060808587031215612b3757600080fd5b600085013567ffffffffffffffff811115612b5157600080fd5b612b5d878288016128f9565b945050602085013567ffffffffffffffff811115612b7a57600080fd5b612b86878288016128f9565b935050604085013567ffffffffffffffff811115612ba357600080fd5b612baf878288016128f9565b925050606085013567ffffffffffffffff811115612bcc57600080fd5b612bd8878288016128f9565b91505092959194509250565b600080600080600080600060e0888a031215612bff57600080fd5b600088013567ffffffffffffffff811115612c1957600080fd5b612c258a828b016128f9565b975050602088013567ffffffffffffffff811115612c4257600080fd5b612c4e8a828b016128f9565b965050604088013567ffffffffffffffff811115612c6b57600080fd5b612c778a828b016128f9565b955050606088013567ffffffffffffffff811115612c9457600080fd5b612ca08a828b016128f9565b945050608088013567ffffffffffffffff811115612cbd57600080fd5b612cc98a828b016128f9565b93505060a088013567ffffffffffffffff811115612ce657600080fd5b612cf28a828b016128f9565b92505060c088013567ffffffffffffffff811115612d0f57600080fd5b612d1b8a828b016128f9565b91505092959891949750929550565b60008060408385031215612d3d57600080fd5b600083013567ffffffffffffffff811115612d5757600080fd5b612d63858286016128f9565b9250506020612d7485828601612a21565b9150509250929050565b600060208284031215612d9057600080fd5b600082015167ffffffffffffffff811115612daa57600080fd5b612db68482850161294d565b91505092915050565b600060208284031215612dd157600080fd5b6000612ddf84828501612a36565b91505092915050565b6000612df483836130f5565b905092915050565b612e0581613581565b82525050565b6000612e1682613520565b612e208185613543565b935083602082028501612e32856134fb565b8060005b85811015612e6e5784840389528151612e4f8582612de8565b9450612e5a83613536565b925060208a01995050600181019050612e36565b50829750879550505050505092915050565b612e8981613593565b82525050565b612e98816135c9565b82525050565b612ea7816135ed565b82525050565b6000612eb88261352b565b612ec28185613554565b9350612ed2818560208601613620565b612edb8161375b565b840191505092915050565b6000612ef18261352b565b612efb8185613565565b9350612f0b818560208601613620565b612f148161375b565b840191505092915050565b6000612f2a8261352b565b612f348185613576565b9350612f44818560208601613620565b80840191505092915050565b60008154612f5d81613653565b612f678186613576565b94506001821660008114612f825760018114612f9357612fc6565b60ff19831686528186019350612fc6565b612f9c8561350b565b60005b83811015612fbe57815481890152600182019150602081019050612f9f565b838801955050505b50505092915050565b6000612fdc602883613565565b91507f4e6f7420617574686f72697a656420746f2061646420646f63746f722061737360008301527f6f63696174696f6e0000000000000000000000000000000000000000000000006020830152604082019050919050565b6000613042601d83613565565b91507f50617469656e74204e4943206973206e6f7420726567697374657265640000006000830152602082019050919050565b6000613082601f83613565565b91507f496e76616c69642063616c6c65722061646472657373206f7220746f6b656e006000830152602082019050919050565b60006130c2601c83613565565b91507f446f63746f72204e4943206973206e6f742072656769737465726564000000006000830152602082019050919050565b600060c08301600083015184820360008601526131128282612ead565b9150506020830151848203602086015261312c8282612ead565b915050604083015184820360408601526131468282612ead565b915050606083015184820360608601526131608282612ead565b9150506080830151848203608086015261317a8282612ead565b91505060a083015184820360a08601526131948282612ead565b9150508091505092915050565b600060808301600083015184820360008601526131be8282612ead565b915050602083015184820360208601526131d88282612ead565b915050604083015184820360408601526131f28282612ead565b9150506060830151848203606086015261320c8282612ead565b9150508091505092915050565b613222816135bf565b82525050565b60006132348284612f1f565b915081905092915050565b600061324b8284612f50565b915081905092915050565b600060208201905061326b6000830184612dfc565b92915050565b6000602082019050818103600083015261328b8184612e0b565b905092915050565b60006020820190506132a86000830184612e80565b92915050565b60006020820190506132c36000830184612e8f565b92915050565b60006020820190506132de6000830184612e9e565b92915050565b600060208201905081810360008301526132fe8184612ee6565b905092915050565b600060608201905081810360008301526133208186612ee6565b905081810360208301526133348185612ee6565b905081810360408301526133488184612ee6565b9050949350505050565b600060c082019050818103600083015261336c8189612ee6565b905081810360208301526133808188612ee6565b905081810360408301526133948187612ee6565b905081810360608301526133a88186612ee6565b905081810360808301526133bc8185612ee6565b905081810360a08301526133d08184612ee6565b9050979650505050505050565b600060208201905081810360008301526133f681612fcf565b9050919050565b6000602082019050818103600083015261341681613035565b9050919050565b6000602082019050818103600083015261343681613075565b9050919050565b60006020820190508181036000830152613456816130b5565b9050919050565b6000602082019050818103600083015261347781846131a1565b905092915050565b60006020820190506134946000830184613219565b92915050565b6000604051905081810181811067ffffffffffffffff821117156134c1576134c061372c565b5b8060405250919050565b600067ffffffffffffffff8211156134e6576134e561372c565b5b601f19601f8301169050602081019050919050565b6000819050602082019050919050565b60008190508160005260206000209050919050565b600081519050919050565b600081519050919050565b6000602082019050919050565b600082825260208201905092915050565b600082825260208201905092915050565b600082825260208201905092915050565b600081905092915050565b600061358c8261359f565b9050919050565b60008115159050919050565b600073ffffffffffffffffffffffffffffffffffffffff82169050919050565b6000819050919050565b60006135d4826135db565b9050919050565b60006135e68261359f565b9050919050565b60006135f8826135ff565b9050919050565b600061360a8261359f565b9050919050565b82818337600083830152505050565b60005b8381101561363e578082015181840152602081019050613623565b8381111561364d576000848401525b50505050565b6000600282049050600182168061366b57607f821691505b6020821081141561367f5761367e6136fd565b5b50919050565b6000613690826135bf565b91507fffffffffffffffffffffffffffffffffffffffffffffffffffffffffffffffff8214156136c3576136c26136ce565b5b600182019050919050565b7f4e487b7100000000000000000000000000000000000000000000000000000000600052601160045260246000fd5b7f4e487b7100000000000000000000000000000000000000000000000000000000600052602260045260246000fd5b7f4e487b7100000000000000000000000000000000000000000000000000000000600052604160045260246000fd5b6000601f19601f8301169050919050565b61377581613593565b811461378057600080fd5b50565b61378c816135bf565b811461379757600080fd5b5056fea2646970667358221220a6266edf8d220b6622b2ee5ae7638c7e3b93697d4593b9debcf7fab3656cc14b64736f6c63430008000033",
  "immutableReferences": {},
  "source": "// SPDX-License-Identifier: MIT \r\npragma solidity 0.8.0;\r\n\r\nimport \"./PatientEMR.sol\";\r\nimport \"./DoctorStorage.sol\";\r\n\r\ncontract DoctorAssociationContract {\r\n    address public owner;\r\n    PatientEMR public patientEMRContract;\r\n    DoctorStorage public doctorStorageContract;\r\n\r\n    modifier onlyOwner() {\r\n        require(msg.sender == owner, \"Only the owner can call this function\");\r\n        _;\r\n    }\r\n\r\n    constructor(address _patientEMRContract, address _doctorStorageContract) {\r\n        owner = msg.sender;\r\n        patientEMRContract = PatientEMR(_patientEMRContract);\r\n        doctorStorageContract = DoctorStorage(_doctorStorageContract);\r\n    }\r\n\r\n    struct DoctorAssociation {\r\n        string patientNic;\r\n        string doctorNic;\r\n        string appointmentId;\r\n        string token;\r\n        string validateDate;\r\n        string doctorWalletAddress;\r\n    }\r\n\r\n    // Mapping to store associations for each patient\r\n    mapping(string => DoctorAssociation[]) public patientDoctorAssociations;\r\n    event DoctorAssociated(string patientNic, string doctorNic, string token);\r\n\r\n    // Function to associate a doctor with a patient\r\n    function associateDoctorWithPatient(\r\n        string memory patientNic,\r\n        string memory doctorNic,\r\n        string memory appointmentId,\r\n        string memory token,\r\n        string memory validateDate,\r\n        string memory doctorWalletAddress,\r\n        string memory patientWalletAddress\r\n    ) public {\r\n        require(doctorStorageContract.isNICAlreadyRegistered(doctorNic), \"Doctor NIC is not registered\");\r\n        require(\r\n            msg.sender == owner || keccak256(abi.encodePacked(patientWalletAddress)) == keccak256(abi.encodePacked(patientEMRContract.getPatientWalletAddress(patientNic))),\r\n            \"Not authorized to add doctor association\"\r\n        );\r\n\r\n        DoctorAssociation memory newAssociation = DoctorAssociation({\r\n            patientNic: patientNic,\r\n            doctorNic: doctorNic,\r\n            appointmentId: appointmentId,\r\n            token: token,\r\n            validateDate: validateDate,\r\n            doctorWalletAddress: doctorWalletAddress\r\n        });\r\n\r\n        // Add the new association to the array\r\n        patientDoctorAssociations[patientNic].push(newAssociation);\r\n\r\n        emit DoctorAssociated(patientNic, doctorNic, token);\r\n    }\r\n\r\n    // Doctor Association\r\n    function getDoctorAssociationsByDoctorNicAndWallet(string memory doctorNic, string memory doctorWalletAddress) public view returns (DoctorAssociation[] memory) {\r\n        require(doctorStorageContract.isNICAlreadyRegistered(doctorNic), \"Doctor NIC is not registered\");\r\n\r\n        uint256 count = 0;\r\n        DoctorAssociation[] memory doctorAssociations;\r\n\r\n        // Count the number of associations associated with the doctor\r\n        for (uint256 i = 0; i < patientEMRContract.getRegisteredNICsCount(); i++) {\r\n            string memory patientNic = patientEMRContract.getRegisteredNICAtIndex(i);\r\n            DoctorAssociation[] storage associations = patientDoctorAssociations[patientNic];\r\n            for (uint256 j = 0; j < associations.length; j++) {\r\n                if (keccak256(abi.encodePacked(associations[j].doctorNic)) == keccak256(abi.encodePacked(doctorNic))) {\r\n                    count++;\r\n                }\r\n            }\r\n        }\r\n\r\n        // Check if there are associations\r\n        if (count > 0) {\r\n            doctorAssociations = new DoctorAssociation[](count);\r\n            uint256 index = 0;\r\n\r\n            // Retrieve doctor associations\r\n            for (uint256 i = 0; i < patientEMRContract.getRegisteredNICsCount(); i++) {\r\n                string memory patientNic = patientEMRContract.getRegisteredNICAtIndex(i);\r\n                DoctorAssociation[] storage associations = patientDoctorAssociations[patientNic];\r\n                for (uint256 j = 0; j < associations.length; j++) {\r\n                    if (keccak256(abi.encodePacked(associations[j].doctorNic)) == keccak256(abi.encodePacked(doctorNic))) {\r\n                        // Check if the wallet address matches\r\n                        if (keccak256(abi.encodePacked(associations[j].doctorWalletAddress)) == keccak256(abi.encodePacked(doctorWalletAddress))) {\r\n                            doctorAssociations[index] = associations[j];\r\n                            index++;\r\n                        }\r\n                    }\r\n                }\r\n            }\r\n        }\r\n\r\n        return doctorAssociations;\r\n    }\r\n\r\n    function getPatientsForTodayByDoctorNic(string memory doctorNic, string memory todayDate) public view returns (DoctorAssociation[] memory) {\r\n        uint256 count = 0;\r\n\r\n        // Count the number of patients associated with the doctor for the given date\r\n        for (uint256 i = 0; i < patientEMRContract.getRegisteredNICsCount(); i++) {\r\n            string memory patientNic = patientEMRContract.getRegisteredNICAtIndex(i);\r\n            DoctorAssociation[] storage associations = patientDoctorAssociations[patientNic];\r\n            for (uint256 j = 0; j < associations.length; j++) {\r\n                if (keccak256(abi.encodePacked(associations[j].doctorNic)) == keccak256(abi.encodePacked(doctorNic)) &&\r\n                    keccak256(abi.encodePacked(associations[j].validateDate)) == keccak256(abi.encodePacked(todayDate))) {\r\n                    count++;\r\n                }\r\n            }\r\n        }\r\n\r\n        // Create an array to store patient associations\r\n        DoctorAssociation[] memory patientAssociations = new DoctorAssociation[](count);\r\n        uint256 index = 0;\r\n\r\n        // Retrieve patient associations for the given date\r\n        for (uint256 i = 0; i < patientEMRContract.getRegisteredNICsCount(); i++) {\r\n            string memory patientNic = patientEMRContract.getRegisteredNICAtIndex(i);\r\n            DoctorAssociation[] storage associations = patientDoctorAssociations[patientNic];\r\n            for (uint256 j = 0; j < associations.length; j++) {\r\n                if (keccak256(abi.encodePacked(associations[j].doctorNic)) == keccak256(abi.encodePacked(doctorNic)) &&\r\n                    keccak256(abi.encodePacked(associations[j].validateDate)) == keccak256(abi.encodePacked(todayDate))) {\r\n                    patientAssociations[index] = associations[j];\r\n                    index++;\r\n                }\r\n            }\r\n        }\r\n\r\n        return patientAssociations;\r\n    }\r\n\r\n    function isCallerAssociatedWithPatient(string memory patientNic, string memory walletAddress, string memory token, string memory todayDate) public view returns (bool) {\r\n        DoctorAssociation[] memory doctorAssociationsList = patientDoctorAssociations[patientNic];\r\n        \r\n        for (uint256 i = 0; i < doctorAssociationsList.length; i++) {\r\n            if (\r\n                keccak256(abi.encodePacked(doctorAssociationsList[i].doctorWalletAddress)) == keccak256(abi.encodePacked(walletAddress)) &&\r\n                keccak256(abi.encodePacked(doctorAssociationsList[i].token)) == keccak256(abi.encodePacked(token)) &&\r\n                keccak256(abi.encodePacked(doctorAssociationsList[i].validateDate)) == keccak256(abi.encodePacked(todayDate))\r\n            ) {\r\n                return true;\r\n            }\r\n        }\r\n\r\n        return false;\r\n    }\r\n\r\n    function getEMRData(string memory patientNic, string memory token, string memory todayDate, string memory walletAddress) public view returns (PatientEMR.EMR memory) {\r\n        require(patientEMRContract.isNICRegistered(patientNic), \"Patient NIC is not registered\");\r\n        require(isCallerAssociatedWithPatient(patientNic, walletAddress, token, todayDate), \"Invalid caller address or token\");\r\n        return patientEMRContract.doctorGetEMRData(patientNic);\r\n    }\r\n}",
  "sourcePath": "C:\\Users\\avjc2\\Documents\\S2 BINUS\\THESIS\\BLOCKCHAIN\\APPLICATIONS\\EMRIHsystem\\smart_contracts\\contracts\\DoctorAssociationContract.sol",
  "compiler": {
    "name": "solc",
    "version": "0.8.0+commit.c7dfd78e.Emscripten.clang"
  },
  "schemaVersion": "3.4.16",
  "updatedAt": "2024-02-02T15:16:24.863Z",
  "networkType": "ethereum",
  "devdoc": {
    "kind": "dev",
    "methods": {},
    "version": 1
  },
  "userdoc": {
    "kind": "user",
    "methods": {},
    "version": 1
  }
}