{
  "contractName": "DoctorStorage",
  "abi": [
    {
      "inputs": [
        {
          "internalType": "address",
          "name": "_patientEMRContract",
          "type": "address"
        }
      ],
      "stateMutability": "nonpayable",
      "type": "constructor"
    },
    {
      "anonymous": false,
      "inputs": [
        {
          "indexed": false,
          "internalType": "string",
          "name": "email",
          "type": "string"
        },
        {
          "indexed": false,
          "internalType": "string",
          "name": "name",
          "type": "string"
        },
        {
          "indexed": false,
          "internalType": "string",
          "name": "nic",
          "type": "string"
        },
        {
          "indexed": false,
          "internalType": "string",
          "name": "hospital",
          "type": "string"
        }
      ],
      "name": "DoctorAdded",
      "type": "event"
    },
    {
      "anonymous": false,
      "inputs": [
        {
          "indexed": false,
          "internalType": "string",
          "name": "patientNic",
          "type": "string"
        },
        {
          "indexed": false,
          "internalType": "string",
          "name": "doctorNic",
          "type": "string"
        },
        {
          "indexed": false,
          "internalType": "string",
          "name": "token",
          "type": "string"
        }
      ],
      "name": "DoctorAssociated",
      "type": "event"
    },
    {
      "anonymous": false,
      "inputs": [
        {
          "indexed": false,
          "internalType": "string",
          "name": "doctorNic",
          "type": "string"
        }
      ],
      "name": "DoctorDeleted",
      "type": "event"
    },
    {
      "anonymous": false,
      "inputs": [
        {
          "indexed": false,
          "internalType": "string",
          "name": "email",
          "type": "string"
        },
        {
          "indexed": false,
          "internalType": "string",
          "name": "name",
          "type": "string"
        },
        {
          "indexed": false,
          "internalType": "string",
          "name": "telephone",
          "type": "string"
        },
        {
          "indexed": false,
          "internalType": "string",
          "name": "specialties",
          "type": "string"
        }
      ],
      "name": "DoctorUpdated",
      "type": "event"
    },
    {
      "inputs": [
        {
          "internalType": "uint256",
          "name": "",
          "type": "uint256"
        }
      ],
      "name": "doctorRegisteredNICs",
      "outputs": [
        {
          "internalType": "string",
          "name": "",
          "type": "string"
        }
      ],
      "stateMutability": "view",
      "type": "function",
      "constant": true
    },
    {
      "inputs": [
        {
          "internalType": "string",
          "name": "",
          "type": "string"
        }
      ],
      "name": "doctors",
      "outputs": [
        {
          "internalType": "string",
          "name": "email",
          "type": "string"
        },
        {
          "internalType": "string",
          "name": "name",
          "type": "string"
        },
        {
          "internalType": "string",
          "name": "password",
          "type": "string"
        },
        {
          "internalType": "string",
          "name": "nic",
          "type": "string"
        },
        {
          "internalType": "string",
          "name": "telephone",
          "type": "string"
        },
        {
          "internalType": "string",
          "name": "walletAddress",
          "type": "string"
        },
        {
          "internalType": "string",
          "name": "specialties",
          "type": "string"
        },
        {
          "internalType": "string",
          "name": "hospital",
          "type": "string"
        }
      ],
      "stateMutability": "view",
      "type": "function",
      "constant": true
    },
    {
      "inputs": [
        {
          "internalType": "string",
          "name": "",
          "type": "string"
        }
      ],
      "name": "isNICRegistered",
      "outputs": [
        {
          "internalType": "bool",
          "name": "",
          "type": "bool"
        }
      ],
      "stateMutability": "view",
      "type": "function",
      "constant": true
    },
    {
      "inputs": [
        {
          "internalType": "string",
          "name": "",
          "type": "string"
        }
      ],
      "name": "isWalletRegistered",
      "outputs": [
        {
          "internalType": "bool",
          "name": "",
          "type": "bool"
        }
      ],
      "stateMutability": "view",
      "type": "function",
      "constant": true
    },
    {
      "inputs": [],
      "name": "owner",
      "outputs": [
        {
          "internalType": "address",
          "name": "",
          "type": "address"
        }
      ],
      "stateMutability": "view",
      "type": "function",
      "constant": true
    },
    {
      "inputs": [],
      "name": "patientEMRContract",
      "outputs": [
        {
          "internalType": "contract PatientEMR",
          "name": "",
          "type": "address"
        }
      ],
      "stateMutability": "view",
      "type": "function",
      "constant": true
    },
    {
      "inputs": [
        {
          "internalType": "uint256",
          "name": "",
          "type": "uint256"
        }
      ],
      "name": "registeredNICs",
      "outputs": [
        {
          "internalType": "string",
          "name": "",
          "type": "string"
        }
      ],
      "stateMutability": "view",
      "type": "function",
      "constant": true
    },
    {
      "inputs": [
        {
          "internalType": "string",
          "name": "email",
          "type": "string"
        },
        {
          "internalType": "string",
          "name": "name",
          "type": "string"
        },
        {
          "internalType": "string",
          "name": "password",
          "type": "string"
        },
        {
          "internalType": "string",
          "name": "nic",
          "type": "string"
        },
        {
          "internalType": "string",
          "name": "telephone",
          "type": "string"
        },
        {
          "internalType": "string",
          "name": "walletAddress",
          "type": "string"
        },
        {
          "internalType": "string",
          "name": "specialties",
          "type": "string"
        },
        {
          "internalType": "string",
          "name": "hospital",
          "type": "string"
        }
      ],
      "name": "addDoctor",
      "outputs": [],
      "stateMutability": "nonpayable",
      "type": "function"
    },
    {
      "inputs": [
        {
          "internalType": "string",
          "name": "doctorNic",
          "type": "string"
        },
        {
          "internalType": "string",
          "name": "newEmail",
          "type": "string"
        },
        {
          "internalType": "string",
          "name": "newName",
          "type": "string"
        },
        {
          "internalType": "string",
          "name": "newTelephone",
          "type": "string"
        },
        {
          "internalType": "string",
          "name": "newSpecialties",
          "type": "string"
        }
      ],
      "name": "updateDoctorData",
      "outputs": [],
      "stateMutability": "nonpayable",
      "type": "function"
    },
    {
      "inputs": [
        {
          "internalType": "string",
          "name": "nic",
          "type": "string"
        }
      ],
      "name": "isNICAlreadyRegistered",
      "outputs": [
        {
          "internalType": "bool",
          "name": "",
          "type": "bool"
        }
      ],
      "stateMutability": "view",
      "type": "function",
      "constant": true
    },
    {
      "inputs": [
        {
          "internalType": "string",
          "name": "doctorNic",
          "type": "string"
        }
      ],
      "name": "getDoctorDetails",
      "outputs": [
        {
          "components": [
            {
              "internalType": "string",
              "name": "email",
              "type": "string"
            },
            {
              "internalType": "string",
              "name": "name",
              "type": "string"
            },
            {
              "internalType": "string",
              "name": "password",
              "type": "string"
            },
            {
              "internalType": "string",
              "name": "nic",
              "type": "string"
            },
            {
              "internalType": "string",
              "name": "telephone",
              "type": "string"
            },
            {
              "internalType": "string",
              "name": "walletAddress",
              "type": "string"
            },
            {
              "internalType": "string",
              "name": "specialties",
              "type": "string"
            },
            {
              "internalType": "string",
              "name": "hospital",
              "type": "string"
            }
          ],
          "internalType": "struct DoctorStorage.Doctor",
          "name": "",
          "type": "tuple"
        }
      ],
      "stateMutability": "view",
      "type": "function",
      "constant": true
    },
    {
      "inputs": [
        {
          "internalType": "string",
          "name": "email",
          "type": "string"
        },
        {
          "internalType": "string",
          "name": "password",
          "type": "string"
        },
        {
          "internalType": "string",
          "name": "doctorNic",
          "type": "string"
        },
        {
          "internalType": "string",
          "name": "hospital",
          "type": "string"
        }
      ],
      "name": "validateDoctorLogin",
      "outputs": [
        {
          "internalType": "string",
          "name": "message",
          "type": "string"
        },
        {
          "components": [
            {
              "internalType": "string",
              "name": "email",
              "type": "string"
            },
            {
              "internalType": "string",
              "name": "name",
              "type": "string"
            },
            {
              "internalType": "string",
              "name": "password",
              "type": "string"
            },
            {
              "internalType": "string",
              "name": "nic",
              "type": "string"
            },
            {
              "internalType": "string",
              "name": "telephone",
              "type": "string"
            },
            {
              "internalType": "string",
              "name": "walletAddress",
              "type": "string"
            },
            {
              "internalType": "string",
              "name": "specialties",
              "type": "string"
            },
            {
              "internalType": "string",
              "name": "hospital",
              "type": "string"
            }
          ],
          "internalType": "struct DoctorStorage.Doctor",
          "name": "doctorData",
          "type": "tuple"
        }
      ],
      "stateMutability": "view",
      "type": "function",
      "constant": true
    },
    {
      "inputs": [
        {
          "internalType": "string",
          "name": "doctorNic",
          "type": "string"
        }
      ],
      "name": "deleteDoctor",
      "outputs": [],
      "stateMutability": "nonpayable",
      "type": "function"
    }
  ],
  "bytecode": "0x60806040523480156200001157600080fd5b5060405162002d3f38038062002d3f8339818101604052810190620000379190620000d6565b336000806101000a81548173ffffffffffffffffffffffffffffffffffffffff021916908373ffffffffffffffffffffffffffffffffffffffff16021790555080600160006101000a81548173ffffffffffffffffffffffffffffffffffffffff021916908373ffffffffffffffffffffffffffffffffffffffff1602179055505062000150565b600081519050620000d08162000136565b92915050565b600060208284031215620000e957600080fd5b6000620000f984828501620000bf565b91505092915050565b60006200010f8262000116565b9050919050565b600073ffffffffffffffffffffffffffffffffffffffff82169050919050565b620001418162000102565b81146200014d57600080fd5b50565b612bdf80620001606000396000f3fe608060405234801561001057600080fd5b50600436106100cf5760003560e01c80636df2546e1161008c578063d1ec126011610066578063d1ec126014610254578063f26a7de414610270578063f6b014a71461028c578063f96c31d1146102bc576100cf565b80636df2546e146101e85780638da5cb5b14610206578063b584916c14610224576100cf565b806305c35ce5146100d45780630ee058801461010b57806314c8baa91461013b57806335361aaa1461016b5780633e7697671461018757806367cc675f146101b7575b600080fd5b6100ee60048036038101906100e99190611fab565b6102ec565b6040516101029897969594939291906127bb565b60405180910390f35b61012560048036038101906101209190611fab565b61078a565b6040516101329190612702565b60405180910390f35b61015560048036038101906101509190611fab565b6107c0565b6040516101629190612702565b60405180910390f35b6101856004803603810190610180919061219e565b6107f5565b005b6101a1600480360381019061019c9190611fab565b610af2565b6040516101ae9190612988565b60405180910390f35b6101d160048036038101906101cc9190611fec565b611026565b6040516101df929190612871565b60405180910390f35b6101f0611865565b6040516101fd919061271d565b60405180910390f35b61020e61188b565b60405161021b91906126e7565b60405180910390f35b61023e60048036038101906102399190612310565b6118af565b60405161024b9190612738565b60405180910390f35b61026e600480360381019061026991906120af565b61195b565b005b61028a60048036038101906102859190611fab565b611b4b565b005b6102a660048036038101906102a19190611fab565b611d24565b6040516102b39190612702565b60405180910390f35b6102d660048036038101906102d19190612310565b611d5a565b6040516102e39190612738565b60405180910390f35b60028180516020810182018051848252602083016020850120818352809550505050505060009150905080600001805461032590612af1565b80601f016020809104026020016040519081016040528092919081815260200182805461035190612af1565b801561039e5780601f106103735761010080835404028352916020019161039e565b820191906000526020600020905b81548152906001019060200180831161038157829003601f168201915b5050505050908060010180546103b390612af1565b80601f01602080910402602001604051908101604052809291908181526020018280546103df90612af1565b801561042c5780601f106104015761010080835404028352916020019161042c565b820191906000526020600020905b81548152906001019060200180831161040f57829003601f168201915b50505050509080600201805461044190612af1565b80601f016020809104026020016040519081016040528092919081815260200182805461046d90612af1565b80156104ba5780601f1061048f576101008083540402835291602001916104ba565b820191906000526020600020905b81548152906001019060200180831161049d57829003601f168201915b5050505050908060030180546104cf90612af1565b80601f01602080910402602001604051908101604052809291908181526020018280546104fb90612af1565b80156105485780601f1061051d57610100808354040283529160200191610548565b820191906000526020600020905b81548152906001019060200180831161052b57829003601f168201915b50505050509080600401805461055d90612af1565b80601f016020809104026020016040519081016040528092919081815260200182805461058990612af1565b80156105d65780601f106105ab576101008083540402835291602001916105d6565b820191906000526020600020905b8154815290600101906020018083116105b957829003601f168201915b5050505050908060050180546105eb90612af1565b80601f016020809104026020016040519081016040528092919081815260200182805461061790612af1565b80156106645780601f1061063957610100808354040283529160200191610664565b820191906000526020600020905b81548152906001019060200180831161064757829003601f168201915b50505050509080600601805461067990612af1565b80601f01602080910402602001604051908101604052809291908181526020018280546106a590612af1565b80156106f25780601f106106c7576101008083540402835291602001916106f2565b820191906000526020600020905b8154815290600101906020018083116106d557829003601f168201915b50505050509080600701805461070790612af1565b80601f016020809104026020016040519081016040528092919081815260200182805461073390612af1565b80156107805780601f1061075557610100808354040283529160200191610780565b820191906000526020600020905b81548152906001019060200180831161076357829003601f168201915b5050505050905088565b6004818051602081018201805184825260208301602085012081835280955050505050506000915054906101000a900460ff1681565b60006003826040516107d291906126d0565b908152602001604051809103902060009054906101000a900460ff169050919050565b60008054906101000a900473ffffffffffffffffffffffffffffffffffffffff1673ffffffffffffffffffffffffffffffffffffffff163373ffffffffffffffffffffffffffffffffffffffff1614610883576040517f08c379a000000000000000000000000000000000000000000000000000000000815260040161087a906128a8565b60405180910390fd5b60038560405161089391906126d0565b908152602001604051809103902060009054906101000a900460ff16156108ef576040517f08c379a00000000000000000000000000000000000000000000000000000000081526004016108e690612928565b60405180910390fd5b60006040518061010001604052808a81526020018981526020018881526020018781526020018681526020018581526020018481526020018381525090508060028760405161093e91906126d0565b90815260200160405180910390206000820151816000019080519060200190610968929190611e06565b506020820151816001019080519060200190610985929190611e06565b5060408201518160020190805190602001906109a2929190611e06565b5060608201518160030190805190602001906109bf929190611e06565b5060808201518160040190805190602001906109dc929190611e06565b5060a08201518160050190805190602001906109f9929190611e06565b5060c0820151816006019080519060200190610a16929190611e06565b5060e0820151816007019080519060200190610a33929190611e06565b509050506001600387604051610a4991906126d0565b908152602001604051809103902060006101000a81548160ff021916908315150217905550600686908060018154018082558091505060019003906000526020600020016000909190919091509080519060200190610aa9929190611e06565b507f7ebb789ad5cef3485983ee098a736771fe841dd944d776f28811db22faf5022289898885604051610adf949392919061275a565b60405180910390a1505050505050505050565b610afa611e8c565b600382604051610b0a91906126d0565b908152602001604051809103902060009054906101000a900460ff16610b65576040517f08c379a0000000000000000000000000000000000000000000000000000000008152600401610b5c90612968565b60405180910390fd5b600282604051610b7591906126d0565b908152602001604051809103902060405180610100016040529081600082018054610b9f90612af1565b80601f0160208091040260200160405190810160405280929190818152602001828054610bcb90612af1565b8015610c185780601f10610bed57610100808354040283529160200191610c18565b820191906000526020600020905b815481529060010190602001808311610bfb57829003601f168201915b50505050508152602001600182018054610c3190612af1565b80601f0160208091040260200160405190810160405280929190818152602001828054610c5d90612af1565b8015610caa5780601f10610c7f57610100808354040283529160200191610caa565b820191906000526020600020905b815481529060010190602001808311610c8d57829003601f168201915b50505050508152602001600282018054610cc390612af1565b80601f0160208091040260200160405190810160405280929190818152602001828054610cef90612af1565b8015610d3c5780601f10610d1157610100808354040283529160200191610d3c565b820191906000526020600020905b815481529060010190602001808311610d1f57829003601f168201915b50505050508152602001600382018054610d5590612af1565b80601f0160208091040260200160405190810160405280929190818152602001828054610d8190612af1565b8015610dce5780601f10610da357610100808354040283529160200191610dce565b820191906000526020600020905b815481529060010190602001808311610db157829003601f168201915b50505050508152602001600482018054610de790612af1565b80601f0160208091040260200160405190810160405280929190818152602001828054610e1390612af1565b8015610e605780601f10610e3557610100808354040283529160200191610e60565b820191906000526020600020905b815481529060010190602001808311610e4357829003601f168201915b50505050508152602001600582018054610e7990612af1565b80601f0160208091040260200160405190810160405280929190818152602001828054610ea590612af1565b8015610ef25780601f10610ec757610100808354040283529160200191610ef2565b820191906000526020600020905b815481529060010190602001808311610ed557829003601f168201915b50505050508152602001600682018054610f0b90612af1565b80601f0160208091040260200160405190810160405280929190818152602001828054610f3790612af1565b8015610f845780601f10610f5957610100808354040283529160200191610f84565b820191906000526020600020905b815481529060010190602001808311610f6757829003601f168201915b50505050508152602001600782018054610f9d90612af1565b80601f0160208091040260200160405190810160405280929190818152602001828054610fc990612af1565b80156110165780601f10610feb57610100808354040283529160200191611016565b820191906000526020600020905b815481529060010190602001808311610ff957829003601f168201915b5050505050815250509050919050565b6060611030611e8c565b60038460405161104091906126d0565b908152602001604051809103902060009054906101000a900460ff161561176f57600060028560405161107391906126d0565b90815260200160405180910390206040518061010001604052908160008201805461109d90612af1565b80601f01602080910402602001604051908101604052809291908181526020018280546110c990612af1565b80156111165780601f106110eb57610100808354040283529160200191611116565b820191906000526020600020905b8154815290600101906020018083116110f957829003601f168201915b5050505050815260200160018201805461112f90612af1565b80601f016020809104026020016040519081016040528092919081815260200182805461115b90612af1565b80156111a85780601f1061117d576101008083540402835291602001916111a8565b820191906000526020600020905b81548152906001019060200180831161118b57829003601f168201915b505050505081526020016002820180546111c190612af1565b80601f01602080910402602001604051908101604052809291908181526020018280546111ed90612af1565b801561123a5780601f1061120f5761010080835404028352916020019161123a565b820191906000526020600020905b81548152906001019060200180831161121d57829003601f168201915b5050505050815260200160038201805461125390612af1565b80601f016020809104026020016040519081016040528092919081815260200182805461127f90612af1565b80156112cc5780601f106112a1576101008083540402835291602001916112cc565b820191906000526020600020905b8154815290600101906020018083116112af57829003601f168201915b505050505081526020016004820180546112e590612af1565b80601f016020809104026020016040519081016040528092919081815260200182805461131190612af1565b801561135e5780601f106113335761010080835404028352916020019161135e565b820191906000526020600020905b81548152906001019060200180831161134157829003601f168201915b5050505050815260200160058201805461137790612af1565b80601f01602080910402602001604051908101604052809291908181526020018280546113a390612af1565b80156113f05780601f106113c5576101008083540402835291602001916113f0565b820191906000526020600020905b8154815290600101906020018083116113d357829003601f168201915b5050505050815260200160068201805461140990612af1565b80601f016020809104026020016040519081016040528092919081815260200182805461143590612af1565b80156114825780601f1061145757610100808354040283529160200191611482565b820191906000526020600020905b81548152906001019060200180831161146557829003601f168201915b5050505050815260200160078201805461149b90612af1565b80601f01602080910402602001604051908101604052809291908181526020018280546114c790612af1565b80156115145780601f106114e957610100808354040283529160200191611514565b820191906000526020600020905b8154815290600101906020018083116114f757829003601f168201915b5050505050815250509050806000015160405160200161153491906126d0565b604051602081830303815290604052805190602001208760405160200161155b91906126d0565b60405160208183030381529060405280519060200120146115b1576040517f08c379a00000000000000000000000000000000000000000000000000000000081526004016115a8906128e8565b60405180910390fd5b80604001516040516020016115c691906126d0565b60405160208183030381529060405280519060200120866040516020016115ed91906126d0565b6040516020818303038152906040528051906020012014611643576040517f08c379a000000000000000000000000000000000000000000000000000000000815260040161163a90612948565b60405180910390fd5b8060e0015160405160200161165891906126d0565b604051602081830303815290604052805190602001208460405160200161167f91906126d0565b60405160208183030381529060405280519060200120146116d5576040517f08c379a00000000000000000000000000000000000000000000000000000000081526004016116cc90612908565b60405180910390fd5b6040518060400160405280601281526020017f4c6f67696e205375636365737366756c6c790000000000000000000000000000815250925060405180610100016040528082600001518152602001826020015181526020018260400151815260200182606001518152602001826080015181526020018260a0015181526020018260c0015181526020018260e0015181525091505061185c565b6040518060400160405280601981526020017f446f63746f72204e4943206e6f7420726567697374657265640000000000000081525091506040518061010001604052806040518060200160405280600081525081526020016040518060200160405280600081525081526020016040518060200160405280600081525081526020016040518060200160405280600081525081526020016040518060200160405280600081525081526020016040518060200160405280600081525081526020016040518060200160405280600081525081526020016040518060200160405280600081525081525090505b94509492505050565b600160009054906101000a900473ffffffffffffffffffffffffffffffffffffffff1681565b60008054906101000a900473ffffffffffffffffffffffffffffffffffffffff1681565b600581815481106118bf57600080fd5b9060005260206000200160009150905080546118da90612af1565b80601f016020809104026020016040519081016040528092919081815260200182805461190690612af1565b80156119535780601f1061192857610100808354040283529160200191611953565b820191906000526020600020905b81548152906001019060200180831161193657829003601f168201915b505050505081565b60008054906101000a900473ffffffffffffffffffffffffffffffffffffffff1673ffffffffffffffffffffffffffffffffffffffff163373ffffffffffffffffffffffffffffffffffffffff16146119e9576040517f08c379a00000000000000000000000000000000000000000000000000000000081526004016119e0906128a8565b60405180910390fd5b6003856040516119f991906126d0565b908152602001604051809103902060009054906101000a900460ff16611a54576040517f08c379a0000000000000000000000000000000000000000000000000000000008152600401611a4b90612968565b60405180910390fd5b6000600286604051611a6691906126d0565b90815260200160405180910390209050600085511115611a9a5784816000019080519060200190611a98929190611e06565b505b600084511115611abe5783816001019080519060200190611abc929190611e06565b505b600083511115611ae25782816004019080519060200190611ae0929190611e06565b505b600082511115611b065781816006019080519060200190611b04929190611e06565b505b7f739d396829a6187688e7e8a4eb8ae0eefaefc77d124db3f9aa31826d2a3abd8785858585604051611b3b949392919061275a565b60405180910390a1505050505050565b60008054906101000a900473ffffffffffffffffffffffffffffffffffffffff1673ffffffffffffffffffffffffffffffffffffffff163373ffffffffffffffffffffffffffffffffffffffff1614611bd9576040517f08c379a0000000000000000000000000000000000000000000000000000000008152600401611bd0906128a8565b60405180910390fd5b6000600282604051611beb91906126d0565b90815260200160405180910390206001018054611c0790612af1565b905011611c49576040517f08c379a0000000000000000000000000000000000000000000000000000000008152600401611c40906128c8565b60405180910390fd5b600281604051611c5991906126d0565b908152602001604051809103902060008082016000611c789190611ed1565b600182016000611c889190611ed1565b600282016000611c989190611ed1565b600382016000611ca89190611ed1565b600482016000611cb89190611ed1565b600582016000611cc89190611ed1565b600682016000611cd89190611ed1565b600782016000611ce89190611ed1565b50507f54f0253f337cc98abef6475d09f0d339e11eba44de49585126efdcec7879630f81604051611d199190612738565b60405180910390a150565b6003818051602081018201805184825260208301602085012081835280955050505050506000915054906101000a900460ff1681565b60068181548110611d6a57600080fd5b906000526020600020016000915090508054611d8590612af1565b80601f0160208091040260200160405190810160405280929190818152602001828054611db190612af1565b8015611dfe5780601f10611dd357610100808354040283529160200191611dfe565b820191906000526020600020905b815481529060010190602001808311611de157829003601f168201915b505050505081565b828054611e1290612af1565b90600052602060002090601f016020900481019282611e345760008555611e7b565b82601f10611e4d57805160ff1916838001178555611e7b565b82800160010185558215611e7b579182015b82811115611e7a578251825591602001919060010190611e5f565b5b509050611e889190611f11565b5090565b60405180610100016040528060608152602001606081526020016060815260200160608152602001606081526020016060815260200160608152602001606081525090565b508054611edd90612af1565b6000825580601f10611eef5750611f0e565b601f016020900490600052602060002090810190611f0d9190611f11565b5b50565b5b80821115611f2a576000816000905550600101611f12565b5090565b6000611f41611f3c846129db565b6129aa565b905082815260208101848484011115611f5957600080fd5b611f64848285612aaf565b509392505050565b600082601f830112611f7d57600080fd5b8135611f8d848260208601611f2e565b91505092915050565b600081359050611fa581612b92565b92915050565b600060208284031215611fbd57600080fd5b600082013567ffffffffffffffff811115611fd757600080fd5b611fe384828501611f6c565b91505092915050565b6000806000806080858703121561200257600080fd5b600085013567ffffffffffffffff81111561201c57600080fd5b61202887828801611f6c565b945050602085013567ffffffffffffffff81111561204557600080fd5b61205187828801611f6c565b935050604085013567ffffffffffffffff81111561206e57600080fd5b61207a87828801611f6c565b925050606085013567ffffffffffffffff81111561209757600080fd5b6120a387828801611f6c565b91505092959194509250565b600080600080600060a086880312156120c757600080fd5b600086013567ffffffffffffffff8111156120e157600080fd5b6120ed88828901611f6c565b955050602086013567ffffffffffffffff81111561210a57600080fd5b61211688828901611f6c565b945050604086013567ffffffffffffffff81111561213357600080fd5b61213f88828901611f6c565b935050606086013567ffffffffffffffff81111561215c57600080fd5b61216888828901611f6c565b925050608086013567ffffffffffffffff81111561218557600080fd5b61219188828901611f6c565b9150509295509295909350565b600080600080600080600080610100898b0312156121bb57600080fd5b600089013567ffffffffffffffff8111156121d557600080fd5b6121e18b828c01611f6c565b985050602089013567ffffffffffffffff8111156121fe57600080fd5b61220a8b828c01611f6c565b975050604089013567ffffffffffffffff81111561222757600080fd5b6122338b828c01611f6c565b965050606089013567ffffffffffffffff81111561225057600080fd5b61225c8b828c01611f6c565b955050608089013567ffffffffffffffff81111561227957600080fd5b6122858b828c01611f6c565b94505060a089013567ffffffffffffffff8111156122a257600080fd5b6122ae8b828c01611f6c565b93505060c089013567ffffffffffffffff8111156122cb57600080fd5b6122d78b828c01611f6c565b92505060e089013567ffffffffffffffff8111156122f457600080fd5b6123008b828c01611f6c565b9150509295985092959890939650565b60006020828403121561232257600080fd5b600061233084828501611f96565b91505092915050565b61234281612a43565b82525050565b61235181612a55565b82525050565b61236081612a8b565b82525050565b600061237182612a0b565b61237b8185612a16565b935061238b818560208601612abe565b61239481612b81565b840191505092915050565b60006123aa82612a0b565b6123b48185612a27565b93506123c4818560208601612abe565b6123cd81612b81565b840191505092915050565b60006123e382612a0b565b6123ed8185612a38565b93506123fd818560208601612abe565b80840191505092915050565b6000612416602583612a27565b91507f4f6e6c7920746865206f776e65722063616e2063616c6c20746869732066756e60008301527f6374696f6e0000000000000000000000000000000000000000000000000000006020830152604082019050919050565b600061247c601083612a27565b91507f446f63746f72206e6f7420666f756e64000000000000000000000000000000006000830152602082019050919050565b60006124bc600d83612a27565b91507f496e76616c696420656d61696c000000000000000000000000000000000000006000830152602082019050919050565b60006124fc601083612a27565b91507f496e76616c696420686f73706974616c000000000000000000000000000000006000830152602082019050919050565b600061253c601983612a27565b91507f4e494320697320616c72656164792072656769737465726564000000000000006000830152602082019050919050565b600061257c601083612a27565b91507f496e76616c69642070617373776f7264000000000000000000000000000000006000830152602082019050919050565b60006125bc601c83612a27565b91507f446f63746f72204e4943206973206e6f742072656769737465726564000000006000830152602082019050919050565b600061010083016000830151848203600086015261260d8282612366565b915050602083015184820360208601526126278282612366565b915050604083015184820360408601526126418282612366565b9150506060830151848203606086015261265b8282612366565b915050608083015184820360808601526126758282612366565b91505060a083015184820360a086015261268f8282612366565b91505060c083015184820360c08601526126a98282612366565b91505060e083015184820360e08601526126c38282612366565b9150508091505092915050565b60006126dc82846123d8565b915081905092915050565b60006020820190506126fc6000830184612339565b92915050565b60006020820190506127176000830184612348565b92915050565b60006020820190506127326000830184612357565b92915050565b60006020820190508181036000830152612752818461239f565b905092915050565b60006080820190508181036000830152612774818761239f565b90508181036020830152612788818661239f565b9050818103604083015261279c818561239f565b905081810360608301526127b0818461239f565b905095945050505050565b60006101008201905081810360008301526127d6818b61239f565b905081810360208301526127ea818a61239f565b905081810360408301526127fe818961239f565b90508181036060830152612812818861239f565b90508181036080830152612826818761239f565b905081810360a083015261283a818661239f565b905081810360c083015261284e818561239f565b905081810360e0830152612862818461239f565b90509998505050505050505050565b6000604082019050818103600083015261288b818561239f565b9050818103602083015261289f81846125ef565b90509392505050565b600060208201905081810360008301526128c181612409565b9050919050565b600060208201905081810360008301526128e18161246f565b9050919050565b60006020820190508181036000830152612901816124af565b9050919050565b60006020820190508181036000830152612921816124ef565b9050919050565b600060208201905081810360008301526129418161252f565b9050919050565b600060208201905081810360008301526129618161256f565b9050919050565b60006020820190508181036000830152612981816125af565b9050919050565b600060208201905081810360008301526129a281846125ef565b905092915050565b6000604051905081810181811067ffffffffffffffff821117156129d1576129d0612b52565b5b8060405250919050565b600067ffffffffffffffff8211156129f6576129f5612b52565b5b601f19601f8301169050602081019050919050565b600081519050919050565b600082825260208201905092915050565b600082825260208201905092915050565b600081905092915050565b6000612a4e82612a61565b9050919050565b60008115159050919050565b600073ffffffffffffffffffffffffffffffffffffffff82169050919050565b6000819050919050565b6000612a9682612a9d565b9050919050565b6000612aa882612a61565b9050919050565b82818337600083830152505050565b60005b83811015612adc578082015181840152602081019050612ac1565b83811115612aeb576000848401525b50505050565b60006002820490506001821680612b0957607f821691505b60208210811415612b1d57612b1c612b23565b5b50919050565b7f4e487b7100000000000000000000000000000000000000000000000000000000600052602260045260246000fd5b7f4e487b7100000000000000000000000000000000000000000000000000000000600052604160045260246000fd5b6000601f19601f8301169050919050565b612b9b81612a81565b8114612ba657600080fd5b5056fea2646970667358221220821a588c2f108100e43162896ecd9826ceb2096ceb1ee869a54734bdcf23f66064736f6c63430008000033",
  "immutableReferences": {},
  "source": "// SPDX-License-Identifier: MIT \r\npragma solidity 0.8.0;\r\n\r\nimport \"./PatientEMR.sol\";\r\n\r\ncontract DoctorStorage {\r\n    address public owner;\r\n    PatientEMR public patientEMRContract;\r\n\r\n    modifier onlyOwner() {\r\n        require(msg.sender == owner, \"Only the owner can call this function\");\r\n        _;\r\n    }\r\n\r\n    constructor(address _patientEMRContract) {\r\n        owner = msg.sender;\r\n        patientEMRContract = PatientEMR(_patientEMRContract);\r\n    }\r\n\r\n    struct Doctor {\r\n        string email;\r\n        string name;\r\n        string password;\r\n        string nic;\r\n        string telephone;\r\n        string walletAddress;\r\n        string specialties;\r\n        string hospital;\r\n    }\r\n\r\n    struct DoctorAssociation {\r\n        string patientNic;\r\n        string doctorNic;\r\n        string token;\r\n        string validateDate;\r\n        string doctorWalletAddress;\r\n    }\r\n\r\n    mapping(string => Doctor) public doctors;\r\n    mapping(string => bool) public isNICRegistered;\r\n    mapping(string => bool) public isWalletRegistered;\r\n    string[] public registeredNICs;\r\n    string[] public doctorRegisteredNICs;\r\n\r\n    event DoctorAdded(string email, string name, string nic, string hospital);\r\n    event DoctorAssociated(string patientNic, string doctorNic, string token);\r\n    event DoctorDeleted(string doctorNic);\r\n    event DoctorUpdated(string email, string name, string telephone, string specialties);\r\n\r\n    // Doctor\r\n    function addDoctor(\r\n        string memory email,\r\n        string memory name,\r\n        string memory password,\r\n        string memory nic,\r\n        string memory telephone,\r\n        string memory walletAddress,\r\n        string memory specialties,\r\n        string memory hospital\r\n    ) public onlyOwner {\r\n        require(!isNICRegistered[nic], \"NIC is already registered\");\r\n\r\n        Doctor memory newDoctor = Doctor({\r\n            email: email,\r\n            name: name,\r\n            password: password,\r\n            nic: nic,\r\n            telephone: telephone,\r\n            walletAddress: walletAddress,\r\n            specialties: specialties,\r\n            hospital: hospital\r\n        });\r\n\r\n        doctors[nic] = newDoctor;\r\n        isNICRegistered[nic] = true;\r\n        doctorRegisteredNICs.push(nic);\r\n\r\n        emit DoctorAdded(email, name, nic, hospital);\r\n    }\r\n\r\n    function updateDoctorData(\r\n        string memory doctorNic,\r\n        string memory newEmail,\r\n        string memory newName,\r\n        string memory newTelephone,\r\n        string memory newSpecialties\r\n    ) public onlyOwner {\r\n        require(isNICRegistered[doctorNic], \"Doctor NIC is not registered\");\r\n\r\n        Doctor storage doctor = doctors[doctorNic];\r\n        if (bytes(newEmail).length > 0) {\r\n            doctor.email = newEmail;\r\n        }\r\n        if (bytes(newName).length > 0) {\r\n            doctor.name = newName;\r\n        }\r\n        if (bytes(newTelephone).length > 0) {\r\n            doctor.telephone = newTelephone;\r\n        }\r\n        if (bytes(newSpecialties).length > 0) {\r\n            doctor.specialties = newSpecialties;\r\n        }\r\n\r\n        emit DoctorUpdated(newEmail, newName, newTelephone, newSpecialties);\r\n    }\r\n\r\n    \r\n    function isNICAlreadyRegistered(string memory nic) public view returns (bool) {\r\n        return isNICRegistered[nic];\r\n    }\r\n\r\n    function getDoctorDetails(string memory doctorNic) public view returns (Doctor memory) {\r\n        require(isNICRegistered[doctorNic], \"Doctor NIC is not registered\");\r\n        return doctors[doctorNic];\r\n    }\r\n\r\n    function validateDoctorLogin(string memory email, string memory password, string memory doctorNic, string memory hospital) public view returns (string memory message, Doctor memory doctorData) {\r\n        \r\n        if (isNICRegistered[doctorNic]) {\r\n            Doctor memory doctor = doctors[doctorNic];\r\n\r\n            require(\r\n                keccak256(abi.encodePacked(email)) == keccak256(abi.encodePacked(doctor.email)),\r\n                \"Invalid email\"\r\n            );\r\n            require(\r\n                keccak256(abi.encodePacked(password)) == keccak256(abi.encodePacked(doctor.password)),\r\n                \"Invalid password\"\r\n            );\r\n            require(\r\n                keccak256(abi.encodePacked(hospital)) == keccak256(abi.encodePacked(doctor.hospital)),\r\n                \"Invalid hospital\"\r\n            );\r\n\r\n            message = \"Login Successfully\";\r\n            doctorData = Doctor({\r\n                email: doctor.email,\r\n                name: doctor.name,\r\n                password: doctor.password,\r\n                nic: doctor.nic,\r\n                telephone: doctor.telephone,\r\n                walletAddress: doctor.walletAddress,\r\n                specialties: doctor.specialties,\r\n                hospital: doctor.hospital\r\n            });\r\n        } else {\r\n            message = \"Doctor NIC not registered\";\r\n            doctorData = Doctor(\"\", \"\", \"\", \"\", \"\", \"\", \"\", \"\");\r\n        }\r\n    }\r\n\r\n    function deleteDoctor(string memory doctorNic) public onlyOwner {\r\n        require(bytes(doctors[doctorNic].name).length > 0, \"Doctor not found\");\r\n        delete doctors[doctorNic];\r\n        emit DoctorDeleted(doctorNic);\r\n    }\r\n\r\n    // Helper function to compare strings\r\n    function compareStrings(string memory a, string memory b) internal pure returns (bool) {\r\n        return keccak256(abi.encodePacked(a)) == keccak256(abi.encodePacked(b));\r\n    }\r\n    \r\n}\r\n",
  "sourcePath": "C:\\Users\\avjc2\\Documents\\S2 BINUS\\THESIS\\BLOCKCHAIN\\APPLICATIONS\\EMRIHsystem\\smart_contracts\\contracts\\DoctorStorage.sol",
  "compiler": {
    "name": "solc",
    "version": "0.8.0+commit.c7dfd78e.Emscripten.clang"
  },
  "schemaVersion": "3.4.16",
  "updatedAt": "2024-02-02T15:16:24.847Z",
  "networkType": "ethereum",
  "devdoc": {
    "kind": "dev",
    "methods": {},
    "version": 1
  },
  "userdoc": {
    "kind": "user",
    "methods": {},
    "version": 1
  }
}